{
	"contracts/1_primeros_pasos.sol": {
		"variables_modifiers": {
			"abi": [
				{
					"inputs": [],
					"name": "address1",
					"outputs": [
						{
							"internalType": "address",
							"name": "",
							"type": "address"
						}
					],
					"stateMutability": "view",
					"type": "function"
				},
				{
					"inputs": [],
					"name": "address2",
					"outputs": [
						{
							"internalType": "address",
							"name": "",
							"type": "address"
						}
					],
					"stateMutability": "view",
					"type": "function"
				},
				{
					"inputs": [],
					"name": "b",
					"outputs": [
						{
							"internalType": "uint8",
							"name": "",
							"type": "uint8"
						}
					],
					"stateMutability": "view",
					"type": "function"
				},
				{
					"inputs": [],
					"name": "boolean_true",
					"outputs": [
						{
							"internalType": "bool",
							"name": "",
							"type": "bool"
						}
					],
					"stateMutability": "view",
					"type": "function"
				},
				{
					"inputs": [],
					"name": "d",
					"outputs": [
						{
							"internalType": "int8",
							"name": "",
							"type": "int8"
						}
					],
					"stateMutability": "view",
					"type": "function"
				},
				{
					"inputs": [],
					"name": "displayState",
					"outputs": [
						{
							"internalType": "enum variables_modifiers.options",
							"name": "",
							"type": "uint8"
						}
					],
					"stateMutability": "view",
					"type": "function"
				},
				{
					"inputs": [],
					"name": "hashing_keccak256",
					"outputs": [
						{
							"internalType": "bytes32",
							"name": "",
							"type": "bytes32"
						}
					],
					"stateMutability": "view",
					"type": "function"
				},
				{
					"inputs": [],
					"name": "hashing_ripemd160",
					"outputs": [
						{
							"internalType": "bytes20",
							"name": "",
							"type": "bytes20"
						}
					],
					"stateMutability": "view",
					"type": "function"
				},
				{
					"inputs": [],
					"name": "hashing_sha256",
					"outputs": [
						{
							"internalType": "bytes32",
							"name": "",
							"type": "bytes32"
						}
					],
					"stateMutability": "view",
					"type": "function"
				},
				{
					"inputs": [],
					"name": "str_public",
					"outputs": [
						{
							"internalType": "string",
							"name": "",
							"type": "string"
						}
					],
					"stateMutability": "view",
					"type": "function"
				},
				{
					"inputs": [],
					"name": "tunroOff",
					"outputs": [],
					"stateMutability": "nonpayable",
					"type": "function"
				},
				{
					"inputs": [],
					"name": "turnOn",
					"outputs": [],
					"stateMutability": "nonpayable",
					"type": "function"
				}
			],
			"devdoc": {
				"kind": "dev",
				"methods": {},
				"version": 1
			},
			"evm": {
				"assembly": "    /* \"contracts/1_primeros_pasos.sol\":60:1517  contract variables_modifiers{... */\n  mstore(0x40, 0x80)\n    /* \"contracts/1_primeros_pasos.sol\":170:171  3 */\n  0x03\n    /* \"contracts/1_primeros_pasos.sol\":153:171  uint8 public b = 3 */\n  0x01\n  exp(0x0100, 0x00)\n  dup2\n  sload\n  dup2\n  0xff\n  mul\n  not\n  and\n  swap1\n  dup4\n  0xff\n  and\n  mul\n  or\n  swap1\n  sstore\n  pop\n    /* \"contracts/1_primeros_pasos.sol\":253:256  -32 */\n  0xffffffffffffffffffffffffffffffffffffffffffffffffffffffffffffffe0\n    /* \"contracts/1_primeros_pasos.sol\":237:256  int8 public d = -32 */\n  0x03\n  exp(0x0100, 0x00)\n  dup2\n  sload\n  dup2\n  0xff\n  mul\n  not\n  and\n  swap1\n  dup4\n  0x00\n  signextend\n  0xff\n  and\n  mul\n  or\n  swap1\n  sstore\n  pop\n    /* \"contracts/1_primeros_pasos.sol\":271:273  65 */\n  0x41\n    /* \"contracts/1_primeros_pasos.sol\":263:273  int e = 65 */\n  0x04\n  sstore\n    /* \"contracts/1_primeros_pasos.sol\":325:369  string public str_public = \"Esto es publico\" */\n  mload(0x40)\n  dup1\n  0x40\n  add\n  0x40\n  mstore\n  dup1\n  0x0f\n  dup2\n  mstore\n  0x20\n  add\n  0x4573746f206573207075626c69636f0000000000000000000000000000000000\n  dup2\n  mstore\n  pop\n  0x06\n  swap1\n  dup2\n  tag_1\n  swap2\n  swap1\n  tag_2\n  jump\t// in\ntag_1:\n  pop\n    /* \"contracts/1_primeros_pasos.sol\":376:422  string private str_private = \"Esto es privado\" */\n  mload(0x40)\n  dup1\n  0x40\n  add\n  0x40\n  mstore\n  dup1\n  0x0f\n  dup2\n  mstore\n  0x20\n  add\n  0x4573746f206573207072697661646f0000000000000000000000000000000000\n  dup2\n  mstore\n  pop\n  0x07\n  swap1\n  dup2\n  tag_3\n  swap2\n  swap1\n  tag_2\n  jump\t// in\ntag_3:\n  pop\n    /* \"contracts/1_primeros_pasos.sol\":505:509  true */\n  0x01\n    /* \"contracts/1_primeros_pasos.sol\":478:509  bool public boolean_true = true */\n  0x08\n  exp(0x0100, 0x01)\n  dup2\n  sload\n  dup2\n  0xff\n  mul\n  not\n  and\n  swap1\n  dup4\n  iszero\n  iszero\n  mul\n  or\n  swap1\n  sstore\n  pop\n    /* \"contracts/1_primeros_pasos.sol\":545:550  false */\n  0x00\n    /* \"contracts/1_primeros_pasos.sol\":516:550  bool private boolean_false = false */\n  0x08\n  exp(0x0100, 0x02)\n  dup2\n  sload\n  dup2\n  0xff\n  mul\n  not\n  and\n  swap1\n  dup4\n  iszero\n  iszero\n  mul\n  or\n  swap1\n  sstore\n  pop\n    /* \"contracts/1_primeros_pasos.sol\":766:768  10 */\n  0x0a\n    /* \"contracts/1_primeros_pasos.sol\":771:781  msg.sender */\n  caller\n    /* \"contracts/1_primeros_pasos.sol\":729:782  abi.encodePacked(\"Hello world\", uint(10), msg.sender) */\n  add(0x20, mload(0x40))\n  tag_4\n  swap3\n  swap2\n  swap1\n  tag_5\n  jump\t// in\ntag_4:\n  mload(0x40)\n  0x20\n  dup2\n  dup4\n  sub\n  sub\n  dup2\n  mstore\n  swap1\n  0x40\n  mstore\n    /* \"contracts/1_primeros_pasos.sol\":719:783  keccak256(abi.encodePacked(\"Hello world\", uint(10), msg.sender)) */\n  dup1\n  mload\n  swap1\n  0x20\n  add\n  keccak256\n    /* \"contracts/1_primeros_pasos.sol\":684:783  bytes32 public hashing_keccak256 = keccak256(abi.encodePacked(\"Hello world\", uint(10), msg.sender)) */\n  0x0b\n  sstore\n    /* \"contracts/1_primeros_pasos.sol\":822:861  sha256(abi.encodePacked(\"Hello World\")) */\n  0x02\n    /* \"contracts/1_primeros_pasos.sol\":829:860  abi.encodePacked(\"Hello World\") */\n  add(0x20, mload(0x40))\n  tag_6\n  swap1\n  tag_7\n  jump\t// in\ntag_6:\n  mload(0x40)\n  0x20\n  dup2\n  dup4\n  sub\n  sub\n  dup2\n  mstore\n  swap1\n  0x40\n  mstore\n    /* \"contracts/1_primeros_pasos.sol\":822:861  sha256(abi.encodePacked(\"Hello World\")) */\n  mload(0x40)\n  tag_8\n  swap2\n  swap1\n  tag_9\n  jump\t// in\ntag_8:\n  0x20\n  mload(0x40)\n  dup1\n  dup4\n  sub\n  dup2\n  dup6\n  gas\n  staticcall\n  iszero\n  dup1\n  iszero\n  tag_11\n  jumpi\n  returndatasize\n  0x00\n  dup1\n  returndatacopy\n  revert(0x00, returndatasize)\ntag_11:\n  pop\n  pop\n  pop\n  mload(0x40)\n  returndatasize\n  not(0x1f)\n  0x1f\n  dup3\n  add\n  and\n  dup3\n  add\n  dup1\n  0x40\n  mstore\n  pop\n  dup2\n  add\n  swap1\n  tag_12\n  swap2\n  swap1\n  tag_13\n  jump\t// in\ntag_12:\n    /* \"contracts/1_primeros_pasos.sol\":790:861  bytes32 public hashing_sha256 = sha256(abi.encodePacked(\"Hello World\")) */\n  0x0c\n  sstore\n    /* \"contracts/1_primeros_pasos.sol\":903:945  ripemd160(abi.encodePacked(\"Hello world\")) */\n  0x03\n    /* \"contracts/1_primeros_pasos.sol\":913:944  abi.encodePacked(\"Hello world\") */\n  add(0x20, mload(0x40))\n  tag_14\n  swap1\n  tag_15\n  jump\t// in\ntag_14:\n  mload(0x40)\n  0x20\n  dup2\n  dup4\n  sub\n  sub\n  dup2\n  mstore\n  swap1\n  0x40\n  mstore\n    /* \"contracts/1_primeros_pasos.sol\":903:945  ripemd160(abi.encodePacked(\"Hello world\")) */\n  mload(0x40)\n  tag_16\n  swap2\n  swap1\n  tag_9\n  jump\t// in\ntag_16:\n  0x20\n  mload(0x40)\n  dup1\n  dup4\n  sub\n  dup2\n  dup6\n  gas\n  staticcall\n  iszero\n  dup1\n  iszero\n  tag_18\n  jumpi\n  returndatasize\n  0x00\n  dup1\n  returndatacopy\n  revert(0x00, returndatasize)\ntag_18:\n  pop\n  pop\n  pop\n  shl(0x60, mload(mload(0x40)))\n    /* \"contracts/1_primeros_pasos.sol\":868:945  bytes20 public hashing_ripemd160 = ripemd160(abi.encodePacked(\"Hello world\")) */\n  0x0d\n  exp(0x0100, 0x00)\n  dup2\n  sload\n  dup2\n  0xffffffffffffffffffffffffffffffffffffffff\n  mul\n  not\n  and\n  swap1\n  dup4\n  0x60\n  shr\n  mul\n  or\n  swap1\n  sstore\n  pop\n    /* \"contracts/1_primeros_pasos.sol\":1048:1090  0x5B38Da6a701c568545dCfcB03FcB875f56beddC4 */\n  0x5b38da6a701c568545dcfcb03fcb875f56beddc4\n    /* \"contracts/1_primeros_pasos.sol\":1022:1090  address public address1 = 0x5B38Da6a701c568545dCfcB03FcB875f56beddC4 */\n  0x0f\n  exp(0x0100, 0x00)\n  dup2\n  sload\n  dup2\n  0xffffffffffffffffffffffffffffffffffffffff\n  mul\n  not\n  and\n  swap1\n  dup4\n  0xffffffffffffffffffffffffffffffffffffffff\n  and\n  mul\n  or\n  swap1\n  sstore\n  pop\n    /* \"contracts/1_primeros_pasos.sol\":1123:1133  msg.sender */\n  caller\n    /* \"contracts/1_primeros_pasos.sol\":1097:1133  address public address2 = msg.sender */\n  0x10\n  exp(0x0100, 0x00)\n  dup2\n  sload\n  dup2\n  0xffffffffffffffffffffffffffffffffffffffff\n  mul\n  not\n  and\n  swap1\n  dup4\n  0xffffffffffffffffffffffffffffffffffffffff\n  and\n  mul\n  or\n  swap1\n  sstore\n  pop\n    /* \"contracts/1_primeros_pasos.sol\":60:1517  contract variables_modifiers{... */\n  callvalue\n  dup1\n  iszero\n  tag_19\n  jumpi\n  0x00\n  dup1\n  revert\ntag_19:\n  pop\n  jump(tag_20)\n    /* \"#utility.yul\":7:106   */\ntag_21:\n    /* \"#utility.yul\":59:65   */\n  0x00\n    /* \"#utility.yul\":93:98   */\n  dup2\n    /* \"#utility.yul\":87:99   */\n  mload\n    /* \"#utility.yul\":77:99   */\n  swap1\n  pop\n    /* \"#utility.yul\":7:106   */\n  swap2\n  swap1\n  pop\n  jump\t// out\n    /* \"#utility.yul\":112:292   */\ntag_22:\n    /* \"#utility.yul\":160:237   */\n  0x4e487b7100000000000000000000000000000000000000000000000000000000\n    /* \"#utility.yul\":157:158   */\n  0x00\n    /* \"#utility.yul\":150:238   */\n  mstore\n    /* \"#utility.yul\":257:261   */\n  0x41\n    /* \"#utility.yul\":254:255   */\n  0x04\n    /* \"#utility.yul\":247:262   */\n  mstore\n    /* \"#utility.yul\":281:285   */\n  0x24\n    /* \"#utility.yul\":278:279   */\n  0x00\n    /* \"#utility.yul\":271:286   */\n  revert\n    /* \"#utility.yul\":298:478   */\ntag_23:\n    /* \"#utility.yul\":346:423   */\n  0x4e487b7100000000000000000000000000000000000000000000000000000000\n    /* \"#utility.yul\":343:344   */\n  0x00\n    /* \"#utility.yul\":336:424   */\n  mstore\n    /* \"#utility.yul\":443:447   */\n  0x22\n    /* \"#utility.yul\":440:441   */\n  0x04\n    /* \"#utility.yul\":433:448   */\n  mstore\n    /* \"#utility.yul\":467:471   */\n  0x24\n    /* \"#utility.yul\":464:465   */\n  0x00\n    /* \"#utility.yul\":457:472   */\n  revert\n    /* \"#utility.yul\":484:804   */\ntag_24:\n    /* \"#utility.yul\":528:534   */\n  0x00\n    /* \"#utility.yul\":565:566   */\n  0x02\n    /* \"#utility.yul\":559:563   */\n  dup3\n    /* \"#utility.yul\":555:567   */\n  div\n    /* \"#utility.yul\":545:567   */\n  swap1\n  pop\n    /* \"#utility.yul\":612:613   */\n  0x01\n    /* \"#utility.yul\":606:610   */\n  dup3\n    /* \"#utility.yul\":602:614   */\n  and\n    /* \"#utility.yul\":633:651   */\n  dup1\n    /* \"#utility.yul\":623:704   */\n  tag_69\n  jumpi\n    /* \"#utility.yul\":689:693   */\n  0x7f\n    /* \"#utility.yul\":681:687   */\n  dup3\n    /* \"#utility.yul\":677:694   */\n  and\n    /* \"#utility.yul\":667:694   */\n  swap2\n  pop\n    /* \"#utility.yul\":623:704   */\ntag_69:\n    /* \"#utility.yul\":751:753   */\n  0x20\n    /* \"#utility.yul\":743:749   */\n  dup3\n    /* \"#utility.yul\":740:754   */\n  lt\n    /* \"#utility.yul\":720:738   */\n  dup2\n    /* \"#utility.yul\":717:755   */\n  sub\n    /* \"#utility.yul\":714:798   */\n  tag_70\n  jumpi\n    /* \"#utility.yul\":770:788   */\n  tag_71\n  tag_23\n  jump\t// in\ntag_71:\n    /* \"#utility.yul\":714:798   */\ntag_70:\n    /* \"#utility.yul\":535:804   */\n  pop\n    /* \"#utility.yul\":484:804   */\n  swap2\n  swap1\n  pop\n  jump\t// out\n    /* \"#utility.yul\":810:951   */\ntag_25:\n    /* \"#utility.yul\":859:863   */\n  0x00\n    /* \"#utility.yul\":882:885   */\n  dup2\n    /* \"#utility.yul\":874:885   */\n  swap1\n  pop\n    /* \"#utility.yul\":905:908   */\n  dup2\n    /* \"#utility.yul\":902:903   */\n  0x00\n    /* \"#utility.yul\":895:909   */\n  mstore\n    /* \"#utility.yul\":939:943   */\n  0x20\n    /* \"#utility.yul\":936:937   */\n  0x00\n    /* \"#utility.yul\":926:944   */\n  keccak256\n    /* \"#utility.yul\":918:944   */\n  swap1\n  pop\n    /* \"#utility.yul\":810:951   */\n  swap2\n  swap1\n  pop\n  jump\t// out\n    /* \"#utility.yul\":957:1050   */\ntag_26:\n    /* \"#utility.yul\":994:1000   */\n  0x00\n    /* \"#utility.yul\":1041:1043   */\n  0x20\n    /* \"#utility.yul\":1036:1038   */\n  0x1f\n    /* \"#utility.yul\":1029:1034   */\n  dup4\n    /* \"#utility.yul\":1025:1039   */\n  add\n    /* \"#utility.yul\":1021:1044   */\n  div\n    /* \"#utility.yul\":1011:1044   */\n  swap1\n  pop\n    /* \"#utility.yul\":957:1050   */\n  swap2\n  swap1\n  pop\n  jump\t// out\n    /* \"#utility.yul\":1056:1163   */\ntag_27:\n    /* \"#utility.yul\":1100:1108   */\n  0x00\n    /* \"#utility.yul\":1150:1155   */\n  dup3\n    /* \"#utility.yul\":1144:1148   */\n  dup3\n    /* \"#utility.yul\":1140:1156   */\n  shl\n    /* \"#utility.yul\":1119:1156   */\n  swap1\n  pop\n    /* \"#utility.yul\":1056:1163   */\n  swap3\n  swap2\n  pop\n  pop\n  jump\t// out\n    /* \"#utility.yul\":1169:1562   */\ntag_28:\n    /* \"#utility.yul\":1238:1244   */\n  0x00\n    /* \"#utility.yul\":1288:1289   */\n  0x08\n    /* \"#utility.yul\":1276:1286   */\n  dup4\n    /* \"#utility.yul\":1272:1290   */\n  mul\n    /* \"#utility.yul\":1311:1408   */\n  tag_76\n    /* \"#utility.yul\":1341:1407   */\n  0xffffffffffffffffffffffffffffffffffffffffffffffffffffffffffffffff\n    /* \"#utility.yul\":1330:1339   */\n  dup3\n    /* \"#utility.yul\":1311:1408   */\n  tag_27\n  jump\t// in\ntag_76:\n    /* \"#utility.yul\":1429:1468   */\n  tag_77\n    /* \"#utility.yul\":1459:1467   */\n  dup7\n    /* \"#utility.yul\":1448:1457   */\n  dup4\n    /* \"#utility.yul\":1429:1468   */\n  tag_27\n  jump\t// in\ntag_77:\n    /* \"#utility.yul\":1417:1468   */\n  swap6\n  pop\n    /* \"#utility.yul\":1501:1505   */\n  dup1\n    /* \"#utility.yul\":1497:1506   */\n  not\n    /* \"#utility.yul\":1490:1495   */\n  dup5\n    /* \"#utility.yul\":1486:1507   */\n  and\n    /* \"#utility.yul\":1477:1507   */\n  swap4\n  pop\n    /* \"#utility.yul\":1550:1554   */\n  dup1\n    /* \"#utility.yul\":1540:1548   */\n  dup7\n    /* \"#utility.yul\":1536:1555   */\n  and\n    /* \"#utility.yul\":1529:1534   */\n  dup5\n    /* \"#utility.yul\":1526:1556   */\n  or\n    /* \"#utility.yul\":1516:1556   */\n  swap3\n  pop\n    /* \"#utility.yul\":1245:1562   */\n  pop\n  pop\n    /* \"#utility.yul\":1169:1562   */\n  swap4\n  swap3\n  pop\n  pop\n  pop\n  jump\t// out\n    /* \"#utility.yul\":1568:1645   */\ntag_29:\n    /* \"#utility.yul\":1605:1612   */\n  0x00\n    /* \"#utility.yul\":1634:1639   */\n  dup2\n    /* \"#utility.yul\":1623:1639   */\n  swap1\n  pop\n    /* \"#utility.yul\":1568:1645   */\n  swap2\n  swap1\n  pop\n  jump\t// out\n    /* \"#utility.yul\":1651:1711   */\ntag_30:\n    /* \"#utility.yul\":1679:1682   */\n  0x00\n    /* \"#utility.yul\":1700:1705   */\n  dup2\n    /* \"#utility.yul\":1693:1705   */\n  swap1\n  pop\n    /* \"#utility.yul\":1651:1711   */\n  swap2\n  swap1\n  pop\n  jump\t// out\n    /* \"#utility.yul\":1717:1859   */\ntag_31:\n    /* \"#utility.yul\":1767:1776   */\n  0x00\n    /* \"#utility.yul\":1800:1853   */\n  tag_81\n    /* \"#utility.yul\":1818:1852   */\n  tag_82\n    /* \"#utility.yul\":1827:1851   */\n  tag_83\n    /* \"#utility.yul\":1845:1850   */\n  dup5\n    /* \"#utility.yul\":1827:1851   */\n  tag_29\n  jump\t// in\ntag_83:\n    /* \"#utility.yul\":1818:1852   */\n  tag_30\n  jump\t// in\ntag_82:\n    /* \"#utility.yul\":1800:1853   */\n  tag_29\n  jump\t// in\ntag_81:\n    /* \"#utility.yul\":1787:1853   */\n  swap1\n  pop\n    /* \"#utility.yul\":1717:1859   */\n  swap2\n  swap1\n  pop\n  jump\t// out\n    /* \"#utility.yul\":1865:1940   */\ntag_32:\n    /* \"#utility.yul\":1908:1911   */\n  0x00\n    /* \"#utility.yul\":1929:1934   */\n  dup2\n    /* \"#utility.yul\":1922:1934   */\n  swap1\n  pop\n    /* \"#utility.yul\":1865:1940   */\n  swap2\n  swap1\n  pop\n  jump\t// out\n    /* \"#utility.yul\":1946:2215   */\ntag_33:\n    /* \"#utility.yul\":2056:2095   */\n  tag_86\n    /* \"#utility.yul\":2087:2094   */\n  dup4\n    /* \"#utility.yul\":2056:2095   */\n  tag_31\n  jump\t// in\ntag_86:\n    /* \"#utility.yul\":2117:2208   */\n  tag_87\n    /* \"#utility.yul\":2166:2207   */\n  tag_88\n    /* \"#utility.yul\":2190:2206   */\n  dup3\n    /* \"#utility.yul\":2166:2207   */\n  tag_32\n  jump\t// in\ntag_88:\n    /* \"#utility.yul\":2158:2164   */\n  dup5\n    /* \"#utility.yul\":2151:2155   */\n  dup5\n    /* \"#utility.yul\":2145:2156   */\n  sload\n    /* \"#utility.yul\":2117:2208   */\n  tag_28\n  jump\t// in\ntag_87:\n    /* \"#utility.yul\":2111:2115   */\n  dup3\n    /* \"#utility.yul\":2104:2209   */\n  sstore\n    /* \"#utility.yul\":2022:2215   */\n  pop\n    /* \"#utility.yul\":1946:2215   */\n  pop\n  pop\n  pop\n  jump\t// out\n    /* \"#utility.yul\":2221:2294   */\ntag_34:\n    /* \"#utility.yul\":2266:2269   */\n  0x00\n    /* \"#utility.yul\":2221:2294   */\n  swap1\n  jump\t// out\n    /* \"#utility.yul\":2300:2489   */\ntag_35:\n    /* \"#utility.yul\":2377:2409   */\n  tag_91\n  tag_34\n  jump\t// in\ntag_91:\n    /* \"#utility.yul\":2418:2483   */\n  tag_92\n    /* \"#utility.yul\":2476:2482   */\n  dup2\n    /* \"#utility.yul\":2468:2474   */\n  dup5\n    /* \"#utility.yul\":2462:2466   */\n  dup5\n    /* \"#utility.yul\":2418:2483   */\n  tag_33\n  jump\t// in\ntag_92:\n    /* \"#utility.yul\":2353:2489   */\n  pop\n    /* \"#utility.yul\":2300:2489   */\n  pop\n  pop\n  jump\t// out\n    /* \"#utility.yul\":2495:2681   */\ntag_36:\n    /* \"#utility.yul\":2555:2675   */\ntag_94:\n    /* \"#utility.yul\":2572:2575   */\n  dup2\n    /* \"#utility.yul\":2565:2570   */\n  dup2\n    /* \"#utility.yul\":2562:2576   */\n  lt\n    /* \"#utility.yul\":2555:2675   */\n  iszero\n  tag_96\n  jumpi\n    /* \"#utility.yul\":2626:2665   */\n  tag_97\n    /* \"#utility.yul\":2663:2664   */\n  0x00\n    /* \"#utility.yul\":2656:2661   */\n  dup3\n    /* \"#utility.yul\":2626:2665   */\n  tag_35\n  jump\t// in\ntag_97:\n    /* \"#utility.yul\":2599:2600   */\n  0x01\n    /* \"#utility.yul\":2592:2597   */\n  dup2\n    /* \"#utility.yul\":2588:2601   */\n  add\n    /* \"#utility.yul\":2579:2601   */\n  swap1\n  pop\n    /* \"#utility.yul\":2555:2675   */\n  jump(tag_94)\ntag_96:\n    /* \"#utility.yul\":2495:2681   */\n  pop\n  pop\n  jump\t// out\n    /* \"#utility.yul\":2687:3230   */\ntag_37:\n    /* \"#utility.yul\":2788:2790   */\n  0x1f\n    /* \"#utility.yul\":2783:2786   */\n  dup3\n    /* \"#utility.yul\":2780:2791   */\n  gt\n    /* \"#utility.yul\":2777:3223   */\n  iszero\n  tag_99\n  jumpi\n    /* \"#utility.yul\":2822:2860   */\n  tag_100\n    /* \"#utility.yul\":2854:2859   */\n  dup2\n    /* \"#utility.yul\":2822:2860   */\n  tag_25\n  jump\t// in\ntag_100:\n    /* \"#utility.yul\":2906:2935   */\n  tag_101\n    /* \"#utility.yul\":2924:2934   */\n  dup5\n    /* \"#utility.yul\":2906:2935   */\n  tag_26\n  jump\t// in\ntag_101:\n    /* \"#utility.yul\":2896:2904   */\n  dup2\n    /* \"#utility.yul\":2892:2936   */\n  add\n    /* \"#utility.yul\":3089:3091   */\n  0x20\n    /* \"#utility.yul\":3077:3087   */\n  dup6\n    /* \"#utility.yul\":3074:3092   */\n  lt\n    /* \"#utility.yul\":3071:3120   */\n  iszero\n  tag_102\n  jumpi\n    /* \"#utility.yul\":3110:3118   */\n  dup2\n    /* \"#utility.yul\":3095:3118   */\n  swap1\n  pop\n    /* \"#utility.yul\":3071:3120   */\ntag_102:\n    /* \"#utility.yul\":3133:3213   */\n  tag_103\n    /* \"#utility.yul\":3189:3211   */\n  tag_104\n    /* \"#utility.yul\":3207:3210   */\n  dup6\n    /* \"#utility.yul\":3189:3211   */\n  tag_26\n  jump\t// in\ntag_104:\n    /* \"#utility.yul\":3179:3187   */\n  dup4\n    /* \"#utility.yul\":3175:3212   */\n  add\n    /* \"#utility.yul\":3162:3173   */\n  dup3\n    /* \"#utility.yul\":3133:3213   */\n  tag_36\n  jump\t// in\ntag_103:\n    /* \"#utility.yul\":2792:3223   */\n  pop\n  pop\n    /* \"#utility.yul\":2777:3223   */\ntag_99:\n    /* \"#utility.yul\":2687:3230   */\n  pop\n  pop\n  pop\n  jump\t// out\n    /* \"#utility.yul\":3236:3353   */\ntag_38:\n    /* \"#utility.yul\":3290:3298   */\n  0x00\n    /* \"#utility.yul\":3340:3345   */\n  dup3\n    /* \"#utility.yul\":3334:3338   */\n  dup3\n    /* \"#utility.yul\":3330:3346   */\n  shr\n    /* \"#utility.yul\":3309:3346   */\n  swap1\n  pop\n    /* \"#utility.yul\":3236:3353   */\n  swap3\n  swap2\n  pop\n  pop\n  jump\t// out\n    /* \"#utility.yul\":3359:3528   */\ntag_39:\n    /* \"#utility.yul\":3403:3409   */\n  0x00\n    /* \"#utility.yul\":3436:3487   */\n  tag_107\n    /* \"#utility.yul\":3484:3485   */\n  0x00\n    /* \"#utility.yul\":3480:3486   */\n  not\n    /* \"#utility.yul\":3472:3477   */\n  dup5\n    /* \"#utility.yul\":3469:3470   */\n  0x08\n    /* \"#utility.yul\":3465:3478   */\n  mul\n    /* \"#utility.yul\":3436:3487   */\n  tag_38\n  jump\t// in\ntag_107:\n    /* \"#utility.yul\":3432:3488   */\n  not\n    /* \"#utility.yul\":3517:3521   */\n  dup1\n    /* \"#utility.yul\":3511:3515   */\n  dup4\n    /* \"#utility.yul\":3507:3522   */\n  and\n    /* \"#utility.yul\":3497:3522   */\n  swap2\n  pop\n    /* \"#utility.yul\":3410:3528   */\n  pop\n    /* \"#utility.yul\":3359:3528   */\n  swap3\n  swap2\n  pop\n  pop\n  jump\t// out\n    /* \"#utility.yul\":3533:3828   */\ntag_40:\n    /* \"#utility.yul\":3609:3613   */\n  0x00\n    /* \"#utility.yul\":3755:3784   */\n  tag_109\n    /* \"#utility.yul\":3780:3783   */\n  dup4\n    /* \"#utility.yul\":3774:3778   */\n  dup4\n    /* \"#utility.yul\":3755:3784   */\n  tag_39\n  jump\t// in\ntag_109:\n    /* \"#utility.yul\":3747:3784   */\n  swap2\n  pop\n    /* \"#utility.yul\":3817:3820   */\n  dup3\n    /* \"#utility.yul\":3814:3815   */\n  0x02\n    /* \"#utility.yul\":3810:3821   */\n  mul\n    /* \"#utility.yul\":3804:3808   */\n  dup3\n    /* \"#utility.yul\":3801:3822   */\n  or\n    /* \"#utility.yul\":3793:3822   */\n  swap1\n  pop\n    /* \"#utility.yul\":3533:3828   */\n  swap3\n  swap2\n  pop\n  pop\n  jump\t// out\n    /* \"#utility.yul\":3833:5228   */\ntag_2:\n    /* \"#utility.yul\":3950:3987   */\n  tag_111\n    /* \"#utility.yul\":3983:3986   */\n  dup3\n    /* \"#utility.yul\":3950:3987   */\n  tag_21\n  jump\t// in\ntag_111:\n    /* \"#utility.yul\":4052:4070   */\n  0xffffffffffffffff\n    /* \"#utility.yul\":4044:4050   */\n  dup2\n    /* \"#utility.yul\":4041:4071   */\n  gt\n    /* \"#utility.yul\":4038:4094   */\n  iszero\n  tag_112\n  jumpi\n    /* \"#utility.yul\":4074:4092   */\n  tag_113\n  tag_22\n  jump\t// in\ntag_113:\n    /* \"#utility.yul\":4038:4094   */\ntag_112:\n    /* \"#utility.yul\":4118:4156   */\n  tag_114\n    /* \"#utility.yul\":4150:4154   */\n  dup3\n    /* \"#utility.yul\":4144:4155   */\n  sload\n    /* \"#utility.yul\":4118:4156   */\n  tag_24\n  jump\t// in\ntag_114:\n    /* \"#utility.yul\":4203:4270   */\n  tag_115\n    /* \"#utility.yul\":4263:4269   */\n  dup3\n    /* \"#utility.yul\":4255:4261   */\n  dup3\n    /* \"#utility.yul\":4249:4253   */\n  dup6\n    /* \"#utility.yul\":4203:4270   */\n  tag_37\n  jump\t// in\ntag_115:\n    /* \"#utility.yul\":4297:4298   */\n  0x00\n    /* \"#utility.yul\":4321:4325   */\n  0x20\n    /* \"#utility.yul\":4308:4325   */\n  swap1\n  pop\n    /* \"#utility.yul\":4353:4355   */\n  0x1f\n    /* \"#utility.yul\":4345:4351   */\n  dup4\n    /* \"#utility.yul\":4342:4356   */\n  gt\n    /* \"#utility.yul\":4370:4371   */\n  0x01\n    /* \"#utility.yul\":4365:4983   */\n  dup2\n  eq\n  tag_117\n  jumpi\n    /* \"#utility.yul\":5027:5028   */\n  0x00\n    /* \"#utility.yul\":5044:5050   */\n  dup5\n    /* \"#utility.yul\":5041:5118   */\n  iszero\n  tag_118\n  jumpi\n    /* \"#utility.yul\":5093:5102   */\n  dup3\n    /* \"#utility.yul\":5088:5091   */\n  dup8\n    /* \"#utility.yul\":5084:5103   */\n  add\n    /* \"#utility.yul\":5078:5104   */\n  mload\n    /* \"#utility.yul\":5069:5104   */\n  swap1\n  pop\n    /* \"#utility.yul\":5041:5118   */\ntag_118:\n    /* \"#utility.yul\":5144:5211   */\n  tag_119\n    /* \"#utility.yul\":5204:5210   */\n  dup6\n    /* \"#utility.yul\":5197:5202   */\n  dup3\n    /* \"#utility.yul\":5144:5211   */\n  tag_40\n  jump\t// in\ntag_119:\n    /* \"#utility.yul\":5138:5142   */\n  dup7\n    /* \"#utility.yul\":5131:5212   */\n  sstore\n    /* \"#utility.yul\":5000:5222   */\n  pop\n    /* \"#utility.yul\":4335:5222   */\n  jump(tag_116)\n    /* \"#utility.yul\":4365:4983   */\ntag_117:\n    /* \"#utility.yul\":4417:4421   */\n  0x1f\n    /* \"#utility.yul\":4413:4422   */\n  not\n    /* \"#utility.yul\":4405:4411   */\n  dup5\n    /* \"#utility.yul\":4401:4423   */\n  and\n    /* \"#utility.yul\":4451:4488   */\n  tag_120\n    /* \"#utility.yul\":4483:4487   */\n  dup7\n    /* \"#utility.yul\":4451:4488   */\n  tag_25\n  jump\t// in\ntag_120:\n    /* \"#utility.yul\":4510:4511   */\n  0x00\n    /* \"#utility.yul\":4524:4732   */\ntag_121:\n    /* \"#utility.yul\":4538:4545   */\n  dup3\n    /* \"#utility.yul\":4535:4536   */\n  dup2\n    /* \"#utility.yul\":4532:4546   */\n  lt\n    /* \"#utility.yul\":4524:4732   */\n  iszero\n  tag_123\n  jumpi\n    /* \"#utility.yul\":4617:4626   */\n  dup5\n    /* \"#utility.yul\":4612:4615   */\n  dup10\n    /* \"#utility.yul\":4608:4627   */\n  add\n    /* \"#utility.yul\":4602:4628   */\n  mload\n    /* \"#utility.yul\":4594:4600   */\n  dup3\n    /* \"#utility.yul\":4587:4629   */\n  sstore\n    /* \"#utility.yul\":4668:4669   */\n  0x01\n    /* \"#utility.yul\":4660:4666   */\n  dup3\n    /* \"#utility.yul\":4656:4670   */\n  add\n    /* \"#utility.yul\":4646:4670   */\n  swap2\n  pop\n    /* \"#utility.yul\":4715:4717   */\n  0x20\n    /* \"#utility.yul\":4704:4713   */\n  dup6\n    /* \"#utility.yul\":4700:4718   */\n  add\n    /* \"#utility.yul\":4687:4718   */\n  swap5\n  pop\n    /* \"#utility.yul\":4561:4565   */\n  0x20\n    /* \"#utility.yul\":4558:4559   */\n  dup2\n    /* \"#utility.yul\":4554:4566   */\n  add\n    /* \"#utility.yul\":4549:4566   */\n  swap1\n  pop\n    /* \"#utility.yul\":4524:4732   */\n  jump(tag_121)\ntag_123:\n    /* \"#utility.yul\":4760:4766   */\n  dup7\n    /* \"#utility.yul\":4751:4758   */\n  dup4\n    /* \"#utility.yul\":4748:4767   */\n  lt\n    /* \"#utility.yul\":4745:4924   */\n  iszero\n  tag_124\n  jumpi\n    /* \"#utility.yul\":4818:4827   */\n  dup5\n    /* \"#utility.yul\":4813:4816   */\n  dup10\n    /* \"#utility.yul\":4809:4828   */\n  add\n    /* \"#utility.yul\":4803:4829   */\n  mload\n    /* \"#utility.yul\":4861:4909   */\n  tag_125\n    /* \"#utility.yul\":4903:4907   */\n  0x1f\n    /* \"#utility.yul\":4895:4901   */\n  dup10\n    /* \"#utility.yul\":4891:4908   */\n  and\n    /* \"#utility.yul\":4880:4889   */\n  dup3\n    /* \"#utility.yul\":4861:4909   */\n  tag_39\n  jump\t// in\ntag_125:\n    /* \"#utility.yul\":4853:4859   */\n  dup4\n    /* \"#utility.yul\":4846:4910   */\n  sstore\n    /* \"#utility.yul\":4768:4924   */\n  pop\n    /* \"#utility.yul\":4745:4924   */\ntag_124:\n    /* \"#utility.yul\":4970:4971   */\n  0x01\n    /* \"#utility.yul\":4966:4967   */\n  0x02\n    /* \"#utility.yul\":4958:4964   */\n  dup9\n    /* \"#utility.yul\":4954:4968   */\n  mul\n    /* \"#utility.yul\":4950:4972   */\n  add\n    /* \"#utility.yul\":4944:4948   */\n  dup9\n    /* \"#utility.yul\":4937:4973   */\n  sstore\n    /* \"#utility.yul\":4372:4983   */\n  pop\n  pop\n  pop\n    /* \"#utility.yul\":4335:5222   */\ntag_116:\n  pop\n    /* \"#utility.yul\":3925:5228   */\n  pop\n  pop\n  pop\n    /* \"#utility.yul\":3833:5228   */\n  pop\n  pop\n  jump\t// out\n    /* \"#utility.yul\":5234:5382   */\ntag_41:\n    /* \"#utility.yul\":5336:5347   */\n  0x00\n    /* \"#utility.yul\":5373:5376   */\n  dup2\n    /* \"#utility.yul\":5358:5376   */\n  swap1\n  pop\n    /* \"#utility.yul\":5234:5382   */\n  swap3\n  swap2\n  pop\n  pop\n  jump\t// out\n    /* \"#utility.yul\":5388:5549   */\ntag_42:\n    /* \"#utility.yul\":5528:5541   */\n  0x48656c6c6f20776f726c64000000000000000000000000000000000000000000\n    /* \"#utility.yul\":5524:5525   */\n  0x00\n    /* \"#utility.yul\":5516:5522   */\n  dup3\n    /* \"#utility.yul\":5512:5526   */\n  add\n    /* \"#utility.yul\":5505:5542   */\n  mstore\n    /* \"#utility.yul\":5388:5549   */\n  pop\n  jump\t// out\n    /* \"#utility.yul\":5555:5957   */\ntag_43:\n    /* \"#utility.yul\":5715:5718   */\n  0x00\n    /* \"#utility.yul\":5736:5821   */\n  tag_129\n    /* \"#utility.yul\":5818:5820   */\n  0x0b\n    /* \"#utility.yul\":5813:5816   */\n  dup4\n    /* \"#utility.yul\":5736:5821   */\n  tag_41\n  jump\t// in\ntag_129:\n    /* \"#utility.yul\":5729:5821   */\n  swap2\n  pop\n    /* \"#utility.yul\":5830:5923   */\n  tag_130\n    /* \"#utility.yul\":5919:5922   */\n  dup3\n    /* \"#utility.yul\":5830:5923   */\n  tag_42\n  jump\t// in\ntag_130:\n    /* \"#utility.yul\":5948:5950   */\n  0x0b\n    /* \"#utility.yul\":5943:5946   */\n  dup3\n    /* \"#utility.yul\":5939:5951   */\n  add\n    /* \"#utility.yul\":5932:5951   */\n  swap1\n  pop\n    /* \"#utility.yul\":5555:5957   */\n  swap2\n  swap1\n  pop\n  jump\t// out\n    /* \"#utility.yul\":5963:6042   */\ntag_44:\n    /* \"#utility.yul\":6002:6009   */\n  0x00\n    /* \"#utility.yul\":6031:6036   */\n  dup2\n    /* \"#utility.yul\":6020:6036   */\n  swap1\n  pop\n    /* \"#utility.yul\":5963:6042   */\n  swap2\n  swap1\n  pop\n  jump\t// out\n    /* \"#utility.yul\":6048:6205   */\ntag_45:\n    /* \"#utility.yul\":6153:6198   */\n  tag_133\n    /* \"#utility.yul\":6173:6197   */\n  tag_134\n    /* \"#utility.yul\":6191:6196   */\n  dup3\n    /* \"#utility.yul\":6173:6197   */\n  tag_29\n  jump\t// in\ntag_134:\n    /* \"#utility.yul\":6153:6198   */\n  tag_44\n  jump\t// in\ntag_133:\n    /* \"#utility.yul\":6148:6151   */\n  dup3\n    /* \"#utility.yul\":6141:6199   */\n  mstore\n    /* \"#utility.yul\":6048:6205   */\n  pop\n  pop\n  jump\t// out\n    /* \"#utility.yul\":6211:6337   */\ntag_46:\n    /* \"#utility.yul\":6248:6255   */\n  0x00\n    /* \"#utility.yul\":6288:6330   */\n  0xffffffffffffffffffffffffffffffffffffffff\n    /* \"#utility.yul\":6281:6286   */\n  dup3\n    /* \"#utility.yul\":6277:6331   */\n  and\n    /* \"#utility.yul\":6266:6331   */\n  swap1\n  pop\n    /* \"#utility.yul\":6211:6337   */\n  swap2\n  swap1\n  pop\n  jump\t// out\n    /* \"#utility.yul\":6343:6439   */\ntag_47:\n    /* \"#utility.yul\":6380:6387   */\n  0x00\n    /* \"#utility.yul\":6409:6433   */\n  tag_137\n    /* \"#utility.yul\":6427:6432   */\n  dup3\n    /* \"#utility.yul\":6409:6433   */\n  tag_46\n  jump\t// in\ntag_137:\n    /* \"#utility.yul\":6398:6433   */\n  swap1\n  pop\n    /* \"#utility.yul\":6343:6439   */\n  swap2\n  swap1\n  pop\n  jump\t// out\n    /* \"#utility.yul\":6445:6539   */\ntag_48:\n    /* \"#utility.yul\":6478:6486   */\n  0x00\n    /* \"#utility.yul\":6526:6531   */\n  dup2\n    /* \"#utility.yul\":6522:6524   */\n  0x60\n    /* \"#utility.yul\":6518:6532   */\n  shl\n    /* \"#utility.yul\":6497:6532   */\n  swap1\n  pop\n    /* \"#utility.yul\":6445:6539   */\n  swap2\n  swap1\n  pop\n  jump\t// out\n    /* \"#utility.yul\":6545:6639   */\ntag_49:\n    /* \"#utility.yul\":6584:6591   */\n  0x00\n    /* \"#utility.yul\":6613:6633   */\n  tag_140\n    /* \"#utility.yul\":6627:6632   */\n  dup3\n    /* \"#utility.yul\":6613:6633   */\n  tag_48\n  jump\t// in\ntag_140:\n    /* \"#utility.yul\":6602:6633   */\n  swap1\n  pop\n    /* \"#utility.yul\":6545:6639   */\n  swap2\n  swap1\n  pop\n  jump\t// out\n    /* \"#utility.yul\":6645:6745   */\ntag_50:\n    /* \"#utility.yul\":6684:6691   */\n  0x00\n    /* \"#utility.yul\":6713:6739   */\n  tag_142\n    /* \"#utility.yul\":6733:6738   */\n  dup3\n    /* \"#utility.yul\":6713:6739   */\n  tag_49\n  jump\t// in\ntag_142:\n    /* \"#utility.yul\":6702:6739   */\n  swap1\n  pop\n    /* \"#utility.yul\":6645:6745   */\n  swap2\n  swap1\n  pop\n  jump\t// out\n    /* \"#utility.yul\":6751:6908   */\ntag_51:\n    /* \"#utility.yul\":6856:6901   */\n  tag_144\n    /* \"#utility.yul\":6876:6900   */\n  tag_145\n    /* \"#utility.yul\":6894:6899   */\n  dup3\n    /* \"#utility.yul\":6876:6900   */\n  tag_47\n  jump\t// in\ntag_145:\n    /* \"#utility.yul\":6856:6901   */\n  tag_50\n  jump\t// in\ntag_144:\n    /* \"#utility.yul\":6851:6854   */\n  dup3\n    /* \"#utility.yul\":6844:6902   */\n  mstore\n    /* \"#utility.yul\":6751:6908   */\n  pop\n  pop\n  jump\t// out\n    /* \"#utility.yul\":6914:7577   */\ntag_5:\n    /* \"#utility.yul\":7155:7158   */\n  0x00\n    /* \"#utility.yul\":7177:7325   */\n  tag_147\n    /* \"#utility.yul\":7321:7324   */\n  dup3\n    /* \"#utility.yul\":7177:7325   */\n  tag_43\n  jump\t// in\ntag_147:\n    /* \"#utility.yul\":7170:7325   */\n  swap2\n  pop\n    /* \"#utility.yul\":7335:7410   */\n  tag_148\n    /* \"#utility.yul\":7406:7409   */\n  dup3\n    /* \"#utility.yul\":7397:7403   */\n  dup6\n    /* \"#utility.yul\":7335:7410   */\n  tag_45\n  jump\t// in\ntag_148:\n    /* \"#utility.yul\":7435:7437   */\n  0x20\n    /* \"#utility.yul\":7430:7433   */\n  dup3\n    /* \"#utility.yul\":7426:7438   */\n  add\n    /* \"#utility.yul\":7419:7438   */\n  swap2\n  pop\n    /* \"#utility.yul\":7448:7523   */\n  tag_149\n    /* \"#utility.yul\":7519:7522   */\n  dup3\n    /* \"#utility.yul\":7510:7516   */\n  dup5\n    /* \"#utility.yul\":7448:7523   */\n  tag_51\n  jump\t// in\ntag_149:\n    /* \"#utility.yul\":7548:7550   */\n  0x14\n    /* \"#utility.yul\":7543:7546   */\n  dup3\n    /* \"#utility.yul\":7539:7551   */\n  add\n    /* \"#utility.yul\":7532:7551   */\n  swap2\n  pop\n    /* \"#utility.yul\":7568:7571   */\n  dup2\n    /* \"#utility.yul\":7561:7571   */\n  swap1\n  pop\n    /* \"#utility.yul\":6914:7577   */\n  swap4\n  swap3\n  pop\n  pop\n  pop\n  jump\t// out\n    /* \"#utility.yul\":7583:7744   */\ntag_52:\n    /* \"#utility.yul\":7723:7736   */\n  0x48656c6c6f20576f726c64000000000000000000000000000000000000000000\n    /* \"#utility.yul\":7719:7720   */\n  0x00\n    /* \"#utility.yul\":7711:7717   */\n  dup3\n    /* \"#utility.yul\":7707:7721   */\n  add\n    /* \"#utility.yul\":7700:7737   */\n  mstore\n    /* \"#utility.yul\":7583:7744   */\n  pop\n  jump\t// out\n    /* \"#utility.yul\":7750:8152   */\ntag_53:\n    /* \"#utility.yul\":7910:7913   */\n  0x00\n    /* \"#utility.yul\":7931:8016   */\n  tag_152\n    /* \"#utility.yul\":8013:8015   */\n  0x0b\n    /* \"#utility.yul\":8008:8011   */\n  dup4\n    /* \"#utility.yul\":7931:8016   */\n  tag_41\n  jump\t// in\ntag_152:\n    /* \"#utility.yul\":7924:8016   */\n  swap2\n  pop\n    /* \"#utility.yul\":8025:8118   */\n  tag_153\n    /* \"#utility.yul\":8114:8117   */\n  dup3\n    /* \"#utility.yul\":8025:8118   */\n  tag_52\n  jump\t// in\ntag_153:\n    /* \"#utility.yul\":8143:8145   */\n  0x0b\n    /* \"#utility.yul\":8138:8141   */\n  dup3\n    /* \"#utility.yul\":8134:8146   */\n  add\n    /* \"#utility.yul\":8127:8146   */\n  swap1\n  pop\n    /* \"#utility.yul\":7750:8152   */\n  swap2\n  swap1\n  pop\n  jump\t// out\n    /* \"#utility.yul\":8158:8539   */\ntag_7:\n    /* \"#utility.yul\":8343:8346   */\n  0x00\n    /* \"#utility.yul\":8365:8513   */\n  tag_155\n    /* \"#utility.yul\":8509:8512   */\n  dup3\n    /* \"#utility.yul\":8365:8513   */\n  tag_53\n  jump\t// in\ntag_155:\n    /* \"#utility.yul\":8358:8513   */\n  swap2\n  pop\n    /* \"#utility.yul\":8530:8533   */\n  dup2\n    /* \"#utility.yul\":8523:8533   */\n  swap1\n  pop\n    /* \"#utility.yul\":8158:8539   */\n  swap2\n  swap1\n  pop\n  jump\t// out\n    /* \"#utility.yul\":8545:8643   */\ntag_54:\n    /* \"#utility.yul\":8596:8602   */\n  0x00\n    /* \"#utility.yul\":8630:8635   */\n  dup2\n    /* \"#utility.yul\":8624:8636   */\n  mload\n    /* \"#utility.yul\":8614:8636   */\n  swap1\n  pop\n    /* \"#utility.yul\":8545:8643   */\n  swap2\n  swap1\n  pop\n  jump\t// out\n    /* \"#utility.yul\":8649:8796   */\ntag_55:\n    /* \"#utility.yul\":8750:8761   */\n  0x00\n    /* \"#utility.yul\":8787:8790   */\n  dup2\n    /* \"#utility.yul\":8772:8790   */\n  swap1\n  pop\n    /* \"#utility.yul\":8649:8796   */\n  swap3\n  swap2\n  pop\n  pop\n  jump\t// out\n    /* \"#utility.yul\":8802:8941   */\ntag_56:\n    /* \"#utility.yul\":8891:8897   */\n  dup3\n    /* \"#utility.yul\":8886:8889   */\n  dup2\n    /* \"#utility.yul\":8881:8884   */\n  dup4\n    /* \"#utility.yul\":8875:8898   */\n  mcopy\n    /* \"#utility.yul\":8932:8933   */\n  0x00\n    /* \"#utility.yul\":8923:8929   */\n  dup4\n    /* \"#utility.yul\":8918:8921   */\n  dup4\n    /* \"#utility.yul\":8914:8930   */\n  add\n    /* \"#utility.yul\":8907:8934   */\n  mstore\n    /* \"#utility.yul\":8802:8941   */\n  pop\n  pop\n  pop\n  jump\t// out\n    /* \"#utility.yul\":8947:9333   */\ntag_57:\n    /* \"#utility.yul\":9051:9054   */\n  0x00\n    /* \"#utility.yul\":9079:9117   */\n  tag_160\n    /* \"#utility.yul\":9111:9116   */\n  dup3\n    /* \"#utility.yul\":9079:9117   */\n  tag_54\n  jump\t// in\ntag_160:\n    /* \"#utility.yul\":9133:9221   */\n  tag_161\n    /* \"#utility.yul\":9214:9220   */\n  dup2\n    /* \"#utility.yul\":9209:9212   */\n  dup6\n    /* \"#utility.yul\":9133:9221   */\n  tag_55\n  jump\t// in\ntag_161:\n    /* \"#utility.yul\":9126:9221   */\n  swap4\n  pop\n    /* \"#utility.yul\":9230:9295   */\n  tag_162\n    /* \"#utility.yul\":9288:9294   */\n  dup2\n    /* \"#utility.yul\":9283:9286   */\n  dup6\n    /* \"#utility.yul\":9276:9280   */\n  0x20\n    /* \"#utility.yul\":9269:9274   */\n  dup7\n    /* \"#utility.yul\":9265:9281   */\n  add\n    /* \"#utility.yul\":9230:9295   */\n  tag_56\n  jump\t// in\ntag_162:\n    /* \"#utility.yul\":9320:9326   */\n  dup1\n    /* \"#utility.yul\":9315:9318   */\n  dup5\n    /* \"#utility.yul\":9311:9327   */\n  add\n    /* \"#utility.yul\":9304:9327   */\n  swap2\n  pop\n    /* \"#utility.yul\":9055:9333   */\n  pop\n    /* \"#utility.yul\":8947:9333   */\n  swap3\n  swap2\n  pop\n  pop\n  jump\t// out\n    /* \"#utility.yul\":9339:9610   */\ntag_9:\n    /* \"#utility.yul\":9469:9472   */\n  0x00\n    /* \"#utility.yul\":9491:9584   */\n  tag_164\n    /* \"#utility.yul\":9580:9583   */\n  dup3\n    /* \"#utility.yul\":9571:9577   */\n  dup5\n    /* \"#utility.yul\":9491:9584   */\n  tag_57\n  jump\t// in\ntag_164:\n    /* \"#utility.yul\":9484:9584   */\n  swap2\n  pop\n    /* \"#utility.yul\":9601:9604   */\n  dup2\n    /* \"#utility.yul\":9594:9604   */\n  swap1\n  pop\n    /* \"#utility.yul\":9339:9610   */\n  swap3\n  swap2\n  pop\n  pop\n  jump\t// out\n    /* \"#utility.yul\":9697:9814   */\ntag_59:\n    /* \"#utility.yul\":9806:9807   */\n  0x00\n    /* \"#utility.yul\":9803:9804   */\n  dup1\n    /* \"#utility.yul\":9796:9808   */\n  revert\n    /* \"#utility.yul\":9943:10020   */\ntag_61:\n    /* \"#utility.yul\":9980:9987   */\n  0x00\n    /* \"#utility.yul\":10009:10014   */\n  dup2\n    /* \"#utility.yul\":9998:10014   */\n  swap1\n  pop\n    /* \"#utility.yul\":9943:10020   */\n  swap2\n  swap1\n  pop\n  jump\t// out\n    /* \"#utility.yul\":10026:10148   */\ntag_62:\n    /* \"#utility.yul\":10099:10123   */\n  tag_170\n    /* \"#utility.yul\":10117:10122   */\n  dup2\n    /* \"#utility.yul\":10099:10123   */\n  tag_61\n  jump\t// in\ntag_170:\n    /* \"#utility.yul\":10092:10097   */\n  dup2\n    /* \"#utility.yul\":10089:10124   */\n  eq\n    /* \"#utility.yul\":10079:10142   */\n  tag_171\n  jumpi\n    /* \"#utility.yul\":10138:10139   */\n  0x00\n    /* \"#utility.yul\":10135:10136   */\n  dup1\n    /* \"#utility.yul\":10128:10140   */\n  revert\n    /* \"#utility.yul\":10079:10142   */\ntag_171:\n    /* \"#utility.yul\":10026:10148   */\n  pop\n  jump\t// out\n    /* \"#utility.yul\":10154:10297   */\ntag_63:\n    /* \"#utility.yul\":10211:10216   */\n  0x00\n    /* \"#utility.yul\":10242:10248   */\n  dup2\n    /* \"#utility.yul\":10236:10249   */\n  mload\n    /* \"#utility.yul\":10227:10249   */\n  swap1\n  pop\n    /* \"#utility.yul\":10258:10291   */\n  tag_173\n    /* \"#utility.yul\":10285:10290   */\n  dup2\n    /* \"#utility.yul\":10258:10291   */\n  tag_62\n  jump\t// in\ntag_173:\n    /* \"#utility.yul\":10154:10297   */\n  swap3\n  swap2\n  pop\n  pop\n  jump\t// out\n    /* \"#utility.yul\":10303:10654   */\ntag_13:\n    /* \"#utility.yul\":10373:10379   */\n  0x00\n    /* \"#utility.yul\":10422:10424   */\n  0x20\n    /* \"#utility.yul\":10410:10419   */\n  dup3\n    /* \"#utility.yul\":10401:10408   */\n  dup5\n    /* \"#utility.yul\":10397:10420   */\n  sub\n    /* \"#utility.yul\":10393:10425   */\n  slt\n    /* \"#utility.yul\":10390:10509   */\n  iszero\n  tag_175\n  jumpi\n    /* \"#utility.yul\":10428:10507   */\n  tag_176\n  tag_59\n  jump\t// in\ntag_176:\n    /* \"#utility.yul\":10390:10509   */\ntag_175:\n    /* \"#utility.yul\":10548:10549   */\n  0x00\n    /* \"#utility.yul\":10573:10637   */\n  tag_177\n    /* \"#utility.yul\":10629:10636   */\n  dup5\n    /* \"#utility.yul\":10620:10626   */\n  dup3\n    /* \"#utility.yul\":10609:10618   */\n  dup6\n    /* \"#utility.yul\":10605:10627   */\n  add\n    /* \"#utility.yul\":10573:10637   */\n  tag_63\n  jump\t// in\ntag_177:\n    /* \"#utility.yul\":10563:10637   */\n  swap2\n  pop\n    /* \"#utility.yul\":10519:10647   */\n  pop\n    /* \"#utility.yul\":10303:10654   */\n  swap3\n  swap2\n  pop\n  pop\n  jump\t// out\n    /* \"#utility.yul\":10660:11041   */\ntag_15:\n    /* \"#utility.yul\":10845:10848   */\n  0x00\n    /* \"#utility.yul\":10867:11015   */\n  tag_179\n    /* \"#utility.yul\":11011:11014   */\n  dup3\n    /* \"#utility.yul\":10867:11015   */\n  tag_43\n  jump\t// in\ntag_179:\n    /* \"#utility.yul\":10860:11015   */\n  swap2\n  pop\n    /* \"#utility.yul\":11032:11035   */\n  dup2\n    /* \"#utility.yul\":11025:11035   */\n  swap1\n  pop\n    /* \"#utility.yul\":10660:11041   */\n  swap2\n  swap1\n  pop\n  jump\t// out\n    /* \"contracts/1_primeros_pasos.sol\":60:1517  contract variables_modifiers{... */\ntag_20:\n  dataSize(sub_0)\n  dup1\n  dataOffset(sub_0)\n  0x00\n  codecopy\n  0x00\n  return\nstop\n\nsub_0: assembly {\n        /* \"contracts/1_primeros_pasos.sol\":60:1517  contract variables_modifiers{... */\n      mstore(0x40, 0x80)\n      callvalue\n      dup1\n      iszero\n      tag_1\n      jumpi\n      0x00\n      dup1\n      revert\n    tag_1:\n      pop\n      jumpi(tag_2, lt(calldatasize, 0x04))\n      shr(0xe0, calldataload(0x00))\n      dup1\n      0x7a68ef7f\n      gt\n      tag_15\n      jumpi\n      dup1\n      0x7a68ef7f\n      eq\n      tag_9\n      jumpi\n      dup1\n      0x8a054ac2\n      eq\n      tag_10\n      jumpi\n      dup1\n      0x9eea4a3a\n      eq\n      tag_11\n      jumpi\n      dup1\n      0xb83d07b7\n      eq\n      tag_12\n      jumpi\n      dup1\n      0xba33ed7d\n      eq\n      tag_13\n      jumpi\n      dup1\n      0xc7109d04\n      eq\n      tag_14\n      jumpi\n      jump(tag_2)\n    tag_15:\n      dup1\n      0x2b73648d\n      eq\n      tag_3\n      jumpi\n      dup1\n      0x312eef29\n      eq\n      tag_4\n      jumpi\n      dup1\n      0x3a36399e\n      eq\n      tag_5\n      jumpi\n      dup1\n      0x48460ce6\n      eq\n      tag_6\n      jumpi\n      dup1\n      0x4df7e3d0\n      eq\n      tag_7\n      jumpi\n      dup1\n      0x7272eea1\n      eq\n      tag_8\n      jumpi\n    tag_2:\n      0x00\n      dup1\n      revert\n        /* \"contracts/1_primeros_pasos.sol\":684:783  bytes32 public hashing_keccak256 = keccak256(abi.encodePacked(\"Hello world\", uint(10), msg.sender)) */\n    tag_3:\n      tag_16\n      tag_17\n      jump\t// in\n    tag_16:\n      mload(0x40)\n      tag_18\n      swap2\n      swap1\n      tag_19\n      jump\t// in\n    tag_18:\n      mload(0x40)\n      dup1\n      swap2\n      sub\n      swap1\n      return\n        /* \"contracts/1_primeros_pasos.sol\":478:509  bool public boolean_true = true */\n    tag_4:\n      tag_20\n      tag_21\n      jump\t// in\n    tag_20:\n      mload(0x40)\n      tag_22\n      swap2\n      swap1\n      tag_23\n      jump\t// in\n    tag_22:\n      mload(0x40)\n      dup1\n      swap2\n      sub\n      swap1\n      return\n        /* \"contracts/1_primeros_pasos.sol\":1022:1090  address public address1 = 0x5B38Da6a701c568545dCfcB03FcB875f56beddC4 */\n    tag_5:\n      tag_24\n      tag_25\n      jump\t// in\n    tag_24:\n      mload(0x40)\n      tag_26\n      swap2\n      swap1\n      tag_27\n      jump\t// in\n    tag_26:\n      mload(0x40)\n      dup1\n      swap2\n      sub\n      swap1\n      return\n        /* \"contracts/1_primeros_pasos.sol\":1356:1421  function tunroOff() public {... */\n    tag_6:\n      tag_28\n      tag_29\n      jump\t// in\n    tag_28:\n      stop\n        /* \"contracts/1_primeros_pasos.sol\":153:171  uint8 public b = 3 */\n    tag_7:\n      tag_30\n      tag_31\n      jump\t// in\n    tag_30:\n      mload(0x40)\n      tag_32\n      swap2\n      swap1\n      tag_33\n      jump\t// in\n    tag_32:\n      mload(0x40)\n      dup1\n      swap2\n      sub\n      swap1\n      return\n        /* \"contracts/1_primeros_pasos.sol\":1429:1514  function displayState() public view returns (options) {... */\n    tag_8:\n      tag_34\n      tag_35\n      jump\t// in\n    tag_34:\n      mload(0x40)\n      tag_36\n      swap2\n      swap1\n      tag_37\n      jump\t// in\n    tag_36:\n      mload(0x40)\n      dup1\n      swap2\n      sub\n      swap1\n      return\n        /* \"contracts/1_primeros_pasos.sol\":868:945  bytes20 public hashing_ripemd160 = ripemd160(abi.encodePacked(\"Hello world\")) */\n    tag_9:\n      tag_38\n      tag_39\n      jump\t// in\n    tag_38:\n      mload(0x40)\n      tag_40\n      swap2\n      swap1\n      tag_41\n      jump\t// in\n    tag_40:\n      mload(0x40)\n      dup1\n      swap2\n      sub\n      swap1\n      return\n        /* \"contracts/1_primeros_pasos.sol\":237:256  int8 public d = -32 */\n    tag_10:\n      tag_42\n      tag_43\n      jump\t// in\n    tag_42:\n      mload(0x40)\n      tag_44\n      swap2\n      swap1\n      tag_45\n      jump\t// in\n    tag_44:\n      mload(0x40)\n      dup1\n      swap2\n      sub\n      swap1\n      return\n        /* \"contracts/1_primeros_pasos.sol\":1097:1133  address public address2 = msg.sender */\n    tag_11:\n      tag_46\n      tag_47\n      jump\t// in\n    tag_46:\n      mload(0x40)\n      tag_48\n      swap2\n      swap1\n      tag_27\n      jump\t// in\n    tag_48:\n      mload(0x40)\n      dup1\n      swap2\n      sub\n      swap1\n      return\n        /* \"contracts/1_primeros_pasos.sol\":325:369  string public str_public = \"Esto es publico\" */\n    tag_12:\n      tag_49\n      tag_50\n      jump\t// in\n    tag_49:\n      mload(0x40)\n      tag_51\n      swap2\n      swap1\n      tag_52\n      jump\t// in\n    tag_51:\n      mload(0x40)\n      dup1\n      swap2\n      sub\n      swap1\n      return\n        /* \"contracts/1_primeros_pasos.sol\":1278:1348  function turnOn() public {... */\n    tag_13:\n      tag_53\n      tag_54\n      jump\t// in\n    tag_53:\n      stop\n        /* \"contracts/1_primeros_pasos.sol\":790:861  bytes32 public hashing_sha256 = sha256(abi.encodePacked(\"Hello World\")) */\n    tag_14:\n      tag_55\n      tag_56\n      jump\t// in\n    tag_55:\n      mload(0x40)\n      tag_57\n      swap2\n      swap1\n      tag_19\n      jump\t// in\n    tag_57:\n      mload(0x40)\n      dup1\n      swap2\n      sub\n      swap1\n      return\n        /* \"contracts/1_primeros_pasos.sol\":684:783  bytes32 public hashing_keccak256 = keccak256(abi.encodePacked(\"Hello world\", uint(10), msg.sender)) */\n    tag_17:\n      sload(0x0b)\n      dup2\n      jump\t// out\n        /* \"contracts/1_primeros_pasos.sol\":478:509  bool public boolean_true = true */\n    tag_21:\n      0x08\n      0x01\n      swap1\n      sload\n      swap1\n      0x0100\n      exp\n      swap1\n      div\n      0xff\n      and\n      dup2\n      jump\t// out\n        /* \"contracts/1_primeros_pasos.sol\":1022:1090  address public address1 = 0x5B38Da6a701c568545dCfcB03FcB875f56beddC4 */\n    tag_25:\n      0x0f\n      0x00\n      swap1\n      sload\n      swap1\n      0x0100\n      exp\n      swap1\n      div\n      0xffffffffffffffffffffffffffffffffffffffff\n      and\n      dup2\n      jump\t// out\n        /* \"contracts/1_primeros_pasos.sol\":1356:1421  function tunroOff() public {... */\n    tag_29:\n        /* \"contracts/1_primeros_pasos.sol\":1402:1413  options.OFF */\n      0x01\n        /* \"contracts/1_primeros_pasos.sol\":1394:1399  state */\n      0x10\n      0x14\n        /* \"contracts/1_primeros_pasos.sol\":1394:1413  state = options.OFF */\n      0x0100\n      exp\n      dup2\n      sload\n      dup2\n      0xff\n      mul\n      not\n      and\n      swap1\n      dup4\n      0x01\n      dup2\n      gt\n      iszero\n      tag_59\n      jumpi\n      tag_60\n      tag_61\n      jump\t// in\n    tag_60:\n    tag_59:\n      mul\n      or\n      swap1\n      sstore\n      pop\n        /* \"contracts/1_primeros_pasos.sol\":1356:1421  function tunroOff() public {... */\n      jump\t// out\n        /* \"contracts/1_primeros_pasos.sol\":153:171  uint8 public b = 3 */\n    tag_31:\n      0x01\n      0x00\n      swap1\n      sload\n      swap1\n      0x0100\n      exp\n      swap1\n      div\n      0xff\n      and\n      dup2\n      jump\t// out\n        /* \"contracts/1_primeros_pasos.sol\":1429:1514  function displayState() public view returns (options) {... */\n    tag_35:\n        /* \"contracts/1_primeros_pasos.sol\":1474:1481  options */\n      0x00\n        /* \"contracts/1_primeros_pasos.sol\":1501:1506  state */\n      0x10\n      0x14\n      swap1\n      sload\n      swap1\n      0x0100\n      exp\n      swap1\n      div\n      0xff\n      and\n        /* \"contracts/1_primeros_pasos.sol\":1494:1506  return state */\n      swap1\n      pop\n        /* \"contracts/1_primeros_pasos.sol\":1429:1514  function displayState() public view returns (options) {... */\n      swap1\n      jump\t// out\n        /* \"contracts/1_primeros_pasos.sol\":868:945  bytes20 public hashing_ripemd160 = ripemd160(abi.encodePacked(\"Hello world\")) */\n    tag_39:\n      0x0d\n      0x00\n      swap1\n      sload\n      swap1\n      0x0100\n      exp\n      swap1\n      div\n      0x60\n      shl\n      dup2\n      jump\t// out\n        /* \"contracts/1_primeros_pasos.sol\":237:256  int8 public d = -32 */\n    tag_43:\n      0x03\n      0x00\n      swap1\n      sload\n      swap1\n      0x0100\n      exp\n      swap1\n      div\n      0x00\n      signextend\n      dup2\n      jump\t// out\n        /* \"contracts/1_primeros_pasos.sol\":1097:1133  address public address2 = msg.sender */\n    tag_47:\n      0x10\n      0x00\n      swap1\n      sload\n      swap1\n      0x0100\n      exp\n      swap1\n      div\n      0xffffffffffffffffffffffffffffffffffffffff\n      and\n      dup2\n      jump\t// out\n        /* \"contracts/1_primeros_pasos.sol\":325:369  string public str_public = \"Esto es publico\" */\n    tag_50:\n      0x06\n      dup1\n      sload\n      tag_63\n      swap1\n      tag_64\n      jump\t// in\n    tag_63:\n      dup1\n      0x1f\n      add\n      0x20\n      dup1\n      swap2\n      div\n      mul\n      0x20\n      add\n      mload(0x40)\n      swap1\n      dup2\n      add\n      0x40\n      mstore\n      dup1\n      swap3\n      swap2\n      swap1\n      dup2\n      dup2\n      mstore\n      0x20\n      add\n      dup3\n      dup1\n      sload\n      tag_65\n      swap1\n      tag_64\n      jump\t// in\n    tag_65:\n      dup1\n      iszero\n      tag_66\n      jumpi\n      dup1\n      0x1f\n      lt\n      tag_67\n      jumpi\n      0x0100\n      dup1\n      dup4\n      sload\n      div\n      mul\n      dup4\n      mstore\n      swap2\n      0x20\n      add\n      swap2\n      jump(tag_66)\n    tag_67:\n      dup3\n      add\n      swap2\n      swap1\n      0x00\n      mstore\n      keccak256(0x00, 0x20)\n      swap1\n    tag_68:\n      dup2\n      sload\n      dup2\n      mstore\n      swap1\n      0x01\n      add\n      swap1\n      0x20\n      add\n      dup1\n      dup4\n      gt\n      tag_68\n      jumpi\n      dup3\n      swap1\n      sub\n      0x1f\n      and\n      dup3\n      add\n      swap2\n    tag_66:\n      pop\n      pop\n      pop\n      pop\n      pop\n      dup2\n      jump\t// out\n        /* \"contracts/1_primeros_pasos.sol\":1278:1348  function turnOn() public {... */\n    tag_54:\n        /* \"contracts/1_primeros_pasos.sol\":1322:1332  options.ON */\n      0x00\n        /* \"contracts/1_primeros_pasos.sol\":1314:1319  state */\n      0x10\n      0x14\n        /* \"contracts/1_primeros_pasos.sol\":1314:1332  state = options.ON */\n      0x0100\n      exp\n      dup2\n      sload\n      dup2\n      0xff\n      mul\n      not\n      and\n      swap1\n      dup4\n      0x01\n      dup2\n      gt\n      iszero\n      tag_70\n      jumpi\n      tag_71\n      tag_61\n      jump\t// in\n    tag_71:\n    tag_70:\n      mul\n      or\n      swap1\n      sstore\n      pop\n        /* \"contracts/1_primeros_pasos.sol\":1278:1348  function turnOn() public {... */\n      jump\t// out\n        /* \"contracts/1_primeros_pasos.sol\":790:861  bytes32 public hashing_sha256 = sha256(abi.encodePacked(\"Hello World\")) */\n    tag_56:\n      sload(0x0c)\n      dup2\n      jump\t// out\n        /* \"#utility.yul\":7:84   */\n    tag_72:\n        /* \"#utility.yul\":44:51   */\n      0x00\n        /* \"#utility.yul\":73:78   */\n      dup2\n        /* \"#utility.yul\":62:78   */\n      swap1\n      pop\n        /* \"#utility.yul\":7:84   */\n      swap2\n      swap1\n      pop\n      jump\t// out\n        /* \"#utility.yul\":90:208   */\n    tag_73:\n        /* \"#utility.yul\":177:201   */\n      tag_98\n        /* \"#utility.yul\":195:200   */\n      dup2\n        /* \"#utility.yul\":177:201   */\n      tag_72\n      jump\t// in\n    tag_98:\n        /* \"#utility.yul\":172:175   */\n      dup3\n        /* \"#utility.yul\":165:202   */\n      mstore\n        /* \"#utility.yul\":90:208   */\n      pop\n      pop\n      jump\t// out\n        /* \"#utility.yul\":214:436   */\n    tag_19:\n        /* \"#utility.yul\":307:311   */\n      0x00\n        /* \"#utility.yul\":345:347   */\n      0x20\n        /* \"#utility.yul\":334:343   */\n      dup3\n        /* \"#utility.yul\":330:348   */\n      add\n        /* \"#utility.yul\":322:348   */\n      swap1\n      pop\n        /* \"#utility.yul\":358:429   */\n      tag_100\n        /* \"#utility.yul\":426:427   */\n      0x00\n        /* \"#utility.yul\":415:424   */\n      dup4\n        /* \"#utility.yul\":411:428   */\n      add\n        /* \"#utility.yul\":402:408   */\n      dup5\n        /* \"#utility.yul\":358:429   */\n      tag_73\n      jump\t// in\n    tag_100:\n        /* \"#utility.yul\":214:436   */\n      swap3\n      swap2\n      pop\n      pop\n      jump\t// out\n        /* \"#utility.yul\":442:532   */\n    tag_74:\n        /* \"#utility.yul\":476:483   */\n      0x00\n        /* \"#utility.yul\":519:524   */\n      dup2\n        /* \"#utility.yul\":512:525   */\n      iszero\n        /* \"#utility.yul\":505:526   */\n      iszero\n        /* \"#utility.yul\":494:526   */\n      swap1\n      pop\n        /* \"#utility.yul\":442:532   */\n      swap2\n      swap1\n      pop\n      jump\t// out\n        /* \"#utility.yul\":538:647   */\n    tag_75:\n        /* \"#utility.yul\":619:640   */\n      tag_103\n        /* \"#utility.yul\":634:639   */\n      dup2\n        /* \"#utility.yul\":619:640   */\n      tag_74\n      jump\t// in\n    tag_103:\n        /* \"#utility.yul\":614:617   */\n      dup3\n        /* \"#utility.yul\":607:641   */\n      mstore\n        /* \"#utility.yul\":538:647   */\n      pop\n      pop\n      jump\t// out\n        /* \"#utility.yul\":653:863   */\n    tag_23:\n        /* \"#utility.yul\":740:744   */\n      0x00\n        /* \"#utility.yul\":778:780   */\n      0x20\n        /* \"#utility.yul\":767:776   */\n      dup3\n        /* \"#utility.yul\":763:781   */\n      add\n        /* \"#utility.yul\":755:781   */\n      swap1\n      pop\n        /* \"#utility.yul\":791:856   */\n      tag_105\n        /* \"#utility.yul\":853:854   */\n      0x00\n        /* \"#utility.yul\":842:851   */\n      dup4\n        /* \"#utility.yul\":838:855   */\n      add\n        /* \"#utility.yul\":829:835   */\n      dup5\n        /* \"#utility.yul\":791:856   */\n      tag_75\n      jump\t// in\n    tag_105:\n        /* \"#utility.yul\":653:863   */\n      swap3\n      swap2\n      pop\n      pop\n      jump\t// out\n        /* \"#utility.yul\":869:995   */\n    tag_76:\n        /* \"#utility.yul\":906:913   */\n      0x00\n        /* \"#utility.yul\":946:988   */\n      0xffffffffffffffffffffffffffffffffffffffff\n        /* \"#utility.yul\":939:944   */\n      dup3\n        /* \"#utility.yul\":935:989   */\n      and\n        /* \"#utility.yul\":924:989   */\n      swap1\n      pop\n        /* \"#utility.yul\":869:995   */\n      swap2\n      swap1\n      pop\n      jump\t// out\n        /* \"#utility.yul\":1001:1097   */\n    tag_77:\n        /* \"#utility.yul\":1038:1045   */\n      0x00\n        /* \"#utility.yul\":1067:1091   */\n      tag_108\n        /* \"#utility.yul\":1085:1090   */\n      dup3\n        /* \"#utility.yul\":1067:1091   */\n      tag_76\n      jump\t// in\n    tag_108:\n        /* \"#utility.yul\":1056:1091   */\n      swap1\n      pop\n        /* \"#utility.yul\":1001:1097   */\n      swap2\n      swap1\n      pop\n      jump\t// out\n        /* \"#utility.yul\":1103:1221   */\n    tag_78:\n        /* \"#utility.yul\":1190:1214   */\n      tag_110\n        /* \"#utility.yul\":1208:1213   */\n      dup2\n        /* \"#utility.yul\":1190:1214   */\n      tag_77\n      jump\t// in\n    tag_110:\n        /* \"#utility.yul\":1185:1188   */\n      dup3\n        /* \"#utility.yul\":1178:1215   */\n      mstore\n        /* \"#utility.yul\":1103:1221   */\n      pop\n      pop\n      jump\t// out\n        /* \"#utility.yul\":1227:1449   */\n    tag_27:\n        /* \"#utility.yul\":1320:1324   */\n      0x00\n        /* \"#utility.yul\":1358:1360   */\n      0x20\n        /* \"#utility.yul\":1347:1356   */\n      dup3\n        /* \"#utility.yul\":1343:1361   */\n      add\n        /* \"#utility.yul\":1335:1361   */\n      swap1\n      pop\n        /* \"#utility.yul\":1371:1442   */\n      tag_112\n        /* \"#utility.yul\":1439:1440   */\n      0x00\n        /* \"#utility.yul\":1428:1437   */\n      dup4\n        /* \"#utility.yul\":1424:1441   */\n      add\n        /* \"#utility.yul\":1415:1421   */\n      dup5\n        /* \"#utility.yul\":1371:1442   */\n      tag_78\n      jump\t// in\n    tag_112:\n        /* \"#utility.yul\":1227:1449   */\n      swap3\n      swap2\n      pop\n      pop\n      jump\t// out\n        /* \"#utility.yul\":1455:1541   */\n    tag_79:\n        /* \"#utility.yul\":1490:1497   */\n      0x00\n        /* \"#utility.yul\":1530:1534   */\n      0xff\n        /* \"#utility.yul\":1523:1528   */\n      dup3\n        /* \"#utility.yul\":1519:1535   */\n      and\n        /* \"#utility.yul\":1508:1535   */\n      swap1\n      pop\n        /* \"#utility.yul\":1455:1541   */\n      swap2\n      swap1\n      pop\n      jump\t// out\n        /* \"#utility.yul\":1547:1659   */\n    tag_80:\n        /* \"#utility.yul\":1630:1652   */\n      tag_115\n        /* \"#utility.yul\":1646:1651   */\n      dup2\n        /* \"#utility.yul\":1630:1652   */\n      tag_79\n      jump\t// in\n    tag_115:\n        /* \"#utility.yul\":1625:1628   */\n      dup3\n        /* \"#utility.yul\":1618:1653   */\n      mstore\n        /* \"#utility.yul\":1547:1659   */\n      pop\n      pop\n      jump\t// out\n        /* \"#utility.yul\":1665:1879   */\n    tag_33:\n        /* \"#utility.yul\":1754:1758   */\n      0x00\n        /* \"#utility.yul\":1792:1794   */\n      0x20\n        /* \"#utility.yul\":1781:1790   */\n      dup3\n        /* \"#utility.yul\":1777:1795   */\n      add\n        /* \"#utility.yul\":1769:1795   */\n      swap1\n      pop\n        /* \"#utility.yul\":1805:1872   */\n      tag_117\n        /* \"#utility.yul\":1869:1870   */\n      0x00\n        /* \"#utility.yul\":1858:1867   */\n      dup4\n        /* \"#utility.yul\":1854:1871   */\n      add\n        /* \"#utility.yul\":1845:1851   */\n      dup5\n        /* \"#utility.yul\":1805:1872   */\n      tag_80\n      jump\t// in\n    tag_117:\n        /* \"#utility.yul\":1665:1879   */\n      swap3\n      swap2\n      pop\n      pop\n      jump\t// out\n        /* \"#utility.yul\":1885:2065   */\n    tag_61:\n        /* \"#utility.yul\":1933:2010   */\n      0x4e487b7100000000000000000000000000000000000000000000000000000000\n        /* \"#utility.yul\":1930:1931   */\n      0x00\n        /* \"#utility.yul\":1923:2011   */\n      mstore\n        /* \"#utility.yul\":2030:2034   */\n      0x21\n        /* \"#utility.yul\":2027:2028   */\n      0x04\n        /* \"#utility.yul\":2020:2035   */\n      mstore\n        /* \"#utility.yul\":2054:2058   */\n      0x24\n        /* \"#utility.yul\":2051:2052   */\n      0x00\n        /* \"#utility.yul\":2044:2059   */\n      revert\n        /* \"#utility.yul\":2071:2186   */\n    tag_81:\n        /* \"#utility.yul\":2154:2155   */\n      0x02\n        /* \"#utility.yul\":2147:2152   */\n      dup2\n        /* \"#utility.yul\":2144:2156   */\n      lt\n        /* \"#utility.yul\":2134:2180   */\n      tag_120\n      jumpi\n        /* \"#utility.yul\":2160:2178   */\n      tag_121\n      tag_61\n      jump\t// in\n    tag_121:\n        /* \"#utility.yul\":2134:2180   */\n    tag_120:\n        /* \"#utility.yul\":2071:2186   */\n      pop\n      jump\t// out\n        /* \"#utility.yul\":2192:2323   */\n    tag_82:\n        /* \"#utility.yul\":2239:2246   */\n      0x00\n        /* \"#utility.yul\":2268:2273   */\n      dup2\n        /* \"#utility.yul\":2257:2273   */\n      swap1\n      pop\n        /* \"#utility.yul\":2274:2317   */\n      tag_123\n        /* \"#utility.yul\":2311:2316   */\n      dup3\n        /* \"#utility.yul\":2274:2317   */\n      tag_81\n      jump\t// in\n    tag_123:\n        /* \"#utility.yul\":2192:2323   */\n      swap2\n      swap1\n      pop\n      jump\t// out\n        /* \"#utility.yul\":2329:2460   */\n    tag_83:\n        /* \"#utility.yul\":2387:2396   */\n      0x00\n        /* \"#utility.yul\":2420:2454   */\n      tag_125\n        /* \"#utility.yul\":2448:2453   */\n      dup3\n        /* \"#utility.yul\":2420:2454   */\n      tag_82\n      jump\t// in\n    tag_125:\n        /* \"#utility.yul\":2407:2454   */\n      swap1\n      pop\n        /* \"#utility.yul\":2329:2460   */\n      swap2\n      swap1\n      pop\n      jump\t// out\n        /* \"#utility.yul\":2466:2613   */\n    tag_84:\n        /* \"#utility.yul\":2561:2606   */\n      tag_127\n        /* \"#utility.yul\":2600:2605   */\n      dup2\n        /* \"#utility.yul\":2561:2606   */\n      tag_83\n      jump\t// in\n    tag_127:\n        /* \"#utility.yul\":2556:2559   */\n      dup3\n        /* \"#utility.yul\":2549:2607   */\n      mstore\n        /* \"#utility.yul\":2466:2613   */\n      pop\n      pop\n      jump\t// out\n        /* \"#utility.yul\":2619:2857   */\n    tag_37:\n        /* \"#utility.yul\":2720:2724   */\n      0x00\n        /* \"#utility.yul\":2758:2760   */\n      0x20\n        /* \"#utility.yul\":2747:2756   */\n      dup3\n        /* \"#utility.yul\":2743:2761   */\n      add\n        /* \"#utility.yul\":2735:2761   */\n      swap1\n      pop\n        /* \"#utility.yul\":2771:2850   */\n      tag_129\n        /* \"#utility.yul\":2847:2848   */\n      0x00\n        /* \"#utility.yul\":2836:2845   */\n      dup4\n        /* \"#utility.yul\":2832:2849   */\n      add\n        /* \"#utility.yul\":2823:2829   */\n      dup5\n        /* \"#utility.yul\":2771:2850   */\n      tag_84\n      jump\t// in\n    tag_129:\n        /* \"#utility.yul\":2619:2857   */\n      swap3\n      swap2\n      pop\n      pop\n      jump\t// out\n        /* \"#utility.yul\":2863:3013   */\n    tag_85:\n        /* \"#utility.yul\":2900:2907   */\n      0x00\n        /* \"#utility.yul\":2940:3006   */\n      0xffffffffffffffffffffffffffffffffffffffff000000000000000000000000\n        /* \"#utility.yul\":2933:2938   */\n      dup3\n        /* \"#utility.yul\":2929:3007   */\n      and\n        /* \"#utility.yul\":2918:3007   */\n      swap1\n      pop\n        /* \"#utility.yul\":2863:3013   */\n      swap2\n      swap1\n      pop\n      jump\t// out\n        /* \"#utility.yul\":3019:3137   */\n    tag_86:\n        /* \"#utility.yul\":3106:3130   */\n      tag_132\n        /* \"#utility.yul\":3124:3129   */\n      dup2\n        /* \"#utility.yul\":3106:3130   */\n      tag_85\n      jump\t// in\n    tag_132:\n        /* \"#utility.yul\":3101:3104   */\n      dup3\n        /* \"#utility.yul\":3094:3131   */\n      mstore\n        /* \"#utility.yul\":3019:3137   */\n      pop\n      pop\n      jump\t// out\n        /* \"#utility.yul\":3143:3365   */\n    tag_41:\n        /* \"#utility.yul\":3236:3240   */\n      0x00\n        /* \"#utility.yul\":3274:3276   */\n      0x20\n        /* \"#utility.yul\":3263:3272   */\n      dup3\n        /* \"#utility.yul\":3259:3277   */\n      add\n        /* \"#utility.yul\":3251:3277   */\n      swap1\n      pop\n        /* \"#utility.yul\":3287:3358   */\n      tag_134\n        /* \"#utility.yul\":3355:3356   */\n      0x00\n        /* \"#utility.yul\":3344:3353   */\n      dup4\n        /* \"#utility.yul\":3340:3357   */\n      add\n        /* \"#utility.yul\":3331:3337   */\n      dup5\n        /* \"#utility.yul\":3287:3358   */\n      tag_86\n      jump\t// in\n    tag_134:\n        /* \"#utility.yul\":3143:3365   */\n      swap3\n      swap2\n      pop\n      pop\n      jump\t// out\n        /* \"#utility.yul\":3371:3460   */\n    tag_87:\n        /* \"#utility.yul\":3405:3412   */\n      0x00\n        /* \"#utility.yul\":3448:3453   */\n      dup2\n        /* \"#utility.yul\":3445:3446   */\n      0x00\n        /* \"#utility.yul\":3434:3454   */\n      signextend\n        /* \"#utility.yul\":3423:3454   */\n      swap1\n      pop\n        /* \"#utility.yul\":3371:3460   */\n      swap2\n      swap1\n      pop\n      jump\t// out\n        /* \"#utility.yul\":3466:3575   */\n    tag_88:\n        /* \"#utility.yul\":3547:3568   */\n      tag_137\n        /* \"#utility.yul\":3562:3567   */\n      dup2\n        /* \"#utility.yul\":3547:3568   */\n      tag_87\n      jump\t// in\n    tag_137:\n        /* \"#utility.yul\":3542:3545   */\n      dup3\n        /* \"#utility.yul\":3535:3569   */\n      mstore\n        /* \"#utility.yul\":3466:3575   */\n      pop\n      pop\n      jump\t// out\n        /* \"#utility.yul\":3581:3791   */\n    tag_45:\n        /* \"#utility.yul\":3668:3672   */\n      0x00\n        /* \"#utility.yul\":3706:3708   */\n      0x20\n        /* \"#utility.yul\":3695:3704   */\n      dup3\n        /* \"#utility.yul\":3691:3709   */\n      add\n        /* \"#utility.yul\":3683:3709   */\n      swap1\n      pop\n        /* \"#utility.yul\":3719:3784   */\n      tag_139\n        /* \"#utility.yul\":3781:3782   */\n      0x00\n        /* \"#utility.yul\":3770:3779   */\n      dup4\n        /* \"#utility.yul\":3766:3783   */\n      add\n        /* \"#utility.yul\":3757:3763   */\n      dup5\n        /* \"#utility.yul\":3719:3784   */\n      tag_88\n      jump\t// in\n    tag_139:\n        /* \"#utility.yul\":3581:3791   */\n      swap3\n      swap2\n      pop\n      pop\n      jump\t// out\n        /* \"#utility.yul\":3797:3896   */\n    tag_89:\n        /* \"#utility.yul\":3849:3855   */\n      0x00\n        /* \"#utility.yul\":3883:3888   */\n      dup2\n        /* \"#utility.yul\":3877:3889   */\n      mload\n        /* \"#utility.yul\":3867:3889   */\n      swap1\n      pop\n        /* \"#utility.yul\":3797:3896   */\n      swap2\n      swap1\n      pop\n      jump\t// out\n        /* \"#utility.yul\":3902:4071   */\n    tag_90:\n        /* \"#utility.yul\":3986:3997   */\n      0x00\n        /* \"#utility.yul\":4020:4026   */\n      dup3\n        /* \"#utility.yul\":4015:4018   */\n      dup3\n        /* \"#utility.yul\":4008:4027   */\n      mstore\n        /* \"#utility.yul\":4060:4064   */\n      0x20\n        /* \"#utility.yul\":4055:4058   */\n      dup3\n        /* \"#utility.yul\":4051:4065   */\n      add\n        /* \"#utility.yul\":4036:4065   */\n      swap1\n      pop\n        /* \"#utility.yul\":3902:4071   */\n      swap3\n      swap2\n      pop\n      pop\n      jump\t// out\n        /* \"#utility.yul\":4077:4216   */\n    tag_91:\n        /* \"#utility.yul\":4166:4172   */\n      dup3\n        /* \"#utility.yul\":4161:4164   */\n      dup2\n        /* \"#utility.yul\":4156:4159   */\n      dup4\n        /* \"#utility.yul\":4150:4173   */\n      mcopy\n        /* \"#utility.yul\":4207:4208   */\n      0x00\n        /* \"#utility.yul\":4198:4204   */\n      dup4\n        /* \"#utility.yul\":4193:4196   */\n      dup4\n        /* \"#utility.yul\":4189:4205   */\n      add\n        /* \"#utility.yul\":4182:4209   */\n      mstore\n        /* \"#utility.yul\":4077:4216   */\n      pop\n      pop\n      pop\n      jump\t// out\n        /* \"#utility.yul\":4222:4324   */\n    tag_92:\n        /* \"#utility.yul\":4263:4269   */\n      0x00\n        /* \"#utility.yul\":4314:4316   */\n      0x1f\n        /* \"#utility.yul\":4310:4317   */\n      not\n        /* \"#utility.yul\":4305:4307   */\n      0x1f\n        /* \"#utility.yul\":4298:4303   */\n      dup4\n        /* \"#utility.yul\":4294:4308   */\n      add\n        /* \"#utility.yul\":4290:4318   */\n      and\n        /* \"#utility.yul\":4280:4318   */\n      swap1\n      pop\n        /* \"#utility.yul\":4222:4324   */\n      swap2\n      swap1\n      pop\n      jump\t// out\n        /* \"#utility.yul\":4330:4707   */\n    tag_93:\n        /* \"#utility.yul\":4418:4421   */\n      0x00\n        /* \"#utility.yul\":4446:4485   */\n      tag_145\n        /* \"#utility.yul\":4479:4484   */\n      dup3\n        /* \"#utility.yul\":4446:4485   */\n      tag_89\n      jump\t// in\n    tag_145:\n        /* \"#utility.yul\":4501:4572   */\n      tag_146\n        /* \"#utility.yul\":4565:4571   */\n      dup2\n        /* \"#utility.yul\":4560:4563   */\n      dup6\n        /* \"#utility.yul\":4501:4572   */\n      tag_90\n      jump\t// in\n    tag_146:\n        /* \"#utility.yul\":4494:4572   */\n      swap4\n      pop\n        /* \"#utility.yul\":4581:4646   */\n      tag_147\n        /* \"#utility.yul\":4639:4645   */\n      dup2\n        /* \"#utility.yul\":4634:4637   */\n      dup6\n        /* \"#utility.yul\":4627:4631   */\n      0x20\n        /* \"#utility.yul\":4620:4625   */\n      dup7\n        /* \"#utility.yul\":4616:4632   */\n      add\n        /* \"#utility.yul\":4581:4646   */\n      tag_91\n      jump\t// in\n    tag_147:\n        /* \"#utility.yul\":4671:4700   */\n      tag_148\n        /* \"#utility.yul\":4693:4699   */\n      dup2\n        /* \"#utility.yul\":4671:4700   */\n      tag_92\n      jump\t// in\n    tag_148:\n        /* \"#utility.yul\":4666:4669   */\n      dup5\n        /* \"#utility.yul\":4662:4701   */\n      add\n        /* \"#utility.yul\":4655:4701   */\n      swap2\n      pop\n        /* \"#utility.yul\":4422:4707   */\n      pop\n        /* \"#utility.yul\":4330:4707   */\n      swap3\n      swap2\n      pop\n      pop\n      jump\t// out\n        /* \"#utility.yul\":4713:5026   */\n    tag_52:\n        /* \"#utility.yul\":4826:4830   */\n      0x00\n        /* \"#utility.yul\":4864:4866   */\n      0x20\n        /* \"#utility.yul\":4853:4862   */\n      dup3\n        /* \"#utility.yul\":4849:4867   */\n      add\n        /* \"#utility.yul\":4841:4867   */\n      swap1\n      pop\n        /* \"#utility.yul\":4913:4922   */\n      dup2\n        /* \"#utility.yul\":4907:4911   */\n      dup2\n        /* \"#utility.yul\":4903:4923   */\n      sub\n        /* \"#utility.yul\":4899:4900   */\n      0x00\n        /* \"#utility.yul\":4888:4897   */\n      dup4\n        /* \"#utility.yul\":4884:4901   */\n      add\n        /* \"#utility.yul\":4877:4924   */\n      mstore\n        /* \"#utility.yul\":4941:5019   */\n      tag_150\n        /* \"#utility.yul\":5014:5018   */\n      dup2\n        /* \"#utility.yul\":5005:5011   */\n      dup5\n        /* \"#utility.yul\":4941:5019   */\n      tag_93\n      jump\t// in\n    tag_150:\n        /* \"#utility.yul\":4933:5019   */\n      swap1\n      pop\n        /* \"#utility.yul\":4713:5026   */\n      swap3\n      swap2\n      pop\n      pop\n      jump\t// out\n        /* \"#utility.yul\":5032:5212   */\n    tag_94:\n        /* \"#utility.yul\":5080:5157   */\n      0x4e487b7100000000000000000000000000000000000000000000000000000000\n        /* \"#utility.yul\":5077:5078   */\n      0x00\n        /* \"#utility.yul\":5070:5158   */\n      mstore\n        /* \"#utility.yul\":5177:5181   */\n      0x22\n        /* \"#utility.yul\":5174:5175   */\n      0x04\n        /* \"#utility.yul\":5167:5182   */\n      mstore\n        /* \"#utility.yul\":5201:5205   */\n      0x24\n        /* \"#utility.yul\":5198:5199   */\n      0x00\n        /* \"#utility.yul\":5191:5206   */\n      revert\n        /* \"#utility.yul\":5218:5538   */\n    tag_64:\n        /* \"#utility.yul\":5262:5268   */\n      0x00\n        /* \"#utility.yul\":5299:5300   */\n      0x02\n        /* \"#utility.yul\":5293:5297   */\n      dup3\n        /* \"#utility.yul\":5289:5301   */\n      div\n        /* \"#utility.yul\":5279:5301   */\n      swap1\n      pop\n        /* \"#utility.yul\":5346:5347   */\n      0x01\n        /* \"#utility.yul\":5340:5344   */\n      dup3\n        /* \"#utility.yul\":5336:5348   */\n      and\n        /* \"#utility.yul\":5367:5385   */\n      dup1\n        /* \"#utility.yul\":5357:5438   */\n      tag_153\n      jumpi\n        /* \"#utility.yul\":5423:5427   */\n      0x7f\n        /* \"#utility.yul\":5415:5421   */\n      dup3\n        /* \"#utility.yul\":5411:5428   */\n      and\n        /* \"#utility.yul\":5401:5428   */\n      swap2\n      pop\n        /* \"#utility.yul\":5357:5438   */\n    tag_153:\n        /* \"#utility.yul\":5485:5487   */\n      0x20\n        /* \"#utility.yul\":5477:5483   */\n      dup3\n        /* \"#utility.yul\":5474:5488   */\n      lt\n        /* \"#utility.yul\":5454:5472   */\n      dup2\n        /* \"#utility.yul\":5451:5489   */\n      sub\n        /* \"#utility.yul\":5448:5532   */\n      tag_154\n      jumpi\n        /* \"#utility.yul\":5504:5522   */\n      tag_155\n      tag_94\n      jump\t// in\n    tag_155:\n        /* \"#utility.yul\":5448:5532   */\n    tag_154:\n        /* \"#utility.yul\":5269:5538   */\n      pop\n        /* \"#utility.yul\":5218:5538   */\n      swap2\n      swap1\n      pop\n      jump\t// out\n\n    auxdata: 0xa26469706673582212204dae8267919126acb07cc9675e58799fe0211ae7cf674ab59ddbd3f8f019f33c64736f6c634300081a0033\n}\n",
				"bytecode": {
					"linkReferences": {},
					"object": "6080604052600360015f6101000a81548160ff021916908360ff1602179055507fffffffffffffffffffffffffffffffffffffffffffffffffffffffffffffffe060035f6101000a81548160ff02191690835f0b60ff16021790555060416004556040518060400160405280600f81526020017f4573746f206573207075626c69636f0000000000000000000000000000000000815250600690816100a49190610517565b506040518060400160405280600f81526020017f4573746f206573207072697661646f0000000000000000000000000000000000815250600790816100e99190610517565b506001600860016101000a81548160ff0219169083151502179055505f600860026101000a81548160ff021916908315150217905550600a336040516020016101339291906106cf565b60405160208183030381529060405280519060200120600b55600260405160200161015d9061074f565b60405160208183030381529060405260405161017991906107b5565b602060405180830381855afa158015610194573d5f803e3d5ffd5b5050506040513d601f19601f820116820180604052508101906101b79190610802565b600c5560036040516020016101cb9061082d565b6040516020818303038152906040526040516101e791906107b5565b602060405180830381855afa158015610202573d5f803e3d5ffd5b5050506040515160601b600d5f6101000a81548173ffffffffffffffffffffffffffffffffffffffff021916908360601c0217905550735b38da6a701c568545dcfcb03fcb875f56beddc4600f5f6101000a81548173ffffffffffffffffffffffffffffffffffffffff021916908373ffffffffffffffffffffffffffffffffffffffff1602179055503360105f6101000a81548173ffffffffffffffffffffffffffffffffffffffff021916908373ffffffffffffffffffffffffffffffffffffffff1602179055503480156102d7575f80fd5b50610841565b5f81519050919050565b7f4e487b71000000000000000000000000000000000000000000000000000000005f52604160045260245ffd5b7f4e487b71000000000000000000000000000000000000000000000000000000005f52602260045260245ffd5b5f600282049050600182168061035857607f821691505b60208210810361036b5761036a610314565b5b50919050565b5f819050815f5260205f209050919050565b5f6020601f8301049050919050565b5f82821b905092915050565b5f600883026103cd7fffffffffffffffffffffffffffffffffffffffffffffffffffffffffffffffff82610392565b6103d78683610392565b95508019841693508086168417925050509392505050565b5f819050919050565b5f819050919050565b5f61041b610416610411846103ef565b6103f8565b6103ef565b9050919050565b5f819050919050565b61043483610401565b61044861044082610422565b84845461039e565b825550505050565b5f90565b61045c610450565b61046781848461042b565b505050565b5b8181101561048a5761047f5f82610454565b60018101905061046d565b5050565b601f8211156104cf576104a081610371565b6104a984610383565b810160208510156104b8578190505b6104cc6104c485610383565b83018261046c565b50505b505050565b5f82821c905092915050565b5f6104ef5f19846008026104d4565b1980831691505092915050565b5f61050783836104e0565b9150826002028217905092915050565b610520826102dd565b67ffffffffffffffff811115610539576105386102e7565b5b6105438254610341565b61054e82828561048e565b5f60209050601f83116001811461057f575f841561056d578287015190505b61057785826104fc565b8655506105de565b601f19841661058d86610371565b5f5b828110156105b45784890151825560018201915060208501945060208101905061058f565b868310156105d157848901516105cd601f8916826104e0565b8355505b6001600288020188555050505b505050505050565b5f81905092915050565b7f48656c6c6f20776f726c640000000000000000000000000000000000000000005f82015250565b5f610624600b836105e6565b915061062f826105f0565b600b82019050919050565b5f819050919050565b61065461064f826103ef565b61063a565b82525050565b5f73ffffffffffffffffffffffffffffffffffffffff82169050919050565b5f6106838261065a565b9050919050565b5f8160601b9050919050565b5f6106a08261068a565b9050919050565b5f6106b182610696565b9050919050565b6106c96106c482610679565b6106a7565b82525050565b5f6106d982610618565b91506106e58285610643565b6020820191506106f582846106b8565b6014820191508190509392505050565b7f48656c6c6f20576f726c640000000000000000000000000000000000000000005f82015250565b5f610739600b836105e6565b915061074482610705565b600b82019050919050565b5f6107598261072d565b9150819050919050565b5f81519050919050565b5f81905092915050565b8281835e5f83830152505050565b5f61078f82610763565b610799818561076d565b93506107a9818560208601610777565b80840191505092915050565b5f6107c08284610785565b915081905092915050565b5f80fd5b5f819050919050565b6107e1816107cf565b81146107eb575f80fd5b50565b5f815190506107fc816107d8565b92915050565b5f60208284031215610817576108166107cb565b5b5f610824848285016107ee565b91505092915050565b5f61083782610618565b9150819050919050565b6106b48061084e5f395ff3fe608060405234801561000f575f80fd5b50600436106100b2575f3560e01c80637a68ef7f1161006f5780637a68ef7f146101565780638a054ac2146101745780639eea4a3a14610192578063b83d07b7146101b0578063ba33ed7d146101ce578063c7109d04146101d8576100b2565b80632b73648d146100b6578063312eef29146100d45780633a36399e146100f257806348460ce6146101105780634df7e3d01461011a5780637272eea114610138575b5f80fd5b6100be6101f6565b6040516100cb91906103a7565b60405180910390f35b6100dc6101fc565b6040516100e991906103da565b60405180910390f35b6100fa61020f565b6040516101079190610432565b60405180910390f35b610118610234565b005b610122610261565b60405161012f9190610466565b60405180910390f35b610140610273565b60405161014d91906104f2565b60405180910390f35b61015e610289565b60405161016b9190610545565b60405180910390f35b61017c61029b565b6040516101899190610578565b60405180910390f35b61019a6102ac565b6040516101a79190610432565b60405180910390f35b6101b86102d1565b6040516101c59190610601565b60405180910390f35b6101d661035d565b005b6101e0610389565b6040516101ed91906103a7565b60405180910390f35b600b5481565b600860019054906101000a900460ff1681565b600f5f9054906101000a900473ffffffffffffffffffffffffffffffffffffffff1681565b6001601060146101000a81548160ff0219169083600181111561025a5761025961047f565b5b0217905550565b60015f9054906101000a900460ff1681565b5f601060149054906101000a900460ff16905090565b600d5f9054906101000a900460601b81565b60035f9054906101000a90045f0b81565b60105f9054906101000a900473ffffffffffffffffffffffffffffffffffffffff1681565b600680546102de9061064e565b80601f016020809104026020016040519081016040528092919081815260200182805461030a9061064e565b80156103555780601f1061032c57610100808354040283529160200191610355565b820191905f5260205f20905b81548152906001019060200180831161033857829003601f168201915b505050505081565b5f601060146101000a81548160ff021916908360018111156103825761038161047f565b5b0217905550565b600c5481565b5f819050919050565b6103a18161038f565b82525050565b5f6020820190506103ba5f830184610398565b92915050565b5f8115159050919050565b6103d4816103c0565b82525050565b5f6020820190506103ed5f8301846103cb565b92915050565b5f73ffffffffffffffffffffffffffffffffffffffff82169050919050565b5f61041c826103f3565b9050919050565b61042c81610412565b82525050565b5f6020820190506104455f830184610423565b92915050565b5f60ff82169050919050565b6104608161044b565b82525050565b5f6020820190506104795f830184610457565b92915050565b7f4e487b71000000000000000000000000000000000000000000000000000000005f52602160045260245ffd5b600281106104bd576104bc61047f565b5b50565b5f8190506104cd826104ac565b919050565b5f6104dc826104c0565b9050919050565b6104ec816104d2565b82525050565b5f6020820190506105055f8301846104e3565b92915050565b5f7fffffffffffffffffffffffffffffffffffffffff00000000000000000000000082169050919050565b61053f8161050b565b82525050565b5f6020820190506105585f830184610536565b92915050565b5f815f0b9050919050565b6105728161055e565b82525050565b5f60208201905061058b5f830184610569565b92915050565b5f81519050919050565b5f82825260208201905092915050565b8281835e5f83830152505050565b5f601f19601f8301169050919050565b5f6105d382610591565b6105dd818561059b565b93506105ed8185602086016105ab565b6105f6816105b9565b840191505092915050565b5f6020820190508181035f83015261061981846105c9565b905092915050565b7f4e487b71000000000000000000000000000000000000000000000000000000005f52602260045260245ffd5b5f600282049050600182168061066557607f821691505b60208210810361067857610677610621565b5b5091905056fea26469706673582212204dae8267919126acb07cc9675e58799fe0211ae7cf674ab59ddbd3f8f019f33c64736f6c634300081a0033",
					"opcodes": "PUSH1 0x80 PUSH1 0x40 MSTORE PUSH1 0x3 PUSH1 0x1 PUSH0 PUSH2 0x100 EXP DUP2 SLOAD DUP2 PUSH1 0xFF MUL NOT AND SWAP1 DUP4 PUSH1 0xFF AND MUL OR SWAP1 SSTORE POP PUSH32 0xFFFFFFFFFFFFFFFFFFFFFFFFFFFFFFFFFFFFFFFFFFFFFFFFFFFFFFFFFFFFFFE0 PUSH1 0x3 PUSH0 PUSH2 0x100 EXP DUP2 SLOAD DUP2 PUSH1 0xFF MUL NOT AND SWAP1 DUP4 PUSH0 SIGNEXTEND PUSH1 0xFF AND MUL OR SWAP1 SSTORE POP PUSH1 0x41 PUSH1 0x4 SSTORE PUSH1 0x40 MLOAD DUP1 PUSH1 0x40 ADD PUSH1 0x40 MSTORE DUP1 PUSH1 0xF DUP2 MSTORE PUSH1 0x20 ADD PUSH32 0x4573746F206573207075626C69636F0000000000000000000000000000000000 DUP2 MSTORE POP PUSH1 0x6 SWAP1 DUP2 PUSH2 0xA4 SWAP2 SWAP1 PUSH2 0x517 JUMP JUMPDEST POP PUSH1 0x40 MLOAD DUP1 PUSH1 0x40 ADD PUSH1 0x40 MSTORE DUP1 PUSH1 0xF DUP2 MSTORE PUSH1 0x20 ADD PUSH32 0x4573746F206573207072697661646F0000000000000000000000000000000000 DUP2 MSTORE POP PUSH1 0x7 SWAP1 DUP2 PUSH2 0xE9 SWAP2 SWAP1 PUSH2 0x517 JUMP JUMPDEST POP PUSH1 0x1 PUSH1 0x8 PUSH1 0x1 PUSH2 0x100 EXP DUP2 SLOAD DUP2 PUSH1 0xFF MUL NOT AND SWAP1 DUP4 ISZERO ISZERO MUL OR SWAP1 SSTORE POP PUSH0 PUSH1 0x8 PUSH1 0x2 PUSH2 0x100 EXP DUP2 SLOAD DUP2 PUSH1 0xFF MUL NOT AND SWAP1 DUP4 ISZERO ISZERO MUL OR SWAP1 SSTORE POP PUSH1 0xA CALLER PUSH1 0x40 MLOAD PUSH1 0x20 ADD PUSH2 0x133 SWAP3 SWAP2 SWAP1 PUSH2 0x6CF JUMP JUMPDEST PUSH1 0x40 MLOAD PUSH1 0x20 DUP2 DUP4 SUB SUB DUP2 MSTORE SWAP1 PUSH1 0x40 MSTORE DUP1 MLOAD SWAP1 PUSH1 0x20 ADD KECCAK256 PUSH1 0xB SSTORE PUSH1 0x2 PUSH1 0x40 MLOAD PUSH1 0x20 ADD PUSH2 0x15D SWAP1 PUSH2 0x74F JUMP JUMPDEST PUSH1 0x40 MLOAD PUSH1 0x20 DUP2 DUP4 SUB SUB DUP2 MSTORE SWAP1 PUSH1 0x40 MSTORE PUSH1 0x40 MLOAD PUSH2 0x179 SWAP2 SWAP1 PUSH2 0x7B5 JUMP JUMPDEST PUSH1 0x20 PUSH1 0x40 MLOAD DUP1 DUP4 SUB DUP2 DUP6 GAS STATICCALL ISZERO DUP1 ISZERO PUSH2 0x194 JUMPI RETURNDATASIZE PUSH0 DUP1 RETURNDATACOPY RETURNDATASIZE PUSH0 REVERT JUMPDEST POP POP POP PUSH1 0x40 MLOAD RETURNDATASIZE PUSH1 0x1F NOT PUSH1 0x1F DUP3 ADD AND DUP3 ADD DUP1 PUSH1 0x40 MSTORE POP DUP2 ADD SWAP1 PUSH2 0x1B7 SWAP2 SWAP1 PUSH2 0x802 JUMP JUMPDEST PUSH1 0xC SSTORE PUSH1 0x3 PUSH1 0x40 MLOAD PUSH1 0x20 ADD PUSH2 0x1CB SWAP1 PUSH2 0x82D JUMP JUMPDEST PUSH1 0x40 MLOAD PUSH1 0x20 DUP2 DUP4 SUB SUB DUP2 MSTORE SWAP1 PUSH1 0x40 MSTORE PUSH1 0x40 MLOAD PUSH2 0x1E7 SWAP2 SWAP1 PUSH2 0x7B5 JUMP JUMPDEST PUSH1 0x20 PUSH1 0x40 MLOAD DUP1 DUP4 SUB DUP2 DUP6 GAS STATICCALL ISZERO DUP1 ISZERO PUSH2 0x202 JUMPI RETURNDATASIZE PUSH0 DUP1 RETURNDATACOPY RETURNDATASIZE PUSH0 REVERT JUMPDEST POP POP POP PUSH1 0x40 MLOAD MLOAD PUSH1 0x60 SHL PUSH1 0xD PUSH0 PUSH2 0x100 EXP DUP2 SLOAD DUP2 PUSH20 0xFFFFFFFFFFFFFFFFFFFFFFFFFFFFFFFFFFFFFFFF MUL NOT AND SWAP1 DUP4 PUSH1 0x60 SHR MUL OR SWAP1 SSTORE POP PUSH20 0x5B38DA6A701C568545DCFCB03FCB875F56BEDDC4 PUSH1 0xF PUSH0 PUSH2 0x100 EXP DUP2 SLOAD DUP2 PUSH20 0xFFFFFFFFFFFFFFFFFFFFFFFFFFFFFFFFFFFFFFFF MUL NOT AND SWAP1 DUP4 PUSH20 0xFFFFFFFFFFFFFFFFFFFFFFFFFFFFFFFFFFFFFFFF AND MUL OR SWAP1 SSTORE POP CALLER PUSH1 0x10 PUSH0 PUSH2 0x100 EXP DUP2 SLOAD DUP2 PUSH20 0xFFFFFFFFFFFFFFFFFFFFFFFFFFFFFFFFFFFFFFFF MUL NOT AND SWAP1 DUP4 PUSH20 0xFFFFFFFFFFFFFFFFFFFFFFFFFFFFFFFFFFFFFFFF AND MUL OR SWAP1 SSTORE POP CALLVALUE DUP1 ISZERO PUSH2 0x2D7 JUMPI PUSH0 DUP1 REVERT JUMPDEST POP PUSH2 0x841 JUMP JUMPDEST PUSH0 DUP2 MLOAD SWAP1 POP SWAP2 SWAP1 POP JUMP JUMPDEST PUSH32 0x4E487B7100000000000000000000000000000000000000000000000000000000 PUSH0 MSTORE PUSH1 0x41 PUSH1 0x4 MSTORE PUSH1 0x24 PUSH0 REVERT JUMPDEST PUSH32 0x4E487B7100000000000000000000000000000000000000000000000000000000 PUSH0 MSTORE PUSH1 0x22 PUSH1 0x4 MSTORE PUSH1 0x24 PUSH0 REVERT JUMPDEST PUSH0 PUSH1 0x2 DUP3 DIV SWAP1 POP PUSH1 0x1 DUP3 AND DUP1 PUSH2 0x358 JUMPI PUSH1 0x7F DUP3 AND SWAP2 POP JUMPDEST PUSH1 0x20 DUP3 LT DUP2 SUB PUSH2 0x36B JUMPI PUSH2 0x36A PUSH2 0x314 JUMP JUMPDEST JUMPDEST POP SWAP2 SWAP1 POP JUMP JUMPDEST PUSH0 DUP2 SWAP1 POP DUP2 PUSH0 MSTORE PUSH1 0x20 PUSH0 KECCAK256 SWAP1 POP SWAP2 SWAP1 POP JUMP JUMPDEST PUSH0 PUSH1 0x20 PUSH1 0x1F DUP4 ADD DIV SWAP1 POP SWAP2 SWAP1 POP JUMP JUMPDEST PUSH0 DUP3 DUP3 SHL SWAP1 POP SWAP3 SWAP2 POP POP JUMP JUMPDEST PUSH0 PUSH1 0x8 DUP4 MUL PUSH2 0x3CD PUSH32 0xFFFFFFFFFFFFFFFFFFFFFFFFFFFFFFFFFFFFFFFFFFFFFFFFFFFFFFFFFFFFFFFF DUP3 PUSH2 0x392 JUMP JUMPDEST PUSH2 0x3D7 DUP7 DUP4 PUSH2 0x392 JUMP JUMPDEST SWAP6 POP DUP1 NOT DUP5 AND SWAP4 POP DUP1 DUP7 AND DUP5 OR SWAP3 POP POP POP SWAP4 SWAP3 POP POP POP JUMP JUMPDEST PUSH0 DUP2 SWAP1 POP SWAP2 SWAP1 POP JUMP JUMPDEST PUSH0 DUP2 SWAP1 POP SWAP2 SWAP1 POP JUMP JUMPDEST PUSH0 PUSH2 0x41B PUSH2 0x416 PUSH2 0x411 DUP5 PUSH2 0x3EF JUMP JUMPDEST PUSH2 0x3F8 JUMP JUMPDEST PUSH2 0x3EF JUMP JUMPDEST SWAP1 POP SWAP2 SWAP1 POP JUMP JUMPDEST PUSH0 DUP2 SWAP1 POP SWAP2 SWAP1 POP JUMP JUMPDEST PUSH2 0x434 DUP4 PUSH2 0x401 JUMP JUMPDEST PUSH2 0x448 PUSH2 0x440 DUP3 PUSH2 0x422 JUMP JUMPDEST DUP5 DUP5 SLOAD PUSH2 0x39E JUMP JUMPDEST DUP3 SSTORE POP POP POP POP JUMP JUMPDEST PUSH0 SWAP1 JUMP JUMPDEST PUSH2 0x45C PUSH2 0x450 JUMP JUMPDEST PUSH2 0x467 DUP2 DUP5 DUP5 PUSH2 0x42B JUMP JUMPDEST POP POP POP JUMP JUMPDEST JUMPDEST DUP2 DUP2 LT ISZERO PUSH2 0x48A JUMPI PUSH2 0x47F PUSH0 DUP3 PUSH2 0x454 JUMP JUMPDEST PUSH1 0x1 DUP2 ADD SWAP1 POP PUSH2 0x46D JUMP JUMPDEST POP POP JUMP JUMPDEST PUSH1 0x1F DUP3 GT ISZERO PUSH2 0x4CF JUMPI PUSH2 0x4A0 DUP2 PUSH2 0x371 JUMP JUMPDEST PUSH2 0x4A9 DUP5 PUSH2 0x383 JUMP JUMPDEST DUP2 ADD PUSH1 0x20 DUP6 LT ISZERO PUSH2 0x4B8 JUMPI DUP2 SWAP1 POP JUMPDEST PUSH2 0x4CC PUSH2 0x4C4 DUP6 PUSH2 0x383 JUMP JUMPDEST DUP4 ADD DUP3 PUSH2 0x46C JUMP JUMPDEST POP POP JUMPDEST POP POP POP JUMP JUMPDEST PUSH0 DUP3 DUP3 SHR SWAP1 POP SWAP3 SWAP2 POP POP JUMP JUMPDEST PUSH0 PUSH2 0x4EF PUSH0 NOT DUP5 PUSH1 0x8 MUL PUSH2 0x4D4 JUMP JUMPDEST NOT DUP1 DUP4 AND SWAP2 POP POP SWAP3 SWAP2 POP POP JUMP JUMPDEST PUSH0 PUSH2 0x507 DUP4 DUP4 PUSH2 0x4E0 JUMP JUMPDEST SWAP2 POP DUP3 PUSH1 0x2 MUL DUP3 OR SWAP1 POP SWAP3 SWAP2 POP POP JUMP JUMPDEST PUSH2 0x520 DUP3 PUSH2 0x2DD JUMP JUMPDEST PUSH8 0xFFFFFFFFFFFFFFFF DUP2 GT ISZERO PUSH2 0x539 JUMPI PUSH2 0x538 PUSH2 0x2E7 JUMP JUMPDEST JUMPDEST PUSH2 0x543 DUP3 SLOAD PUSH2 0x341 JUMP JUMPDEST PUSH2 0x54E DUP3 DUP3 DUP6 PUSH2 0x48E JUMP JUMPDEST PUSH0 PUSH1 0x20 SWAP1 POP PUSH1 0x1F DUP4 GT PUSH1 0x1 DUP2 EQ PUSH2 0x57F JUMPI PUSH0 DUP5 ISZERO PUSH2 0x56D JUMPI DUP3 DUP8 ADD MLOAD SWAP1 POP JUMPDEST PUSH2 0x577 DUP6 DUP3 PUSH2 0x4FC JUMP JUMPDEST DUP7 SSTORE POP PUSH2 0x5DE JUMP JUMPDEST PUSH1 0x1F NOT DUP5 AND PUSH2 0x58D DUP7 PUSH2 0x371 JUMP JUMPDEST PUSH0 JUMPDEST DUP3 DUP2 LT ISZERO PUSH2 0x5B4 JUMPI DUP5 DUP10 ADD MLOAD DUP3 SSTORE PUSH1 0x1 DUP3 ADD SWAP2 POP PUSH1 0x20 DUP6 ADD SWAP5 POP PUSH1 0x20 DUP2 ADD SWAP1 POP PUSH2 0x58F JUMP JUMPDEST DUP7 DUP4 LT ISZERO PUSH2 0x5D1 JUMPI DUP5 DUP10 ADD MLOAD PUSH2 0x5CD PUSH1 0x1F DUP10 AND DUP3 PUSH2 0x4E0 JUMP JUMPDEST DUP4 SSTORE POP JUMPDEST PUSH1 0x1 PUSH1 0x2 DUP9 MUL ADD DUP9 SSTORE POP POP POP JUMPDEST POP POP POP POP POP POP JUMP JUMPDEST PUSH0 DUP2 SWAP1 POP SWAP3 SWAP2 POP POP JUMP JUMPDEST PUSH32 0x48656C6C6F20776F726C64000000000000000000000000000000000000000000 PUSH0 DUP3 ADD MSTORE POP JUMP JUMPDEST PUSH0 PUSH2 0x624 PUSH1 0xB DUP4 PUSH2 0x5E6 JUMP JUMPDEST SWAP2 POP PUSH2 0x62F DUP3 PUSH2 0x5F0 JUMP JUMPDEST PUSH1 0xB DUP3 ADD SWAP1 POP SWAP2 SWAP1 POP JUMP JUMPDEST PUSH0 DUP2 SWAP1 POP SWAP2 SWAP1 POP JUMP JUMPDEST PUSH2 0x654 PUSH2 0x64F DUP3 PUSH2 0x3EF JUMP JUMPDEST PUSH2 0x63A JUMP JUMPDEST DUP3 MSTORE POP POP JUMP JUMPDEST PUSH0 PUSH20 0xFFFFFFFFFFFFFFFFFFFFFFFFFFFFFFFFFFFFFFFF DUP3 AND SWAP1 POP SWAP2 SWAP1 POP JUMP JUMPDEST PUSH0 PUSH2 0x683 DUP3 PUSH2 0x65A JUMP JUMPDEST SWAP1 POP SWAP2 SWAP1 POP JUMP JUMPDEST PUSH0 DUP2 PUSH1 0x60 SHL SWAP1 POP SWAP2 SWAP1 POP JUMP JUMPDEST PUSH0 PUSH2 0x6A0 DUP3 PUSH2 0x68A JUMP JUMPDEST SWAP1 POP SWAP2 SWAP1 POP JUMP JUMPDEST PUSH0 PUSH2 0x6B1 DUP3 PUSH2 0x696 JUMP JUMPDEST SWAP1 POP SWAP2 SWAP1 POP JUMP JUMPDEST PUSH2 0x6C9 PUSH2 0x6C4 DUP3 PUSH2 0x679 JUMP JUMPDEST PUSH2 0x6A7 JUMP JUMPDEST DUP3 MSTORE POP POP JUMP JUMPDEST PUSH0 PUSH2 0x6D9 DUP3 PUSH2 0x618 JUMP JUMPDEST SWAP2 POP PUSH2 0x6E5 DUP3 DUP6 PUSH2 0x643 JUMP JUMPDEST PUSH1 0x20 DUP3 ADD SWAP2 POP PUSH2 0x6F5 DUP3 DUP5 PUSH2 0x6B8 JUMP JUMPDEST PUSH1 0x14 DUP3 ADD SWAP2 POP DUP2 SWAP1 POP SWAP4 SWAP3 POP POP POP JUMP JUMPDEST PUSH32 0x48656C6C6F20576F726C64000000000000000000000000000000000000000000 PUSH0 DUP3 ADD MSTORE POP JUMP JUMPDEST PUSH0 PUSH2 0x739 PUSH1 0xB DUP4 PUSH2 0x5E6 JUMP JUMPDEST SWAP2 POP PUSH2 0x744 DUP3 PUSH2 0x705 JUMP JUMPDEST PUSH1 0xB DUP3 ADD SWAP1 POP SWAP2 SWAP1 POP JUMP JUMPDEST PUSH0 PUSH2 0x759 DUP3 PUSH2 0x72D JUMP JUMPDEST SWAP2 POP DUP2 SWAP1 POP SWAP2 SWAP1 POP JUMP JUMPDEST PUSH0 DUP2 MLOAD SWAP1 POP SWAP2 SWAP1 POP JUMP JUMPDEST PUSH0 DUP2 SWAP1 POP SWAP3 SWAP2 POP POP JUMP JUMPDEST DUP3 DUP2 DUP4 MCOPY PUSH0 DUP4 DUP4 ADD MSTORE POP POP POP JUMP JUMPDEST PUSH0 PUSH2 0x78F DUP3 PUSH2 0x763 JUMP JUMPDEST PUSH2 0x799 DUP2 DUP6 PUSH2 0x76D JUMP JUMPDEST SWAP4 POP PUSH2 0x7A9 DUP2 DUP6 PUSH1 0x20 DUP7 ADD PUSH2 0x777 JUMP JUMPDEST DUP1 DUP5 ADD SWAP2 POP POP SWAP3 SWAP2 POP POP JUMP JUMPDEST PUSH0 PUSH2 0x7C0 DUP3 DUP5 PUSH2 0x785 JUMP JUMPDEST SWAP2 POP DUP2 SWAP1 POP SWAP3 SWAP2 POP POP JUMP JUMPDEST PUSH0 DUP1 REVERT JUMPDEST PUSH0 DUP2 SWAP1 POP SWAP2 SWAP1 POP JUMP JUMPDEST PUSH2 0x7E1 DUP2 PUSH2 0x7CF JUMP JUMPDEST DUP2 EQ PUSH2 0x7EB JUMPI PUSH0 DUP1 REVERT JUMPDEST POP JUMP JUMPDEST PUSH0 DUP2 MLOAD SWAP1 POP PUSH2 0x7FC DUP2 PUSH2 0x7D8 JUMP JUMPDEST SWAP3 SWAP2 POP POP JUMP JUMPDEST PUSH0 PUSH1 0x20 DUP3 DUP5 SUB SLT ISZERO PUSH2 0x817 JUMPI PUSH2 0x816 PUSH2 0x7CB JUMP JUMPDEST JUMPDEST PUSH0 PUSH2 0x824 DUP5 DUP3 DUP6 ADD PUSH2 0x7EE JUMP JUMPDEST SWAP2 POP POP SWAP3 SWAP2 POP POP JUMP JUMPDEST PUSH0 PUSH2 0x837 DUP3 PUSH2 0x618 JUMP JUMPDEST SWAP2 POP DUP2 SWAP1 POP SWAP2 SWAP1 POP JUMP JUMPDEST PUSH2 0x6B4 DUP1 PUSH2 0x84E PUSH0 CODECOPY PUSH0 RETURN INVALID PUSH1 0x80 PUSH1 0x40 MSTORE CALLVALUE DUP1 ISZERO PUSH2 0xF JUMPI PUSH0 DUP1 REVERT JUMPDEST POP PUSH1 0x4 CALLDATASIZE LT PUSH2 0xB2 JUMPI PUSH0 CALLDATALOAD PUSH1 0xE0 SHR DUP1 PUSH4 0x7A68EF7F GT PUSH2 0x6F JUMPI DUP1 PUSH4 0x7A68EF7F EQ PUSH2 0x156 JUMPI DUP1 PUSH4 0x8A054AC2 EQ PUSH2 0x174 JUMPI DUP1 PUSH4 0x9EEA4A3A EQ PUSH2 0x192 JUMPI DUP1 PUSH4 0xB83D07B7 EQ PUSH2 0x1B0 JUMPI DUP1 PUSH4 0xBA33ED7D EQ PUSH2 0x1CE JUMPI DUP1 PUSH4 0xC7109D04 EQ PUSH2 0x1D8 JUMPI PUSH2 0xB2 JUMP JUMPDEST DUP1 PUSH4 0x2B73648D EQ PUSH2 0xB6 JUMPI DUP1 PUSH4 0x312EEF29 EQ PUSH2 0xD4 JUMPI DUP1 PUSH4 0x3A36399E EQ PUSH2 0xF2 JUMPI DUP1 PUSH4 0x48460CE6 EQ PUSH2 0x110 JUMPI DUP1 PUSH4 0x4DF7E3D0 EQ PUSH2 0x11A JUMPI DUP1 PUSH4 0x7272EEA1 EQ PUSH2 0x138 JUMPI JUMPDEST PUSH0 DUP1 REVERT JUMPDEST PUSH2 0xBE PUSH2 0x1F6 JUMP JUMPDEST PUSH1 0x40 MLOAD PUSH2 0xCB SWAP2 SWAP1 PUSH2 0x3A7 JUMP JUMPDEST PUSH1 0x40 MLOAD DUP1 SWAP2 SUB SWAP1 RETURN JUMPDEST PUSH2 0xDC PUSH2 0x1FC JUMP JUMPDEST PUSH1 0x40 MLOAD PUSH2 0xE9 SWAP2 SWAP1 PUSH2 0x3DA JUMP JUMPDEST PUSH1 0x40 MLOAD DUP1 SWAP2 SUB SWAP1 RETURN JUMPDEST PUSH2 0xFA PUSH2 0x20F JUMP JUMPDEST PUSH1 0x40 MLOAD PUSH2 0x107 SWAP2 SWAP1 PUSH2 0x432 JUMP JUMPDEST PUSH1 0x40 MLOAD DUP1 SWAP2 SUB SWAP1 RETURN JUMPDEST PUSH2 0x118 PUSH2 0x234 JUMP JUMPDEST STOP JUMPDEST PUSH2 0x122 PUSH2 0x261 JUMP JUMPDEST PUSH1 0x40 MLOAD PUSH2 0x12F SWAP2 SWAP1 PUSH2 0x466 JUMP JUMPDEST PUSH1 0x40 MLOAD DUP1 SWAP2 SUB SWAP1 RETURN JUMPDEST PUSH2 0x140 PUSH2 0x273 JUMP JUMPDEST PUSH1 0x40 MLOAD PUSH2 0x14D SWAP2 SWAP1 PUSH2 0x4F2 JUMP JUMPDEST PUSH1 0x40 MLOAD DUP1 SWAP2 SUB SWAP1 RETURN JUMPDEST PUSH2 0x15E PUSH2 0x289 JUMP JUMPDEST PUSH1 0x40 MLOAD PUSH2 0x16B SWAP2 SWAP1 PUSH2 0x545 JUMP JUMPDEST PUSH1 0x40 MLOAD DUP1 SWAP2 SUB SWAP1 RETURN JUMPDEST PUSH2 0x17C PUSH2 0x29B JUMP JUMPDEST PUSH1 0x40 MLOAD PUSH2 0x189 SWAP2 SWAP1 PUSH2 0x578 JUMP JUMPDEST PUSH1 0x40 MLOAD DUP1 SWAP2 SUB SWAP1 RETURN JUMPDEST PUSH2 0x19A PUSH2 0x2AC JUMP JUMPDEST PUSH1 0x40 MLOAD PUSH2 0x1A7 SWAP2 SWAP1 PUSH2 0x432 JUMP JUMPDEST PUSH1 0x40 MLOAD DUP1 SWAP2 SUB SWAP1 RETURN JUMPDEST PUSH2 0x1B8 PUSH2 0x2D1 JUMP JUMPDEST PUSH1 0x40 MLOAD PUSH2 0x1C5 SWAP2 SWAP1 PUSH2 0x601 JUMP JUMPDEST PUSH1 0x40 MLOAD DUP1 SWAP2 SUB SWAP1 RETURN JUMPDEST PUSH2 0x1D6 PUSH2 0x35D JUMP JUMPDEST STOP JUMPDEST PUSH2 0x1E0 PUSH2 0x389 JUMP JUMPDEST PUSH1 0x40 MLOAD PUSH2 0x1ED SWAP2 SWAP1 PUSH2 0x3A7 JUMP JUMPDEST PUSH1 0x40 MLOAD DUP1 SWAP2 SUB SWAP1 RETURN JUMPDEST PUSH1 0xB SLOAD DUP2 JUMP JUMPDEST PUSH1 0x8 PUSH1 0x1 SWAP1 SLOAD SWAP1 PUSH2 0x100 EXP SWAP1 DIV PUSH1 0xFF AND DUP2 JUMP JUMPDEST PUSH1 0xF PUSH0 SWAP1 SLOAD SWAP1 PUSH2 0x100 EXP SWAP1 DIV PUSH20 0xFFFFFFFFFFFFFFFFFFFFFFFFFFFFFFFFFFFFFFFF AND DUP2 JUMP JUMPDEST PUSH1 0x1 PUSH1 0x10 PUSH1 0x14 PUSH2 0x100 EXP DUP2 SLOAD DUP2 PUSH1 0xFF MUL NOT AND SWAP1 DUP4 PUSH1 0x1 DUP2 GT ISZERO PUSH2 0x25A JUMPI PUSH2 0x259 PUSH2 0x47F JUMP JUMPDEST JUMPDEST MUL OR SWAP1 SSTORE POP JUMP JUMPDEST PUSH1 0x1 PUSH0 SWAP1 SLOAD SWAP1 PUSH2 0x100 EXP SWAP1 DIV PUSH1 0xFF AND DUP2 JUMP JUMPDEST PUSH0 PUSH1 0x10 PUSH1 0x14 SWAP1 SLOAD SWAP1 PUSH2 0x100 EXP SWAP1 DIV PUSH1 0xFF AND SWAP1 POP SWAP1 JUMP JUMPDEST PUSH1 0xD PUSH0 SWAP1 SLOAD SWAP1 PUSH2 0x100 EXP SWAP1 DIV PUSH1 0x60 SHL DUP2 JUMP JUMPDEST PUSH1 0x3 PUSH0 SWAP1 SLOAD SWAP1 PUSH2 0x100 EXP SWAP1 DIV PUSH0 SIGNEXTEND DUP2 JUMP JUMPDEST PUSH1 0x10 PUSH0 SWAP1 SLOAD SWAP1 PUSH2 0x100 EXP SWAP1 DIV PUSH20 0xFFFFFFFFFFFFFFFFFFFFFFFFFFFFFFFFFFFFFFFF AND DUP2 JUMP JUMPDEST PUSH1 0x6 DUP1 SLOAD PUSH2 0x2DE SWAP1 PUSH2 0x64E JUMP JUMPDEST DUP1 PUSH1 0x1F ADD PUSH1 0x20 DUP1 SWAP2 DIV MUL PUSH1 0x20 ADD PUSH1 0x40 MLOAD SWAP1 DUP2 ADD PUSH1 0x40 MSTORE DUP1 SWAP3 SWAP2 SWAP1 DUP2 DUP2 MSTORE PUSH1 0x20 ADD DUP3 DUP1 SLOAD PUSH2 0x30A SWAP1 PUSH2 0x64E JUMP JUMPDEST DUP1 ISZERO PUSH2 0x355 JUMPI DUP1 PUSH1 0x1F LT PUSH2 0x32C JUMPI PUSH2 0x100 DUP1 DUP4 SLOAD DIV MUL DUP4 MSTORE SWAP2 PUSH1 0x20 ADD SWAP2 PUSH2 0x355 JUMP JUMPDEST DUP3 ADD SWAP2 SWAP1 PUSH0 MSTORE PUSH1 0x20 PUSH0 KECCAK256 SWAP1 JUMPDEST DUP2 SLOAD DUP2 MSTORE SWAP1 PUSH1 0x1 ADD SWAP1 PUSH1 0x20 ADD DUP1 DUP4 GT PUSH2 0x338 JUMPI DUP3 SWAP1 SUB PUSH1 0x1F AND DUP3 ADD SWAP2 JUMPDEST POP POP POP POP POP DUP2 JUMP JUMPDEST PUSH0 PUSH1 0x10 PUSH1 0x14 PUSH2 0x100 EXP DUP2 SLOAD DUP2 PUSH1 0xFF MUL NOT AND SWAP1 DUP4 PUSH1 0x1 DUP2 GT ISZERO PUSH2 0x382 JUMPI PUSH2 0x381 PUSH2 0x47F JUMP JUMPDEST JUMPDEST MUL OR SWAP1 SSTORE POP JUMP JUMPDEST PUSH1 0xC SLOAD DUP2 JUMP JUMPDEST PUSH0 DUP2 SWAP1 POP SWAP2 SWAP1 POP JUMP JUMPDEST PUSH2 0x3A1 DUP2 PUSH2 0x38F JUMP JUMPDEST DUP3 MSTORE POP POP JUMP JUMPDEST PUSH0 PUSH1 0x20 DUP3 ADD SWAP1 POP PUSH2 0x3BA PUSH0 DUP4 ADD DUP5 PUSH2 0x398 JUMP JUMPDEST SWAP3 SWAP2 POP POP JUMP JUMPDEST PUSH0 DUP2 ISZERO ISZERO SWAP1 POP SWAP2 SWAP1 POP JUMP JUMPDEST PUSH2 0x3D4 DUP2 PUSH2 0x3C0 JUMP JUMPDEST DUP3 MSTORE POP POP JUMP JUMPDEST PUSH0 PUSH1 0x20 DUP3 ADD SWAP1 POP PUSH2 0x3ED PUSH0 DUP4 ADD DUP5 PUSH2 0x3CB JUMP JUMPDEST SWAP3 SWAP2 POP POP JUMP JUMPDEST PUSH0 PUSH20 0xFFFFFFFFFFFFFFFFFFFFFFFFFFFFFFFFFFFFFFFF DUP3 AND SWAP1 POP SWAP2 SWAP1 POP JUMP JUMPDEST PUSH0 PUSH2 0x41C DUP3 PUSH2 0x3F3 JUMP JUMPDEST SWAP1 POP SWAP2 SWAP1 POP JUMP JUMPDEST PUSH2 0x42C DUP2 PUSH2 0x412 JUMP JUMPDEST DUP3 MSTORE POP POP JUMP JUMPDEST PUSH0 PUSH1 0x20 DUP3 ADD SWAP1 POP PUSH2 0x445 PUSH0 DUP4 ADD DUP5 PUSH2 0x423 JUMP JUMPDEST SWAP3 SWAP2 POP POP JUMP JUMPDEST PUSH0 PUSH1 0xFF DUP3 AND SWAP1 POP SWAP2 SWAP1 POP JUMP JUMPDEST PUSH2 0x460 DUP2 PUSH2 0x44B JUMP JUMPDEST DUP3 MSTORE POP POP JUMP JUMPDEST PUSH0 PUSH1 0x20 DUP3 ADD SWAP1 POP PUSH2 0x479 PUSH0 DUP4 ADD DUP5 PUSH2 0x457 JUMP JUMPDEST SWAP3 SWAP2 POP POP JUMP JUMPDEST PUSH32 0x4E487B7100000000000000000000000000000000000000000000000000000000 PUSH0 MSTORE PUSH1 0x21 PUSH1 0x4 MSTORE PUSH1 0x24 PUSH0 REVERT JUMPDEST PUSH1 0x2 DUP2 LT PUSH2 0x4BD JUMPI PUSH2 0x4BC PUSH2 0x47F JUMP JUMPDEST JUMPDEST POP JUMP JUMPDEST PUSH0 DUP2 SWAP1 POP PUSH2 0x4CD DUP3 PUSH2 0x4AC JUMP JUMPDEST SWAP2 SWAP1 POP JUMP JUMPDEST PUSH0 PUSH2 0x4DC DUP3 PUSH2 0x4C0 JUMP JUMPDEST SWAP1 POP SWAP2 SWAP1 POP JUMP JUMPDEST PUSH2 0x4EC DUP2 PUSH2 0x4D2 JUMP JUMPDEST DUP3 MSTORE POP POP JUMP JUMPDEST PUSH0 PUSH1 0x20 DUP3 ADD SWAP1 POP PUSH2 0x505 PUSH0 DUP4 ADD DUP5 PUSH2 0x4E3 JUMP JUMPDEST SWAP3 SWAP2 POP POP JUMP JUMPDEST PUSH0 PUSH32 0xFFFFFFFFFFFFFFFFFFFFFFFFFFFFFFFFFFFFFFFF000000000000000000000000 DUP3 AND SWAP1 POP SWAP2 SWAP1 POP JUMP JUMPDEST PUSH2 0x53F DUP2 PUSH2 0x50B JUMP JUMPDEST DUP3 MSTORE POP POP JUMP JUMPDEST PUSH0 PUSH1 0x20 DUP3 ADD SWAP1 POP PUSH2 0x558 PUSH0 DUP4 ADD DUP5 PUSH2 0x536 JUMP JUMPDEST SWAP3 SWAP2 POP POP JUMP JUMPDEST PUSH0 DUP2 PUSH0 SIGNEXTEND SWAP1 POP SWAP2 SWAP1 POP JUMP JUMPDEST PUSH2 0x572 DUP2 PUSH2 0x55E JUMP JUMPDEST DUP3 MSTORE POP POP JUMP JUMPDEST PUSH0 PUSH1 0x20 DUP3 ADD SWAP1 POP PUSH2 0x58B PUSH0 DUP4 ADD DUP5 PUSH2 0x569 JUMP JUMPDEST SWAP3 SWAP2 POP POP JUMP JUMPDEST PUSH0 DUP2 MLOAD SWAP1 POP SWAP2 SWAP1 POP JUMP JUMPDEST PUSH0 DUP3 DUP3 MSTORE PUSH1 0x20 DUP3 ADD SWAP1 POP SWAP3 SWAP2 POP POP JUMP JUMPDEST DUP3 DUP2 DUP4 MCOPY PUSH0 DUP4 DUP4 ADD MSTORE POP POP POP JUMP JUMPDEST PUSH0 PUSH1 0x1F NOT PUSH1 0x1F DUP4 ADD AND SWAP1 POP SWAP2 SWAP1 POP JUMP JUMPDEST PUSH0 PUSH2 0x5D3 DUP3 PUSH2 0x591 JUMP JUMPDEST PUSH2 0x5DD DUP2 DUP6 PUSH2 0x59B JUMP JUMPDEST SWAP4 POP PUSH2 0x5ED DUP2 DUP6 PUSH1 0x20 DUP7 ADD PUSH2 0x5AB JUMP JUMPDEST PUSH2 0x5F6 DUP2 PUSH2 0x5B9 JUMP JUMPDEST DUP5 ADD SWAP2 POP POP SWAP3 SWAP2 POP POP JUMP JUMPDEST PUSH0 PUSH1 0x20 DUP3 ADD SWAP1 POP DUP2 DUP2 SUB PUSH0 DUP4 ADD MSTORE PUSH2 0x619 DUP2 DUP5 PUSH2 0x5C9 JUMP JUMPDEST SWAP1 POP SWAP3 SWAP2 POP POP JUMP JUMPDEST PUSH32 0x4E487B7100000000000000000000000000000000000000000000000000000000 PUSH0 MSTORE PUSH1 0x22 PUSH1 0x4 MSTORE PUSH1 0x24 PUSH0 REVERT JUMPDEST PUSH0 PUSH1 0x2 DUP3 DIV SWAP1 POP PUSH1 0x1 DUP3 AND DUP1 PUSH2 0x665 JUMPI PUSH1 0x7F DUP3 AND SWAP2 POP JUMPDEST PUSH1 0x20 DUP3 LT DUP2 SUB PUSH2 0x678 JUMPI PUSH2 0x677 PUSH2 0x621 JUMP JUMPDEST JUMPDEST POP SWAP2 SWAP1 POP JUMP INVALID LOG2 PUSH5 0x6970667358 0x22 SLT KECCAK256 0x4D 0xAE DUP3 PUSH8 0x919126ACB07CC967 MCOPY PC PUSH26 0x9FE0211AE7CF674AB59DDBD3F8F019F33C64736F6C634300081A STOP CALLER "
				},
				"gasEstimates": {
					"creation": {
						"codeDepositCost": "343200",
						"executionCost": "infinite",
						"totalCost": "infinite"
					},
					"external": {
						"address1()": "2553",
						"address2()": "2552",
						"b()": "2555",
						"boolean_true()": "2540",
						"d()": "2490",
						"displayState()": "2723",
						"hashing_keccak256()": "2426",
						"hashing_ripemd160()": "2466",
						"hashing_sha256()": "2535",
						"str_public()": "infinite",
						"tunroOff()": "24547",
						"turnOn()": "24567"
					}
				},
				"methodIdentifiers": {
					"address1()": "3a36399e",
					"address2()": "9eea4a3a",
					"b()": "4df7e3d0",
					"boolean_true()": "312eef29",
					"d()": "8a054ac2",
					"displayState()": "7272eea1",
					"hashing_keccak256()": "2b73648d",
					"hashing_ripemd160()": "7a68ef7f",
					"hashing_sha256()": "c7109d04",
					"str_public()": "b83d07b7",
					"tunroOff()": "48460ce6",
					"turnOn()": "ba33ed7d"
				}
			},
			"storageLayout": {
				"storage": [
					{
						"astId": 3,
						"contract": "contracts/1_primeros_pasos.sol:variables_modifiers",
						"label": "a",
						"offset": 0,
						"slot": "0",
						"type": "t_uint256"
					},
					{
						"astId": 6,
						"contract": "contracts/1_primeros_pasos.sol:variables_modifiers",
						"label": "b",
						"offset": 0,
						"slot": "1",
						"type": "t_uint8"
					},
					{
						"astId": 8,
						"contract": "contracts/1_primeros_pasos.sol:variables_modifiers",
						"label": "c",
						"offset": 0,
						"slot": "2",
						"type": "t_int256"
					},
					{
						"astId": 12,
						"contract": "contracts/1_primeros_pasos.sol:variables_modifiers",
						"label": "d",
						"offset": 0,
						"slot": "3",
						"type": "t_int8"
					},
					{
						"astId": 15,
						"contract": "contracts/1_primeros_pasos.sol:variables_modifiers",
						"label": "e",
						"offset": 0,
						"slot": "4",
						"type": "t_int256"
					},
					{
						"astId": 17,
						"contract": "contracts/1_primeros_pasos.sol:variables_modifiers",
						"label": "str",
						"offset": 0,
						"slot": "5",
						"type": "t_string_storage"
					},
					{
						"astId": 20,
						"contract": "contracts/1_primeros_pasos.sol:variables_modifiers",
						"label": "str_public",
						"offset": 0,
						"slot": "6",
						"type": "t_string_storage"
					},
					{
						"astId": 23,
						"contract": "contracts/1_primeros_pasos.sol:variables_modifiers",
						"label": "str_private",
						"offset": 0,
						"slot": "7",
						"type": "t_string_storage"
					},
					{
						"astId": 25,
						"contract": "contracts/1_primeros_pasos.sol:variables_modifiers",
						"label": "boolean",
						"offset": 0,
						"slot": "8",
						"type": "t_bool"
					},
					{
						"astId": 28,
						"contract": "contracts/1_primeros_pasos.sol:variables_modifiers",
						"label": "boolean_true",
						"offset": 1,
						"slot": "8",
						"type": "t_bool"
					},
					{
						"astId": 31,
						"contract": "contracts/1_primeros_pasos.sol:variables_modifiers",
						"label": "boolean_false",
						"offset": 2,
						"slot": "8",
						"type": "t_bool"
					},
					{
						"astId": 33,
						"contract": "contracts/1_primeros_pasos.sol:variables_modifiers",
						"label": "first_bytes",
						"offset": 0,
						"slot": "9",
						"type": "t_bytes32"
					},
					{
						"astId": 35,
						"contract": "contracts/1_primeros_pasos.sol:variables_modifiers",
						"label": "second_bytes",
						"offset": 0,
						"slot": "10",
						"type": "t_bytes4"
					},
					{
						"astId": 37,
						"contract": "contracts/1_primeros_pasos.sol:variables_modifiers",
						"label": "byte_1",
						"offset": 4,
						"slot": "10",
						"type": "t_bytes1"
					},
					{
						"astId": 51,
						"contract": "contracts/1_primeros_pasos.sol:variables_modifiers",
						"label": "hashing_keccak256",
						"offset": 0,
						"slot": "11",
						"type": "t_bytes32"
					},
					{
						"astId": 59,
						"contract": "contracts/1_primeros_pasos.sol:variables_modifiers",
						"label": "hashing_sha256",
						"offset": 0,
						"slot": "12",
						"type": "t_bytes32"
					},
					{
						"astId": 67,
						"contract": "contracts/1_primeros_pasos.sol:variables_modifiers",
						"label": "hashing_ripemd160",
						"offset": 0,
						"slot": "13",
						"type": "t_bytes20"
					},
					{
						"astId": 69,
						"contract": "contracts/1_primeros_pasos.sol:variables_modifiers",
						"label": "my_adress",
						"offset": 0,
						"slot": "14",
						"type": "t_address"
					},
					{
						"astId": 72,
						"contract": "contracts/1_primeros_pasos.sol:variables_modifiers",
						"label": "address1",
						"offset": 0,
						"slot": "15",
						"type": "t_address"
					},
					{
						"astId": 76,
						"contract": "contracts/1_primeros_pasos.sol:variables_modifiers",
						"label": "address2",
						"offset": 0,
						"slot": "16",
						"type": "t_address"
					},
					{
						"astId": 82,
						"contract": "contracts/1_primeros_pasos.sol:variables_modifiers",
						"label": "state",
						"offset": 20,
						"slot": "16",
						"type": "t_enum(options)79"
					}
				],
				"types": {
					"t_address": {
						"encoding": "inplace",
						"label": "address",
						"numberOfBytes": "20"
					},
					"t_bool": {
						"encoding": "inplace",
						"label": "bool",
						"numberOfBytes": "1"
					},
					"t_bytes1": {
						"encoding": "inplace",
						"label": "bytes1",
						"numberOfBytes": "1"
					},
					"t_bytes20": {
						"encoding": "inplace",
						"label": "bytes20",
						"numberOfBytes": "20"
					},
					"t_bytes32": {
						"encoding": "inplace",
						"label": "bytes32",
						"numberOfBytes": "32"
					},
					"t_bytes4": {
						"encoding": "inplace",
						"label": "bytes4",
						"numberOfBytes": "4"
					},
					"t_enum(options)79": {
						"encoding": "inplace",
						"label": "enum variables_modifiers.options",
						"numberOfBytes": "1"
					},
					"t_int256": {
						"encoding": "inplace",
						"label": "int256",
						"numberOfBytes": "32"
					},
					"t_int8": {
						"encoding": "inplace",
						"label": "int8",
						"numberOfBytes": "1"
					},
					"t_string_storage": {
						"encoding": "bytes",
						"label": "string",
						"numberOfBytes": "32"
					},
					"t_uint256": {
						"encoding": "inplace",
						"label": "uint256",
						"numberOfBytes": "32"
					},
					"t_uint8": {
						"encoding": "inplace",
						"label": "uint8",
						"numberOfBytes": "1"
					}
				}
			},
			"userdoc": {
				"kind": "user",
				"methods": {},
				"version": 1
			}
		}
	}
}