{
	"contracts/5_payable.sol": {
		"ethSend": {
			"abi": [
				{
					"inputs": [],
					"stateMutability": "payable",
					"type": "constructor"
				},
				{
					"anonymous": false,
					"inputs": [
						{
							"indexed": false,
							"internalType": "bool",
							"name": "",
							"type": "bool"
						},
						{
							"indexed": false,
							"internalType": "bytes",
							"name": "",
							"type": "bytes"
						}
					],
					"name": "callStatus",
					"type": "event"
				},
				{
					"anonymous": false,
					"inputs": [
						{
							"indexed": false,
							"internalType": "bool",
							"name": "",
							"type": "bool"
						}
					],
					"name": "sendStatus",
					"type": "event"
				},
				{
					"inputs": [
						{
							"internalType": "address payable",
							"name": "_to",
							"type": "address"
						}
					],
					"name": "sendViaCall",
					"outputs": [],
					"stateMutability": "payable",
					"type": "function"
				},
				{
					"inputs": [
						{
							"internalType": "address payable",
							"name": "_to",
							"type": "address"
						}
					],
					"name": "sendViaSend",
					"outputs": [],
					"stateMutability": "payable",
					"type": "function"
				},
				{
					"inputs": [
						{
							"internalType": "address payable",
							"name": "_to",
							"type": "address"
						}
					],
					"name": "sendViaTansfer",
					"outputs": [],
					"stateMutability": "payable",
					"type": "function"
				},
				{
					"stateMutability": "payable",
					"type": "receive"
				}
			],
			"devdoc": {
				"kind": "dev",
				"methods": {},
				"version": 1
			},
			"evm": {
				"assembly": "    /* \"contracts/5_payable.sol\":60:815  contract ethSend {... */\n  mstore(0x40, 0x80)\n  dataSize(sub_0)\n  dup1\n  dataOffset(sub_0)\n  0x00\n  codecopy\n  0x00\n  return\nstop\n\nsub_0: assembly {\n        /* \"contracts/5_payable.sol\":60:815  contract ethSend {... */\n      mstore(0x40, 0x80)\n      jumpi(tag_1, lt(calldatasize, 0x04))\n      shr(0xe0, calldataload(0x00))\n      dup1\n      0x74be4806\n      eq\n      tag_3\n      jumpi\n      dup1\n      0x830c29ae\n      eq\n      tag_4\n      jumpi\n      dup1\n      0xfca303b1\n      eq\n      tag_5\n      jumpi\n      jump(tag_2)\n    tag_1:\n      jumpi(tag_2, calldatasize)\n      stop\n    tag_2:\n      0x00\n      dup1\n      revert\n        /* \"contracts/5_payable.sol\":372:566  function sendViaSend(address payable _to) public payable {... */\n    tag_3:\n      tag_8\n      0x04\n      dup1\n      calldatasize\n      sub\n      dup2\n      add\n      swap1\n      tag_9\n      swap2\n      swap1\n      tag_10\n      jump\t// in\n    tag_9:\n      tag_11\n      jump\t// in\n    tag_8:\n      stop\n        /* \"contracts/5_payable.sol\":574:810  function sendViaCall(address payable _to) public payable {... */\n    tag_4:\n      tag_12\n      0x04\n      dup1\n      calldatasize\n      sub\n      dup2\n      add\n      swap1\n      tag_13\n      swap2\n      swap1\n      tag_10\n      jump\t// in\n    tag_13:\n      tag_14\n      jump\t// in\n    tag_12:\n      stop\n        /* \"contracts/5_payable.sol\":251:351  function sendViaTansfer(address payable _to) public payable {... */\n    tag_5:\n      tag_15\n      0x04\n      dup1\n      calldatasize\n      sub\n      dup2\n      add\n      swap1\n      tag_16\n      swap2\n      swap1\n      tag_10\n      jump\t// in\n    tag_16:\n      tag_17\n      jump\t// in\n    tag_15:\n      stop\n        /* \"contracts/5_payable.sol\":372:566  function sendViaSend(address payable _to) public payable {... */\n    tag_11:\n        /* \"contracts/5_payable.sol\":440:449  bool sent */\n      0x00\n        /* \"contracts/5_payable.sol\":452:455  _to */\n      dup2\n        /* \"contracts/5_payable.sol\":452:460  _to.send */\n      0xffffffffffffffffffffffffffffffffffffffff\n      and\n        /* \"contracts/5_payable.sol\":452:469  _to.send(1 ether) */\n      0x08fc\n        /* \"contracts/5_payable.sol\":461:468  1 ether */\n      0x0de0b6b3a7640000\n        /* \"contracts/5_payable.sol\":452:469  _to.send(1 ether) */\n      swap1\n      dup2\n      iszero\n      mul\n      swap1\n      mload(0x40)\n      0x00\n      mload(0x40)\n      dup1\n      dup4\n      sub\n      dup2\n      dup6\n      dup9\n      dup9\n      call\n      swap4\n      pop\n      pop\n      pop\n      pop\n        /* \"contracts/5_payable.sol\":440:469  bool sent = _to.send(1 ether) */\n      swap1\n      pop\n        /* \"contracts/5_payable.sol\":485:503  sendStatus((sent)) */\n      0x0c46a72a145bed1fc3c2d4b0e023bd11ddb1e3204a898f4119357ecde6d5fe99\n        /* \"contracts/5_payable.sol\":497:501  sent */\n      dup2\n        /* \"contracts/5_payable.sol\":485:503  sendStatus((sent)) */\n      mload(0x40)\n      tag_20\n      swap2\n      swap1\n      tag_21\n      jump\t// in\n    tag_20:\n      mload(0x40)\n      dup1\n      swap2\n      sub\n      swap1\n      log1\n        /* \"contracts/5_payable.sol\":530:534  true */\n      0x01\n        /* \"contracts/5_payable.sol\":522:534  sent == true */\n      iszero\n      iszero\n        /* \"contracts/5_payable.sol\":522:526  sent */\n      dup2\n        /* \"contracts/5_payable.sol\":522:534  sent == true */\n      iszero\n      iszero\n      eq\n        /* \"contracts/5_payable.sol\":514:558  require(sent == true, \"El envio ha fallado\") */\n      tag_22\n      jumpi\n      mload(0x40)\n      0x08c379a000000000000000000000000000000000000000000000000000000000\n      dup2\n      mstore\n      0x04\n      add\n      tag_23\n      swap1\n      tag_24\n      jump\t// in\n    tag_23:\n      mload(0x40)\n      dup1\n      swap2\n      sub\n      swap1\n      revert\n    tag_22:\n        /* \"contracts/5_payable.sol\":429:566  {... */\n      pop\n        /* \"contracts/5_payable.sol\":372:566  function sendViaSend(address payable _to) public payable {... */\n      pop\n      jump\t// out\n        /* \"contracts/5_payable.sol\":574:810  function sendViaCall(address payable _to) public payable {... */\n    tag_14:\n        /* \"contracts/5_payable.sol\":643:654  bool succes */\n      0x00\n        /* \"contracts/5_payable.sol\":656:673  bytes memory data */\n      dup1\n        /* \"contracts/5_payable.sol\":677:680  _to */\n      dup3\n        /* \"contracts/5_payable.sol\":677:685  _to.call */\n      0xffffffffffffffffffffffffffffffffffffffff\n      and\n        /* \"contracts/5_payable.sol\":693:700  1 ether */\n      0x0de0b6b3a7640000\n        /* \"contracts/5_payable.sol\":677:705  _to.call{value: 1 ether}(\"\") */\n      mload(0x40)\n      tag_26\n      swap1\n      tag_27\n      jump\t// in\n    tag_26:\n      0x00\n      mload(0x40)\n      dup1\n      dup4\n      sub\n      dup2\n      dup6\n      dup8\n      gas\n      call\n      swap3\n      pop\n      pop\n      pop\n      returndatasize\n      dup1\n      0x00\n      dup2\n      eq\n      tag_30\n      jumpi\n      mload(0x40)\n      swap2\n      pop\n      and(add(returndatasize, 0x3f), not(0x1f))\n      dup3\n      add\n      0x40\n      mstore\n      returndatasize\n      dup3\n      mstore\n      returndatasize\n      0x00\n      0x20\n      dup5\n      add\n      returndatacopy\n      jump(tag_29)\n    tag_30:\n      0x60\n      swap2\n      pop\n    tag_29:\n      pop\n        /* \"contracts/5_payable.sol\":642:705  (bool succes, bytes memory data) = _to.call{value: 1 ether}(\"\") */\n      swap2\n      pop\n      swap2\n      pop\n        /* \"contracts/5_payable.sol\":721:745  callStatus(succes, data) */\n      0x265b43034d55cb12c6ef2185c7789690588a255cd2822a7b2776748ead4b3203\n        /* \"contracts/5_payable.sol\":732:738  succes */\n      dup3\n        /* \"contracts/5_payable.sol\":740:744  data */\n      dup3\n        /* \"contracts/5_payable.sol\":721:745  callStatus(succes, data) */\n      mload(0x40)\n      tag_31\n      swap3\n      swap2\n      swap1\n      tag_32\n      jump\t// in\n    tag_31:\n      mload(0x40)\n      dup1\n      swap2\n      sub\n      swap1\n      log1\n        /* \"contracts/5_payable.sol\":774:778  true */\n      0x01\n        /* \"contracts/5_payable.sol\":764:778  succes == true */\n      iszero\n      iszero\n        /* \"contracts/5_payable.sol\":764:770  succes */\n      dup3\n        /* \"contracts/5_payable.sol\":764:778  succes == true */\n      iszero\n      iszero\n      eq\n        /* \"contracts/5_payable.sol\":756:802  require(succes == true, \"el envio ha fallado\") */\n      tag_33\n      jumpi\n      mload(0x40)\n      0x08c379a000000000000000000000000000000000000000000000000000000000\n      dup2\n      mstore\n      0x04\n      add\n      tag_34\n      swap1\n      tag_35\n      jump\t// in\n    tag_34:\n      mload(0x40)\n      dup1\n      swap2\n      sub\n      swap1\n      revert\n    tag_33:\n        /* \"contracts/5_payable.sol\":631:810  {... */\n      pop\n      pop\n        /* \"contracts/5_payable.sol\":574:810  function sendViaCall(address payable _to) public payable {... */\n      pop\n      jump\t// out\n        /* \"contracts/5_payable.sol\":251:351  function sendViaTansfer(address payable _to) public payable {... */\n    tag_17:\n        /* \"contracts/5_payable.sol\":322:325  _to */\n      dup1\n        /* \"contracts/5_payable.sol\":322:334  _to.transfer */\n      0xffffffffffffffffffffffffffffffffffffffff\n      and\n        /* \"contracts/5_payable.sol\":322:343  _to.transfer(1 ether) */\n      0x08fc\n        /* \"contracts/5_payable.sol\":335:342  1 ether */\n      0x0de0b6b3a7640000\n        /* \"contracts/5_payable.sol\":322:343  _to.transfer(1 ether) */\n      swap1\n      dup2\n      iszero\n      mul\n      swap1\n      mload(0x40)\n      0x00\n      mload(0x40)\n      dup1\n      dup4\n      sub\n      dup2\n      dup6\n      dup9\n      dup9\n      call\n      swap4\n      pop\n      pop\n      pop\n      pop\n      iszero\n      dup1\n      iszero\n      tag_38\n      jumpi\n      returndatasize\n      0x00\n      dup1\n      returndatacopy\n      revert(0x00, returndatasize)\n    tag_38:\n      pop\n        /* \"contracts/5_payable.sol\":251:351  function sendViaTansfer(address payable _to) public payable {... */\n      pop\n      jump\t// out\n        /* \"#utility.yul\":88:205   */\n    tag_40:\n        /* \"#utility.yul\":197:198   */\n      0x00\n        /* \"#utility.yul\":194:195   */\n      dup1\n        /* \"#utility.yul\":187:199   */\n      revert\n        /* \"#utility.yul\":334:460   */\n    tag_42:\n        /* \"#utility.yul\":371:378   */\n      0x00\n        /* \"#utility.yul\":411:453   */\n      0xffffffffffffffffffffffffffffffffffffffff\n        /* \"#utility.yul\":404:409   */\n      dup3\n        /* \"#utility.yul\":400:454   */\n      and\n        /* \"#utility.yul\":389:454   */\n      swap1\n      pop\n        /* \"#utility.yul\":334:460   */\n      swap2\n      swap1\n      pop\n      jump\t// out\n        /* \"#utility.yul\":466:570   */\n    tag_43:\n        /* \"#utility.yul\":511:518   */\n      0x00\n        /* \"#utility.yul\":540:564   */\n      tag_67\n        /* \"#utility.yul\":558:563   */\n      dup3\n        /* \"#utility.yul\":540:564   */\n      tag_42\n      jump\t// in\n    tag_67:\n        /* \"#utility.yul\":529:564   */\n      swap1\n      pop\n        /* \"#utility.yul\":466:570   */\n      swap2\n      swap1\n      pop\n      jump\t// out\n        /* \"#utility.yul\":576:714   */\n    tag_44:\n        /* \"#utility.yul\":657:689   */\n      tag_69\n        /* \"#utility.yul\":683:688   */\n      dup2\n        /* \"#utility.yul\":657:689   */\n      tag_43\n      jump\t// in\n    tag_69:\n        /* \"#utility.yul\":650:655   */\n      dup2\n        /* \"#utility.yul\":647:690   */\n      eq\n        /* \"#utility.yul\":637:708   */\n      tag_70\n      jumpi\n        /* \"#utility.yul\":704:705   */\n      0x00\n        /* \"#utility.yul\":701:702   */\n      dup1\n        /* \"#utility.yul\":694:706   */\n      revert\n        /* \"#utility.yul\":637:708   */\n    tag_70:\n        /* \"#utility.yul\":576:714   */\n      pop\n      jump\t// out\n        /* \"#utility.yul\":720:875   */\n    tag_45:\n        /* \"#utility.yul\":774:779   */\n      0x00\n        /* \"#utility.yul\":812:818   */\n      dup2\n        /* \"#utility.yul\":799:819   */\n      calldataload\n        /* \"#utility.yul\":790:819   */\n      swap1\n      pop\n        /* \"#utility.yul\":828:869   */\n      tag_72\n        /* \"#utility.yul\":863:868   */\n      dup2\n        /* \"#utility.yul\":828:869   */\n      tag_44\n      jump\t// in\n    tag_72:\n        /* \"#utility.yul\":720:875   */\n      swap3\n      swap2\n      pop\n      pop\n      jump\t// out\n        /* \"#utility.yul\":881:1226   */\n    tag_10:\n        /* \"#utility.yul\":948:954   */\n      0x00\n        /* \"#utility.yul\":997:999   */\n      0x20\n        /* \"#utility.yul\":985:994   */\n      dup3\n        /* \"#utility.yul\":976:983   */\n      dup5\n        /* \"#utility.yul\":972:995   */\n      sub\n        /* \"#utility.yul\":968:1000   */\n      slt\n        /* \"#utility.yul\":965:1084   */\n      iszero\n      tag_74\n      jumpi\n        /* \"#utility.yul\":1003:1082   */\n      tag_75\n      tag_40\n      jump\t// in\n    tag_75:\n        /* \"#utility.yul\":965:1084   */\n    tag_74:\n        /* \"#utility.yul\":1123:1124   */\n      0x00\n        /* \"#utility.yul\":1148:1209   */\n      tag_76\n        /* \"#utility.yul\":1201:1208   */\n      dup5\n        /* \"#utility.yul\":1192:1198   */\n      dup3\n        /* \"#utility.yul\":1181:1190   */\n      dup6\n        /* \"#utility.yul\":1177:1199   */\n      add\n        /* \"#utility.yul\":1148:1209   */\n      tag_45\n      jump\t// in\n    tag_76:\n        /* \"#utility.yul\":1138:1209   */\n      swap2\n      pop\n        /* \"#utility.yul\":1094:1219   */\n      pop\n        /* \"#utility.yul\":881:1226   */\n      swap3\n      swap2\n      pop\n      pop\n      jump\t// out\n        /* \"#utility.yul\":1232:1322   */\n    tag_46:\n        /* \"#utility.yul\":1266:1273   */\n      0x00\n        /* \"#utility.yul\":1309:1314   */\n      dup2\n        /* \"#utility.yul\":1302:1315   */\n      iszero\n        /* \"#utility.yul\":1295:1316   */\n      iszero\n        /* \"#utility.yul\":1284:1316   */\n      swap1\n      pop\n        /* \"#utility.yul\":1232:1322   */\n      swap2\n      swap1\n      pop\n      jump\t// out\n        /* \"#utility.yul\":1328:1437   */\n    tag_47:\n        /* \"#utility.yul\":1409:1430   */\n      tag_79\n        /* \"#utility.yul\":1424:1429   */\n      dup2\n        /* \"#utility.yul\":1409:1430   */\n      tag_46\n      jump\t// in\n    tag_79:\n        /* \"#utility.yul\":1404:1407   */\n      dup3\n        /* \"#utility.yul\":1397:1431   */\n      mstore\n        /* \"#utility.yul\":1328:1437   */\n      pop\n      pop\n      jump\t// out\n        /* \"#utility.yul\":1443:1653   */\n    tag_21:\n        /* \"#utility.yul\":1530:1534   */\n      0x00\n        /* \"#utility.yul\":1568:1570   */\n      0x20\n        /* \"#utility.yul\":1557:1566   */\n      dup3\n        /* \"#utility.yul\":1553:1571   */\n      add\n        /* \"#utility.yul\":1545:1571   */\n      swap1\n      pop\n        /* \"#utility.yul\":1581:1646   */\n      tag_81\n        /* \"#utility.yul\":1643:1644   */\n      0x00\n        /* \"#utility.yul\":1632:1641   */\n      dup4\n        /* \"#utility.yul\":1628:1645   */\n      add\n        /* \"#utility.yul\":1619:1625   */\n      dup5\n        /* \"#utility.yul\":1581:1646   */\n      tag_47\n      jump\t// in\n    tag_81:\n        /* \"#utility.yul\":1443:1653   */\n      swap3\n      swap2\n      pop\n      pop\n      jump\t// out\n        /* \"#utility.yul\":1659:1828   */\n    tag_48:\n        /* \"#utility.yul\":1743:1754   */\n      0x00\n        /* \"#utility.yul\":1777:1783   */\n      dup3\n        /* \"#utility.yul\":1772:1775   */\n      dup3\n        /* \"#utility.yul\":1765:1784   */\n      mstore\n        /* \"#utility.yul\":1817:1821   */\n      0x20\n        /* \"#utility.yul\":1812:1815   */\n      dup3\n        /* \"#utility.yul\":1808:1822   */\n      add\n        /* \"#utility.yul\":1793:1822   */\n      swap1\n      pop\n        /* \"#utility.yul\":1659:1828   */\n      swap3\n      swap2\n      pop\n      pop\n      jump\t// out\n        /* \"#utility.yul\":1834:2003   */\n    tag_49:\n        /* \"#utility.yul\":1974:1995   */\n      0x456c20656e76696f2068612066616c6c61646f00000000000000000000000000\n        /* \"#utility.yul\":1970:1971   */\n      0x00\n        /* \"#utility.yul\":1962:1968   */\n      dup3\n        /* \"#utility.yul\":1958:1972   */\n      add\n        /* \"#utility.yul\":1951:1996   */\n      mstore\n        /* \"#utility.yul\":1834:2003   */\n      pop\n      jump\t// out\n        /* \"#utility.yul\":2009:2375   */\n    tag_50:\n        /* \"#utility.yul\":2151:2154   */\n      0x00\n        /* \"#utility.yul\":2172:2239   */\n      tag_85\n        /* \"#utility.yul\":2236:2238   */\n      0x13\n        /* \"#utility.yul\":2231:2234   */\n      dup4\n        /* \"#utility.yul\":2172:2239   */\n      tag_48\n      jump\t// in\n    tag_85:\n        /* \"#utility.yul\":2165:2239   */\n      swap2\n      pop\n        /* \"#utility.yul\":2248:2341   */\n      tag_86\n        /* \"#utility.yul\":2337:2340   */\n      dup3\n        /* \"#utility.yul\":2248:2341   */\n      tag_49\n      jump\t// in\n    tag_86:\n        /* \"#utility.yul\":2366:2368   */\n      0x20\n        /* \"#utility.yul\":2361:2364   */\n      dup3\n        /* \"#utility.yul\":2357:2369   */\n      add\n        /* \"#utility.yul\":2350:2369   */\n      swap1\n      pop\n        /* \"#utility.yul\":2009:2375   */\n      swap2\n      swap1\n      pop\n      jump\t// out\n        /* \"#utility.yul\":2381:2800   */\n    tag_24:\n        /* \"#utility.yul\":2547:2551   */\n      0x00\n        /* \"#utility.yul\":2585:2587   */\n      0x20\n        /* \"#utility.yul\":2574:2583   */\n      dup3\n        /* \"#utility.yul\":2570:2588   */\n      add\n        /* \"#utility.yul\":2562:2588   */\n      swap1\n      pop\n        /* \"#utility.yul\":2634:2643   */\n      dup2\n        /* \"#utility.yul\":2628:2632   */\n      dup2\n        /* \"#utility.yul\":2624:2644   */\n      sub\n        /* \"#utility.yul\":2620:2621   */\n      0x00\n        /* \"#utility.yul\":2609:2618   */\n      dup4\n        /* \"#utility.yul\":2605:2622   */\n      add\n        /* \"#utility.yul\":2598:2645   */\n      mstore\n        /* \"#utility.yul\":2662:2793   */\n      tag_88\n        /* \"#utility.yul\":2788:2792   */\n      dup2\n        /* \"#utility.yul\":2662:2793   */\n      tag_50\n      jump\t// in\n    tag_88:\n        /* \"#utility.yul\":2654:2793   */\n      swap1\n      pop\n        /* \"#utility.yul\":2381:2800   */\n      swap2\n      swap1\n      pop\n      jump\t// out\n        /* \"#utility.yul\":2806:2953   */\n    tag_51:\n        /* \"#utility.yul\":2907:2918   */\n      0x00\n        /* \"#utility.yul\":2944:2947   */\n      dup2\n        /* \"#utility.yul\":2929:2947   */\n      swap1\n      pop\n        /* \"#utility.yul\":2806:2953   */\n      swap3\n      swap2\n      pop\n      pop\n      jump\t// out\n        /* \"#utility.yul\":2959:3073   */\n    tag_52:\n      pop\n      jump\t// out\n        /* \"#utility.yul\":3079:3477   */\n    tag_53:\n        /* \"#utility.yul\":3238:3241   */\n      0x00\n        /* \"#utility.yul\":3259:3342   */\n      tag_92\n        /* \"#utility.yul\":3340:3341   */\n      0x00\n        /* \"#utility.yul\":3335:3338   */\n      dup4\n        /* \"#utility.yul\":3259:3342   */\n      tag_51\n      jump\t// in\n    tag_92:\n        /* \"#utility.yul\":3252:3342   */\n      swap2\n      pop\n        /* \"#utility.yul\":3351:3444   */\n      tag_93\n        /* \"#utility.yul\":3440:3443   */\n      dup3\n        /* \"#utility.yul\":3351:3444   */\n      tag_52\n      jump\t// in\n    tag_93:\n        /* \"#utility.yul\":3469:3470   */\n      0x00\n        /* \"#utility.yul\":3464:3467   */\n      dup3\n        /* \"#utility.yul\":3460:3471   */\n      add\n        /* \"#utility.yul\":3453:3471   */\n      swap1\n      pop\n        /* \"#utility.yul\":3079:3477   */\n      swap2\n      swap1\n      pop\n      jump\t// out\n        /* \"#utility.yul\":3483:3862   */\n    tag_27:\n        /* \"#utility.yul\":3667:3670   */\n      0x00\n        /* \"#utility.yul\":3689:3836   */\n      tag_95\n        /* \"#utility.yul\":3832:3835   */\n      dup3\n        /* \"#utility.yul\":3689:3836   */\n      tag_53\n      jump\t// in\n    tag_95:\n        /* \"#utility.yul\":3682:3836   */\n      swap2\n      pop\n        /* \"#utility.yul\":3853:3856   */\n      dup2\n        /* \"#utility.yul\":3846:3856   */\n      swap1\n      pop\n        /* \"#utility.yul\":3483:3862   */\n      swap2\n      swap1\n      pop\n      jump\t// out\n        /* \"#utility.yul\":3868:3966   */\n    tag_54:\n        /* \"#utility.yul\":3919:3925   */\n      0x00\n        /* \"#utility.yul\":3953:3958   */\n      dup2\n        /* \"#utility.yul\":3947:3959   */\n      mload\n        /* \"#utility.yul\":3937:3959   */\n      swap1\n      pop\n        /* \"#utility.yul\":3868:3966   */\n      swap2\n      swap1\n      pop\n      jump\t// out\n        /* \"#utility.yul\":3972:4140   */\n    tag_55:\n        /* \"#utility.yul\":4055:4066   */\n      0x00\n        /* \"#utility.yul\":4089:4095   */\n      dup3\n        /* \"#utility.yul\":4084:4087   */\n      dup3\n        /* \"#utility.yul\":4077:4096   */\n      mstore\n        /* \"#utility.yul\":4129:4133   */\n      0x20\n        /* \"#utility.yul\":4124:4127   */\n      dup3\n        /* \"#utility.yul\":4120:4134   */\n      add\n        /* \"#utility.yul\":4105:4134   */\n      swap1\n      pop\n        /* \"#utility.yul\":3972:4140   */\n      swap3\n      swap2\n      pop\n      pop\n      jump\t// out\n        /* \"#utility.yul\":4146:4285   */\n    tag_56:\n        /* \"#utility.yul\":4235:4241   */\n      dup3\n        /* \"#utility.yul\":4230:4233   */\n      dup2\n        /* \"#utility.yul\":4225:4228   */\n      dup4\n        /* \"#utility.yul\":4219:4242   */\n      mcopy\n        /* \"#utility.yul\":4276:4277   */\n      0x00\n        /* \"#utility.yul\":4267:4273   */\n      dup4\n        /* \"#utility.yul\":4262:4265   */\n      dup4\n        /* \"#utility.yul\":4258:4274   */\n      add\n        /* \"#utility.yul\":4251:4278   */\n      mstore\n        /* \"#utility.yul\":4146:4285   */\n      pop\n      pop\n      pop\n      jump\t// out\n        /* \"#utility.yul\":4291:4393   */\n    tag_57:\n        /* \"#utility.yul\":4332:4338   */\n      0x00\n        /* \"#utility.yul\":4383:4385   */\n      0x1f\n        /* \"#utility.yul\":4379:4386   */\n      not\n        /* \"#utility.yul\":4374:4376   */\n      0x1f\n        /* \"#utility.yul\":4367:4372   */\n      dup4\n        /* \"#utility.yul\":4363:4377   */\n      add\n        /* \"#utility.yul\":4359:4387   */\n      and\n        /* \"#utility.yul\":4349:4387   */\n      swap1\n      pop\n        /* \"#utility.yul\":4291:4393   */\n      swap2\n      swap1\n      pop\n      jump\t// out\n        /* \"#utility.yul\":4399:4772   */\n    tag_58:\n        /* \"#utility.yul\":4485:4488   */\n      0x00\n        /* \"#utility.yul\":4513:4551   */\n      tag_101\n        /* \"#utility.yul\":4545:4550   */\n      dup3\n        /* \"#utility.yul\":4513:4551   */\n      tag_54\n      jump\t// in\n    tag_101:\n        /* \"#utility.yul\":4567:4637   */\n      tag_102\n        /* \"#utility.yul\":4630:4636   */\n      dup2\n        /* \"#utility.yul\":4625:4628   */\n      dup6\n        /* \"#utility.yul\":4567:4637   */\n      tag_55\n      jump\t// in\n    tag_102:\n        /* \"#utility.yul\":4560:4637   */\n      swap4\n      pop\n        /* \"#utility.yul\":4646:4711   */\n      tag_103\n        /* \"#utility.yul\":4704:4710   */\n      dup2\n        /* \"#utility.yul\":4699:4702   */\n      dup6\n        /* \"#utility.yul\":4692:4696   */\n      0x20\n        /* \"#utility.yul\":4685:4690   */\n      dup7\n        /* \"#utility.yul\":4681:4697   */\n      add\n        /* \"#utility.yul\":4646:4711   */\n      tag_56\n      jump\t// in\n    tag_103:\n        /* \"#utility.yul\":4736:4765   */\n      tag_104\n        /* \"#utility.yul\":4758:4764   */\n      dup2\n        /* \"#utility.yul\":4736:4765   */\n      tag_57\n      jump\t// in\n    tag_104:\n        /* \"#utility.yul\":4731:4734   */\n      dup5\n        /* \"#utility.yul\":4727:4766   */\n      add\n        /* \"#utility.yul\":4720:4766   */\n      swap2\n      pop\n        /* \"#utility.yul\":4489:4772   */\n      pop\n        /* \"#utility.yul\":4399:4772   */\n      swap3\n      swap2\n      pop\n      pop\n      jump\t// out\n        /* \"#utility.yul\":4778:5185   */\n    tag_32:\n        /* \"#utility.yul\":4911:4915   */\n      0x00\n        /* \"#utility.yul\":4949:4951   */\n      0x40\n        /* \"#utility.yul\":4938:4947   */\n      dup3\n        /* \"#utility.yul\":4934:4952   */\n      add\n        /* \"#utility.yul\":4926:4952   */\n      swap1\n      pop\n        /* \"#utility.yul\":4962:5027   */\n      tag_106\n        /* \"#utility.yul\":5024:5025   */\n      0x00\n        /* \"#utility.yul\":5013:5022   */\n      dup4\n        /* \"#utility.yul\":5009:5026   */\n      add\n        /* \"#utility.yul\":5000:5006   */\n      dup6\n        /* \"#utility.yul\":4962:5027   */\n      tag_47\n      jump\t// in\n    tag_106:\n        /* \"#utility.yul\":5074:5083   */\n      dup2\n        /* \"#utility.yul\":5068:5072   */\n      dup2\n        /* \"#utility.yul\":5064:5084   */\n      sub\n        /* \"#utility.yul\":5059:5061   */\n      0x20\n        /* \"#utility.yul\":5048:5057   */\n      dup4\n        /* \"#utility.yul\":5044:5062   */\n      add\n        /* \"#utility.yul\":5037:5085   */\n      mstore\n        /* \"#utility.yul\":5102:5178   */\n      tag_107\n        /* \"#utility.yul\":5173:5177   */\n      dup2\n        /* \"#utility.yul\":5164:5170   */\n      dup5\n        /* \"#utility.yul\":5102:5178   */\n      tag_58\n      jump\t// in\n    tag_107:\n        /* \"#utility.yul\":5094:5178   */\n      swap1\n      pop\n        /* \"#utility.yul\":4778:5185   */\n      swap4\n      swap3\n      pop\n      pop\n      pop\n      jump\t// out\n        /* \"#utility.yul\":5191:5360   */\n    tag_59:\n        /* \"#utility.yul\":5331:5352   */\n      0x656c20656e76696f2068612066616c6c61646f00000000000000000000000000\n        /* \"#utility.yul\":5327:5328   */\n      0x00\n        /* \"#utility.yul\":5319:5325   */\n      dup3\n        /* \"#utility.yul\":5315:5329   */\n      add\n        /* \"#utility.yul\":5308:5353   */\n      mstore\n        /* \"#utility.yul\":5191:5360   */\n      pop\n      jump\t// out\n        /* \"#utility.yul\":5366:5732   */\n    tag_60:\n        /* \"#utility.yul\":5508:5511   */\n      0x00\n        /* \"#utility.yul\":5529:5596   */\n      tag_110\n        /* \"#utility.yul\":5593:5595   */\n      0x13\n        /* \"#utility.yul\":5588:5591   */\n      dup4\n        /* \"#utility.yul\":5529:5596   */\n      tag_48\n      jump\t// in\n    tag_110:\n        /* \"#utility.yul\":5522:5596   */\n      swap2\n      pop\n        /* \"#utility.yul\":5605:5698   */\n      tag_111\n        /* \"#utility.yul\":5694:5697   */\n      dup3\n        /* \"#utility.yul\":5605:5698   */\n      tag_59\n      jump\t// in\n    tag_111:\n        /* \"#utility.yul\":5723:5725   */\n      0x20\n        /* \"#utility.yul\":5718:5721   */\n      dup3\n        /* \"#utility.yul\":5714:5726   */\n      add\n        /* \"#utility.yul\":5707:5726   */\n      swap1\n      pop\n        /* \"#utility.yul\":5366:5732   */\n      swap2\n      swap1\n      pop\n      jump\t// out\n        /* \"#utility.yul\":5738:6157   */\n    tag_35:\n        /* \"#utility.yul\":5904:5908   */\n      0x00\n        /* \"#utility.yul\":5942:5944   */\n      0x20\n        /* \"#utility.yul\":5931:5940   */\n      dup3\n        /* \"#utility.yul\":5927:5945   */\n      add\n        /* \"#utility.yul\":5919:5945   */\n      swap1\n      pop\n        /* \"#utility.yul\":5991:6000   */\n      dup2\n        /* \"#utility.yul\":5985:5989   */\n      dup2\n        /* \"#utility.yul\":5981:6001   */\n      sub\n        /* \"#utility.yul\":5977:5978   */\n      0x00\n        /* \"#utility.yul\":5966:5975   */\n      dup4\n        /* \"#utility.yul\":5962:5979   */\n      add\n        /* \"#utility.yul\":5955:6002   */\n      mstore\n        /* \"#utility.yul\":6019:6150   */\n      tag_113\n        /* \"#utility.yul\":6145:6149   */\n      dup2\n        /* \"#utility.yul\":6019:6150   */\n      tag_60\n      jump\t// in\n    tag_113:\n        /* \"#utility.yul\":6011:6150   */\n      swap1\n      pop\n        /* \"#utility.yul\":5738:6157   */\n      swap2\n      swap1\n      pop\n      jump\t// out\n\n    auxdata: 0xa2646970667358221220ca3fe52775d54a973d5cb6d930356f520ca6c77ee3c59cd6f32e1b30547a44d964736f6c634300081a0033\n}\n",
				"bytecode": {
					"linkReferences": {},
					"object": "608060405261054e806100115f395ff3fe608060405260043610610037575f3560e01c806374be480614610042578063830c29ae1461005e578063fca303b11461007a5761003e565b3661003e57005b5f80fd5b61005c600480360381019061005791906102fb565b610096565b005b610078600480360381019061007391906102fb565b610157565b005b610094600480360381019061008f91906102fb565b61024e565b005b5f8173ffffffffffffffffffffffffffffffffffffffff166108fc670de0b6b3a764000090811502906040515f60405180830381858888f1935050505090507f0c46a72a145bed1fc3c2d4b0e023bd11ddb1e3204a898f4119357ecde6d5fe99816040516101049190610340565b60405180910390a16001151581151514610153576040517f08c379a000000000000000000000000000000000000000000000000000000000815260040161014a906103b3565b60405180910390fd5b5050565b5f808273ffffffffffffffffffffffffffffffffffffffff16670de0b6b3a7640000604051610185906103fe565b5f6040518083038185875af1925050503d805f81146101bf576040519150601f19603f3d011682016040523d82523d5f602084013e6101c4565b606091505b50915091507f265b43034d55cb12c6ef2185c7789690588a255cd2822a7b2776748ead4b320382826040516101fa929190610482565b60405180910390a16001151582151514610249576040517f08c379a0000000000000000000000000000000000000000000000000000000008152600401610240906104fa565b60405180910390fd5b505050565b8073ffffffffffffffffffffffffffffffffffffffff166108fc670de0b6b3a764000090811502906040515f60405180830381858888f19350505050158015610299573d5f803e3d5ffd5b5050565b5f80fd5b5f73ffffffffffffffffffffffffffffffffffffffff82169050919050565b5f6102ca826102a1565b9050919050565b6102da816102c0565b81146102e4575f80fd5b50565b5f813590506102f5816102d1565b92915050565b5f602082840312156103105761030f61029d565b5b5f61031d848285016102e7565b91505092915050565b5f8115159050919050565b61033a81610326565b82525050565b5f6020820190506103535f830184610331565b92915050565b5f82825260208201905092915050565b7f456c20656e76696f2068612066616c6c61646f000000000000000000000000005f82015250565b5f61039d601383610359565b91506103a882610369565b602082019050919050565b5f6020820190508181035f8301526103ca81610391565b9050919050565b5f81905092915050565b50565b5f6103e95f836103d1565b91506103f4826103db565b5f82019050919050565b5f610408826103de565b9150819050919050565b5f81519050919050565b5f82825260208201905092915050565b8281835e5f83830152505050565b5f601f19601f8301169050919050565b5f61045482610412565b61045e818561041c565b935061046e81856020860161042c565b6104778161043a565b840191505092915050565b5f6040820190506104955f830185610331565b81810360208301526104a7818461044a565b90509392505050565b7f656c20656e76696f2068612066616c6c61646f000000000000000000000000005f82015250565b5f6104e4601383610359565b91506104ef826104b0565b602082019050919050565b5f6020820190508181035f830152610511816104d8565b905091905056fea2646970667358221220ca3fe52775d54a973d5cb6d930356f520ca6c77ee3c59cd6f32e1b30547a44d964736f6c634300081a0033",
					"opcodes": "PUSH1 0x80 PUSH1 0x40 MSTORE PUSH2 0x54E DUP1 PUSH2 0x11 PUSH0 CODECOPY PUSH0 RETURN INVALID PUSH1 0x80 PUSH1 0x40 MSTORE PUSH1 0x4 CALLDATASIZE LT PUSH2 0x37 JUMPI PUSH0 CALLDATALOAD PUSH1 0xE0 SHR DUP1 PUSH4 0x74BE4806 EQ PUSH2 0x42 JUMPI DUP1 PUSH4 0x830C29AE EQ PUSH2 0x5E JUMPI DUP1 PUSH4 0xFCA303B1 EQ PUSH2 0x7A JUMPI PUSH2 0x3E JUMP JUMPDEST CALLDATASIZE PUSH2 0x3E JUMPI STOP JUMPDEST PUSH0 DUP1 REVERT JUMPDEST PUSH2 0x5C PUSH1 0x4 DUP1 CALLDATASIZE SUB DUP2 ADD SWAP1 PUSH2 0x57 SWAP2 SWAP1 PUSH2 0x2FB JUMP JUMPDEST PUSH2 0x96 JUMP JUMPDEST STOP JUMPDEST PUSH2 0x78 PUSH1 0x4 DUP1 CALLDATASIZE SUB DUP2 ADD SWAP1 PUSH2 0x73 SWAP2 SWAP1 PUSH2 0x2FB JUMP JUMPDEST PUSH2 0x157 JUMP JUMPDEST STOP JUMPDEST PUSH2 0x94 PUSH1 0x4 DUP1 CALLDATASIZE SUB DUP2 ADD SWAP1 PUSH2 0x8F SWAP2 SWAP1 PUSH2 0x2FB JUMP JUMPDEST PUSH2 0x24E JUMP JUMPDEST STOP JUMPDEST PUSH0 DUP2 PUSH20 0xFFFFFFFFFFFFFFFFFFFFFFFFFFFFFFFFFFFFFFFF AND PUSH2 0x8FC PUSH8 0xDE0B6B3A7640000 SWAP1 DUP2 ISZERO MUL SWAP1 PUSH1 0x40 MLOAD PUSH0 PUSH1 0x40 MLOAD DUP1 DUP4 SUB DUP2 DUP6 DUP9 DUP9 CALL SWAP4 POP POP POP POP SWAP1 POP PUSH32 0xC46A72A145BED1FC3C2D4B0E023BD11DDB1E3204A898F4119357ECDE6D5FE99 DUP2 PUSH1 0x40 MLOAD PUSH2 0x104 SWAP2 SWAP1 PUSH2 0x340 JUMP JUMPDEST PUSH1 0x40 MLOAD DUP1 SWAP2 SUB SWAP1 LOG1 PUSH1 0x1 ISZERO ISZERO DUP2 ISZERO ISZERO EQ PUSH2 0x153 JUMPI PUSH1 0x40 MLOAD PUSH32 0x8C379A000000000000000000000000000000000000000000000000000000000 DUP2 MSTORE PUSH1 0x4 ADD PUSH2 0x14A SWAP1 PUSH2 0x3B3 JUMP JUMPDEST PUSH1 0x40 MLOAD DUP1 SWAP2 SUB SWAP1 REVERT JUMPDEST POP POP JUMP JUMPDEST PUSH0 DUP1 DUP3 PUSH20 0xFFFFFFFFFFFFFFFFFFFFFFFFFFFFFFFFFFFFFFFF AND PUSH8 0xDE0B6B3A7640000 PUSH1 0x40 MLOAD PUSH2 0x185 SWAP1 PUSH2 0x3FE JUMP JUMPDEST PUSH0 PUSH1 0x40 MLOAD DUP1 DUP4 SUB DUP2 DUP6 DUP8 GAS CALL SWAP3 POP POP POP RETURNDATASIZE DUP1 PUSH0 DUP2 EQ PUSH2 0x1BF JUMPI PUSH1 0x40 MLOAD SWAP2 POP PUSH1 0x1F NOT PUSH1 0x3F RETURNDATASIZE ADD AND DUP3 ADD PUSH1 0x40 MSTORE RETURNDATASIZE DUP3 MSTORE RETURNDATASIZE PUSH0 PUSH1 0x20 DUP5 ADD RETURNDATACOPY PUSH2 0x1C4 JUMP JUMPDEST PUSH1 0x60 SWAP2 POP JUMPDEST POP SWAP2 POP SWAP2 POP PUSH32 0x265B43034D55CB12C6EF2185C7789690588A255CD2822A7B2776748EAD4B3203 DUP3 DUP3 PUSH1 0x40 MLOAD PUSH2 0x1FA SWAP3 SWAP2 SWAP1 PUSH2 0x482 JUMP JUMPDEST PUSH1 0x40 MLOAD DUP1 SWAP2 SUB SWAP1 LOG1 PUSH1 0x1 ISZERO ISZERO DUP3 ISZERO ISZERO EQ PUSH2 0x249 JUMPI PUSH1 0x40 MLOAD PUSH32 0x8C379A000000000000000000000000000000000000000000000000000000000 DUP2 MSTORE PUSH1 0x4 ADD PUSH2 0x240 SWAP1 PUSH2 0x4FA JUMP JUMPDEST PUSH1 0x40 MLOAD DUP1 SWAP2 SUB SWAP1 REVERT JUMPDEST POP POP POP JUMP JUMPDEST DUP1 PUSH20 0xFFFFFFFFFFFFFFFFFFFFFFFFFFFFFFFFFFFFFFFF AND PUSH2 0x8FC PUSH8 0xDE0B6B3A7640000 SWAP1 DUP2 ISZERO MUL SWAP1 PUSH1 0x40 MLOAD PUSH0 PUSH1 0x40 MLOAD DUP1 DUP4 SUB DUP2 DUP6 DUP9 DUP9 CALL SWAP4 POP POP POP POP ISZERO DUP1 ISZERO PUSH2 0x299 JUMPI RETURNDATASIZE PUSH0 DUP1 RETURNDATACOPY RETURNDATASIZE PUSH0 REVERT JUMPDEST POP POP JUMP JUMPDEST PUSH0 DUP1 REVERT JUMPDEST PUSH0 PUSH20 0xFFFFFFFFFFFFFFFFFFFFFFFFFFFFFFFFFFFFFFFF DUP3 AND SWAP1 POP SWAP2 SWAP1 POP JUMP JUMPDEST PUSH0 PUSH2 0x2CA DUP3 PUSH2 0x2A1 JUMP JUMPDEST SWAP1 POP SWAP2 SWAP1 POP JUMP JUMPDEST PUSH2 0x2DA DUP2 PUSH2 0x2C0 JUMP JUMPDEST DUP2 EQ PUSH2 0x2E4 JUMPI PUSH0 DUP1 REVERT JUMPDEST POP JUMP JUMPDEST PUSH0 DUP2 CALLDATALOAD SWAP1 POP PUSH2 0x2F5 DUP2 PUSH2 0x2D1 JUMP JUMPDEST SWAP3 SWAP2 POP POP JUMP JUMPDEST PUSH0 PUSH1 0x20 DUP3 DUP5 SUB SLT ISZERO PUSH2 0x310 JUMPI PUSH2 0x30F PUSH2 0x29D JUMP JUMPDEST JUMPDEST PUSH0 PUSH2 0x31D DUP5 DUP3 DUP6 ADD PUSH2 0x2E7 JUMP JUMPDEST SWAP2 POP POP SWAP3 SWAP2 POP POP JUMP JUMPDEST PUSH0 DUP2 ISZERO ISZERO SWAP1 POP SWAP2 SWAP1 POP JUMP JUMPDEST PUSH2 0x33A DUP2 PUSH2 0x326 JUMP JUMPDEST DUP3 MSTORE POP POP JUMP JUMPDEST PUSH0 PUSH1 0x20 DUP3 ADD SWAP1 POP PUSH2 0x353 PUSH0 DUP4 ADD DUP5 PUSH2 0x331 JUMP JUMPDEST SWAP3 SWAP2 POP POP JUMP JUMPDEST PUSH0 DUP3 DUP3 MSTORE PUSH1 0x20 DUP3 ADD SWAP1 POP SWAP3 SWAP2 POP POP JUMP JUMPDEST PUSH32 0x456C20656E76696F2068612066616C6C61646F00000000000000000000000000 PUSH0 DUP3 ADD MSTORE POP JUMP JUMPDEST PUSH0 PUSH2 0x39D PUSH1 0x13 DUP4 PUSH2 0x359 JUMP JUMPDEST SWAP2 POP PUSH2 0x3A8 DUP3 PUSH2 0x369 JUMP JUMPDEST PUSH1 0x20 DUP3 ADD SWAP1 POP SWAP2 SWAP1 POP JUMP JUMPDEST PUSH0 PUSH1 0x20 DUP3 ADD SWAP1 POP DUP2 DUP2 SUB PUSH0 DUP4 ADD MSTORE PUSH2 0x3CA DUP2 PUSH2 0x391 JUMP JUMPDEST SWAP1 POP SWAP2 SWAP1 POP JUMP JUMPDEST PUSH0 DUP2 SWAP1 POP SWAP3 SWAP2 POP POP JUMP JUMPDEST POP JUMP JUMPDEST PUSH0 PUSH2 0x3E9 PUSH0 DUP4 PUSH2 0x3D1 JUMP JUMPDEST SWAP2 POP PUSH2 0x3F4 DUP3 PUSH2 0x3DB JUMP JUMPDEST PUSH0 DUP3 ADD SWAP1 POP SWAP2 SWAP1 POP JUMP JUMPDEST PUSH0 PUSH2 0x408 DUP3 PUSH2 0x3DE JUMP JUMPDEST SWAP2 POP DUP2 SWAP1 POP SWAP2 SWAP1 POP JUMP JUMPDEST PUSH0 DUP2 MLOAD SWAP1 POP SWAP2 SWAP1 POP JUMP JUMPDEST PUSH0 DUP3 DUP3 MSTORE PUSH1 0x20 DUP3 ADD SWAP1 POP SWAP3 SWAP2 POP POP JUMP JUMPDEST DUP3 DUP2 DUP4 MCOPY PUSH0 DUP4 DUP4 ADD MSTORE POP POP POP JUMP JUMPDEST PUSH0 PUSH1 0x1F NOT PUSH1 0x1F DUP4 ADD AND SWAP1 POP SWAP2 SWAP1 POP JUMP JUMPDEST PUSH0 PUSH2 0x454 DUP3 PUSH2 0x412 JUMP JUMPDEST PUSH2 0x45E DUP2 DUP6 PUSH2 0x41C JUMP JUMPDEST SWAP4 POP PUSH2 0x46E DUP2 DUP6 PUSH1 0x20 DUP7 ADD PUSH2 0x42C JUMP JUMPDEST PUSH2 0x477 DUP2 PUSH2 0x43A JUMP JUMPDEST DUP5 ADD SWAP2 POP POP SWAP3 SWAP2 POP POP JUMP JUMPDEST PUSH0 PUSH1 0x40 DUP3 ADD SWAP1 POP PUSH2 0x495 PUSH0 DUP4 ADD DUP6 PUSH2 0x331 JUMP JUMPDEST DUP2 DUP2 SUB PUSH1 0x20 DUP4 ADD MSTORE PUSH2 0x4A7 DUP2 DUP5 PUSH2 0x44A JUMP JUMPDEST SWAP1 POP SWAP4 SWAP3 POP POP POP JUMP JUMPDEST PUSH32 0x656C20656E76696F2068612066616C6C61646F00000000000000000000000000 PUSH0 DUP3 ADD MSTORE POP JUMP JUMPDEST PUSH0 PUSH2 0x4E4 PUSH1 0x13 DUP4 PUSH2 0x359 JUMP JUMPDEST SWAP2 POP PUSH2 0x4EF DUP3 PUSH2 0x4B0 JUMP JUMPDEST PUSH1 0x20 DUP3 ADD SWAP1 POP SWAP2 SWAP1 POP JUMP JUMPDEST PUSH0 PUSH1 0x20 DUP3 ADD SWAP1 POP DUP2 DUP2 SUB PUSH0 DUP4 ADD MSTORE PUSH2 0x511 DUP2 PUSH2 0x4D8 JUMP JUMPDEST SWAP1 POP SWAP2 SWAP1 POP JUMP INVALID LOG2 PUSH5 0x6970667358 0x22 SLT KECCAK256 0xCA EXTCODEHASH 0xE5 0x27 PUSH22 0xD54A973D5CB6D930356F520CA6C77EE3C59CD6F32E1B ADDRESS SLOAD PUSH27 0x44D964736F6C634300081A00330000000000000000000000000000 "
				},
				"gasEstimates": {
					"creation": {
						"codeDepositCost": "271600",
						"executionCost": "286",
						"totalCost": "271886"
					},
					"external": {
						"sendViaCall(address)": "infinite",
						"sendViaSend(address)": "infinite",
						"sendViaTansfer(address)": "infinite"
					}
				},
				"methodIdentifiers": {
					"sendViaCall(address)": "830c29ae",
					"sendViaSend(address)": "74be4806",
					"sendViaTansfer(address)": "fca303b1"
				}
			},
			"storageLayout": {
				"storage": [],
				"types": null
			},
			"userdoc": {
				"kind": "user",
				"methods": {},
				"version": 1
			}
		}
	}
}