{
	"data": {
		"bytecode": {
			"linkReferences": {},
			"object": "6080604052348015600e575f80fd5b5061071c8061001c5f395ff3fe608060405234801561000f575f80fd5b5060043610610086575f3560e01c8063b1b45b1b11610059578063b1b45b1b1461014b578063baaf073d1461017b578063dd125e37146101ab578063e989d9cc146101dc57610086565b8063424bd6201461008a57806352f294bc146100ba578063871f9af4146100ea578063a391c15b1461011b575b5f80fd5b6100a4600480360381019061009f919061032f565b61020c565b6040516100b1919061037c565b60405180910390f35b6100d460048036038101906100cf919061032f565b610221565b6040516100e1919061037c565b60405180910390f35b61010460048036038101906100ff9190610395565b610236565b6040516101129291906103e5565b60405180910390f35b6101356004803603810190610130919061032f565b61026d565b604051610142919061037c565b60405180910390f35b6101656004803603810190610160919061032f565b610282565b604051610172919061037c565b60405180910390f35b6101956004803603810190610190919061032f565b610297565b6040516101a2919061037c565b60405180910390f35b6101c560048036038101906101c09190610395565b6102ac565b6040516101d39291906103e5565b60405180910390f35b6101f660048036038101906101f1919061032f565b6102e3565b604051610203919061037c565b60405180910390f35b5f81836102199190610439565b905092915050565b5f818361022e919061047a565b905092915050565b5f808280610247576102466104ad565b5b8486098385876102579190610439565b61026191906104da565b91509150935093915050565b5f818361027a919061050a565b905092915050565b5f818361028f919061053a565b905092915050565b5f81836102a491906104da565b905092915050565b5f8082806102bd576102bc6104ad565b5b8486088385876102cd919061053a565b6102d791906104da565b91509150935093915050565b5f81836102f0919061069c565b905092915050565b5f80fd5b5f819050919050565b61030e816102fc565b8114610318575f80fd5b50565b5f8135905061032981610305565b92915050565b5f8060408385031215610345576103446102f8565b5b5f6103528582860161031b565b92505060206103638582860161031b565b9150509250929050565b610376816102fc565b82525050565b5f60208201905061038f5f83018461036d565b92915050565b5f805f606084860312156103ac576103ab6102f8565b5b5f6103b98682870161031b565b93505060206103ca8682870161031b565b92505060406103db8682870161031b565b9150509250925092565b5f6040820190506103f85f83018561036d565b610405602083018461036d565b9392505050565b7f4e487b71000000000000000000000000000000000000000000000000000000005f52601160045260245ffd5b5f610443826102fc565b915061044e836102fc565b925082820261045c816102fc565b915082820484148315176104735761047261040c565b5b5092915050565b5f610484826102fc565b915061048f836102fc565b92508282039050818111156104a7576104a661040c565b5b92915050565b7f4e487b71000000000000000000000000000000000000000000000000000000005f52601260045260245ffd5b5f6104e4826102fc565b91506104ef836102fc565b9250826104ff576104fe6104ad565b5b828206905092915050565b5f610514826102fc565b915061051f836102fc565b92508261052f5761052e6104ad565b5b828204905092915050565b5f610544826102fc565b915061054f836102fc565b92508282019050808211156105675761056661040c565b5b92915050565b5f8160011c9050919050565b5f808291508390505b60018511156105c25780860481111561059e5761059d61040c565b5b60018516156105ad5780820291505b80810290506105bb8561056d565b9450610582565b94509492505050565b5f826105da5760019050610695565b816105e7575f9050610695565b81600181146105fd576002811461060757610636565b6001915050610695565b60ff8411156106195761061861040c565b5b8360020a9150848211156106305761062f61040c565b5b50610695565b5060208310610133831016604e8410600b841016171561066b5782820a9050838111156106665761066561040c565b5b610695565b6106788484846001610579565b9250905081840481111561068f5761068e61040c565b5b81810290505b9392505050565b5f6106a6826102fc565b91506106b1836102fc565b92506106de7fffffffffffffffffffffffffffffffffffffffffffffffffffffffffffffffff84846105cb565b90509291505056fea264697066735822122066b86706b7011a85c9fec16c41bab56302e470b26c6f9d0b08a71e4a5ef388dc64736f6c634300081a0033",
			"opcodes": "PUSH1 0x80 PUSH1 0x40 MSTORE CALLVALUE DUP1 ISZERO PUSH1 0xE JUMPI PUSH0 DUP1 REVERT JUMPDEST POP PUSH2 0x71C DUP1 PUSH2 0x1C PUSH0 CODECOPY PUSH0 RETURN INVALID PUSH1 0x80 PUSH1 0x40 MSTORE CALLVALUE DUP1 ISZERO PUSH2 0xF JUMPI PUSH0 DUP1 REVERT JUMPDEST POP PUSH1 0x4 CALLDATASIZE LT PUSH2 0x86 JUMPI PUSH0 CALLDATALOAD PUSH1 0xE0 SHR DUP1 PUSH4 0xB1B45B1B GT PUSH2 0x59 JUMPI DUP1 PUSH4 0xB1B45B1B EQ PUSH2 0x14B JUMPI DUP1 PUSH4 0xBAAF073D EQ PUSH2 0x17B JUMPI DUP1 PUSH4 0xDD125E37 EQ PUSH2 0x1AB JUMPI DUP1 PUSH4 0xE989D9CC EQ PUSH2 0x1DC JUMPI PUSH2 0x86 JUMP JUMPDEST DUP1 PUSH4 0x424BD620 EQ PUSH2 0x8A JUMPI DUP1 PUSH4 0x52F294BC EQ PUSH2 0xBA JUMPI DUP1 PUSH4 0x871F9AF4 EQ PUSH2 0xEA JUMPI DUP1 PUSH4 0xA391C15B EQ PUSH2 0x11B JUMPI JUMPDEST PUSH0 DUP1 REVERT JUMPDEST PUSH2 0xA4 PUSH1 0x4 DUP1 CALLDATASIZE SUB DUP2 ADD SWAP1 PUSH2 0x9F SWAP2 SWAP1 PUSH2 0x32F JUMP JUMPDEST PUSH2 0x20C JUMP JUMPDEST PUSH1 0x40 MLOAD PUSH2 0xB1 SWAP2 SWAP1 PUSH2 0x37C JUMP JUMPDEST PUSH1 0x40 MLOAD DUP1 SWAP2 SUB SWAP1 RETURN JUMPDEST PUSH2 0xD4 PUSH1 0x4 DUP1 CALLDATASIZE SUB DUP2 ADD SWAP1 PUSH2 0xCF SWAP2 SWAP1 PUSH2 0x32F JUMP JUMPDEST PUSH2 0x221 JUMP JUMPDEST PUSH1 0x40 MLOAD PUSH2 0xE1 SWAP2 SWAP1 PUSH2 0x37C JUMP JUMPDEST PUSH1 0x40 MLOAD DUP1 SWAP2 SUB SWAP1 RETURN JUMPDEST PUSH2 0x104 PUSH1 0x4 DUP1 CALLDATASIZE SUB DUP2 ADD SWAP1 PUSH2 0xFF SWAP2 SWAP1 PUSH2 0x395 JUMP JUMPDEST PUSH2 0x236 JUMP JUMPDEST PUSH1 0x40 MLOAD PUSH2 0x112 SWAP3 SWAP2 SWAP1 PUSH2 0x3E5 JUMP JUMPDEST PUSH1 0x40 MLOAD DUP1 SWAP2 SUB SWAP1 RETURN JUMPDEST PUSH2 0x135 PUSH1 0x4 DUP1 CALLDATASIZE SUB DUP2 ADD SWAP1 PUSH2 0x130 SWAP2 SWAP1 PUSH2 0x32F JUMP JUMPDEST PUSH2 0x26D JUMP JUMPDEST PUSH1 0x40 MLOAD PUSH2 0x142 SWAP2 SWAP1 PUSH2 0x37C JUMP JUMPDEST PUSH1 0x40 MLOAD DUP1 SWAP2 SUB SWAP1 RETURN JUMPDEST PUSH2 0x165 PUSH1 0x4 DUP1 CALLDATASIZE SUB DUP2 ADD SWAP1 PUSH2 0x160 SWAP2 SWAP1 PUSH2 0x32F JUMP JUMPDEST PUSH2 0x282 JUMP JUMPDEST PUSH1 0x40 MLOAD PUSH2 0x172 SWAP2 SWAP1 PUSH2 0x37C JUMP JUMPDEST PUSH1 0x40 MLOAD DUP1 SWAP2 SUB SWAP1 RETURN JUMPDEST PUSH2 0x195 PUSH1 0x4 DUP1 CALLDATASIZE SUB DUP2 ADD SWAP1 PUSH2 0x190 SWAP2 SWAP1 PUSH2 0x32F JUMP JUMPDEST PUSH2 0x297 JUMP JUMPDEST PUSH1 0x40 MLOAD PUSH2 0x1A2 SWAP2 SWAP1 PUSH2 0x37C JUMP JUMPDEST PUSH1 0x40 MLOAD DUP1 SWAP2 SUB SWAP1 RETURN JUMPDEST PUSH2 0x1C5 PUSH1 0x4 DUP1 CALLDATASIZE SUB DUP2 ADD SWAP1 PUSH2 0x1C0 SWAP2 SWAP1 PUSH2 0x395 JUMP JUMPDEST PUSH2 0x2AC JUMP JUMPDEST PUSH1 0x40 MLOAD PUSH2 0x1D3 SWAP3 SWAP2 SWAP1 PUSH2 0x3E5 JUMP JUMPDEST PUSH1 0x40 MLOAD DUP1 SWAP2 SUB SWAP1 RETURN JUMPDEST PUSH2 0x1F6 PUSH1 0x4 DUP1 CALLDATASIZE SUB DUP2 ADD SWAP1 PUSH2 0x1F1 SWAP2 SWAP1 PUSH2 0x32F JUMP JUMPDEST PUSH2 0x2E3 JUMP JUMPDEST PUSH1 0x40 MLOAD PUSH2 0x203 SWAP2 SWAP1 PUSH2 0x37C JUMP JUMPDEST PUSH1 0x40 MLOAD DUP1 SWAP2 SUB SWAP1 RETURN JUMPDEST PUSH0 DUP2 DUP4 PUSH2 0x219 SWAP2 SWAP1 PUSH2 0x439 JUMP JUMPDEST SWAP1 POP SWAP3 SWAP2 POP POP JUMP JUMPDEST PUSH0 DUP2 DUP4 PUSH2 0x22E SWAP2 SWAP1 PUSH2 0x47A JUMP JUMPDEST SWAP1 POP SWAP3 SWAP2 POP POP JUMP JUMPDEST PUSH0 DUP1 DUP3 DUP1 PUSH2 0x247 JUMPI PUSH2 0x246 PUSH2 0x4AD JUMP JUMPDEST JUMPDEST DUP5 DUP7 MULMOD DUP4 DUP6 DUP8 PUSH2 0x257 SWAP2 SWAP1 PUSH2 0x439 JUMP JUMPDEST PUSH2 0x261 SWAP2 SWAP1 PUSH2 0x4DA JUMP JUMPDEST SWAP2 POP SWAP2 POP SWAP4 POP SWAP4 SWAP2 POP POP JUMP JUMPDEST PUSH0 DUP2 DUP4 PUSH2 0x27A SWAP2 SWAP1 PUSH2 0x50A JUMP JUMPDEST SWAP1 POP SWAP3 SWAP2 POP POP JUMP JUMPDEST PUSH0 DUP2 DUP4 PUSH2 0x28F SWAP2 SWAP1 PUSH2 0x53A JUMP JUMPDEST SWAP1 POP SWAP3 SWAP2 POP POP JUMP JUMPDEST PUSH0 DUP2 DUP4 PUSH2 0x2A4 SWAP2 SWAP1 PUSH2 0x4DA JUMP JUMPDEST SWAP1 POP SWAP3 SWAP2 POP POP JUMP JUMPDEST PUSH0 DUP1 DUP3 DUP1 PUSH2 0x2BD JUMPI PUSH2 0x2BC PUSH2 0x4AD JUMP JUMPDEST JUMPDEST DUP5 DUP7 ADDMOD DUP4 DUP6 DUP8 PUSH2 0x2CD SWAP2 SWAP1 PUSH2 0x53A JUMP JUMPDEST PUSH2 0x2D7 SWAP2 SWAP1 PUSH2 0x4DA JUMP JUMPDEST SWAP2 POP SWAP2 POP SWAP4 POP SWAP4 SWAP2 POP POP JUMP JUMPDEST PUSH0 DUP2 DUP4 PUSH2 0x2F0 SWAP2 SWAP1 PUSH2 0x69C JUMP JUMPDEST SWAP1 POP SWAP3 SWAP2 POP POP JUMP JUMPDEST PUSH0 DUP1 REVERT JUMPDEST PUSH0 DUP2 SWAP1 POP SWAP2 SWAP1 POP JUMP JUMPDEST PUSH2 0x30E DUP2 PUSH2 0x2FC JUMP JUMPDEST DUP2 EQ PUSH2 0x318 JUMPI PUSH0 DUP1 REVERT JUMPDEST POP JUMP JUMPDEST PUSH0 DUP2 CALLDATALOAD SWAP1 POP PUSH2 0x329 DUP2 PUSH2 0x305 JUMP JUMPDEST SWAP3 SWAP2 POP POP JUMP JUMPDEST PUSH0 DUP1 PUSH1 0x40 DUP4 DUP6 SUB SLT ISZERO PUSH2 0x345 JUMPI PUSH2 0x344 PUSH2 0x2F8 JUMP JUMPDEST JUMPDEST PUSH0 PUSH2 0x352 DUP6 DUP3 DUP7 ADD PUSH2 0x31B JUMP JUMPDEST SWAP3 POP POP PUSH1 0x20 PUSH2 0x363 DUP6 DUP3 DUP7 ADD PUSH2 0x31B JUMP JUMPDEST SWAP2 POP POP SWAP3 POP SWAP3 SWAP1 POP JUMP JUMPDEST PUSH2 0x376 DUP2 PUSH2 0x2FC JUMP JUMPDEST DUP3 MSTORE POP POP JUMP JUMPDEST PUSH0 PUSH1 0x20 DUP3 ADD SWAP1 POP PUSH2 0x38F PUSH0 DUP4 ADD DUP5 PUSH2 0x36D JUMP JUMPDEST SWAP3 SWAP2 POP POP JUMP JUMPDEST PUSH0 DUP1 PUSH0 PUSH1 0x60 DUP5 DUP7 SUB SLT ISZERO PUSH2 0x3AC JUMPI PUSH2 0x3AB PUSH2 0x2F8 JUMP JUMPDEST JUMPDEST PUSH0 PUSH2 0x3B9 DUP7 DUP3 DUP8 ADD PUSH2 0x31B JUMP JUMPDEST SWAP4 POP POP PUSH1 0x20 PUSH2 0x3CA DUP7 DUP3 DUP8 ADD PUSH2 0x31B JUMP JUMPDEST SWAP3 POP POP PUSH1 0x40 PUSH2 0x3DB DUP7 DUP3 DUP8 ADD PUSH2 0x31B JUMP JUMPDEST SWAP2 POP POP SWAP3 POP SWAP3 POP SWAP3 JUMP JUMPDEST PUSH0 PUSH1 0x40 DUP3 ADD SWAP1 POP PUSH2 0x3F8 PUSH0 DUP4 ADD DUP6 PUSH2 0x36D JUMP JUMPDEST PUSH2 0x405 PUSH1 0x20 DUP4 ADD DUP5 PUSH2 0x36D JUMP JUMPDEST SWAP4 SWAP3 POP POP POP JUMP JUMPDEST PUSH32 0x4E487B7100000000000000000000000000000000000000000000000000000000 PUSH0 MSTORE PUSH1 0x11 PUSH1 0x4 MSTORE PUSH1 0x24 PUSH0 REVERT JUMPDEST PUSH0 PUSH2 0x443 DUP3 PUSH2 0x2FC JUMP JUMPDEST SWAP2 POP PUSH2 0x44E DUP4 PUSH2 0x2FC JUMP JUMPDEST SWAP3 POP DUP3 DUP3 MUL PUSH2 0x45C DUP2 PUSH2 0x2FC JUMP JUMPDEST SWAP2 POP DUP3 DUP3 DIV DUP5 EQ DUP4 ISZERO OR PUSH2 0x473 JUMPI PUSH2 0x472 PUSH2 0x40C JUMP JUMPDEST JUMPDEST POP SWAP3 SWAP2 POP POP JUMP JUMPDEST PUSH0 PUSH2 0x484 DUP3 PUSH2 0x2FC JUMP JUMPDEST SWAP2 POP PUSH2 0x48F DUP4 PUSH2 0x2FC JUMP JUMPDEST SWAP3 POP DUP3 DUP3 SUB SWAP1 POP DUP2 DUP2 GT ISZERO PUSH2 0x4A7 JUMPI PUSH2 0x4A6 PUSH2 0x40C JUMP JUMPDEST JUMPDEST SWAP3 SWAP2 POP POP JUMP JUMPDEST PUSH32 0x4E487B7100000000000000000000000000000000000000000000000000000000 PUSH0 MSTORE PUSH1 0x12 PUSH1 0x4 MSTORE PUSH1 0x24 PUSH0 REVERT JUMPDEST PUSH0 PUSH2 0x4E4 DUP3 PUSH2 0x2FC JUMP JUMPDEST SWAP2 POP PUSH2 0x4EF DUP4 PUSH2 0x2FC JUMP JUMPDEST SWAP3 POP DUP3 PUSH2 0x4FF JUMPI PUSH2 0x4FE PUSH2 0x4AD JUMP JUMPDEST JUMPDEST DUP3 DUP3 MOD SWAP1 POP SWAP3 SWAP2 POP POP JUMP JUMPDEST PUSH0 PUSH2 0x514 DUP3 PUSH2 0x2FC JUMP JUMPDEST SWAP2 POP PUSH2 0x51F DUP4 PUSH2 0x2FC JUMP JUMPDEST SWAP3 POP DUP3 PUSH2 0x52F JUMPI PUSH2 0x52E PUSH2 0x4AD JUMP JUMPDEST JUMPDEST DUP3 DUP3 DIV SWAP1 POP SWAP3 SWAP2 POP POP JUMP JUMPDEST PUSH0 PUSH2 0x544 DUP3 PUSH2 0x2FC JUMP JUMPDEST SWAP2 POP PUSH2 0x54F DUP4 PUSH2 0x2FC JUMP JUMPDEST SWAP3 POP DUP3 DUP3 ADD SWAP1 POP DUP1 DUP3 GT ISZERO PUSH2 0x567 JUMPI PUSH2 0x566 PUSH2 0x40C JUMP JUMPDEST JUMPDEST SWAP3 SWAP2 POP POP JUMP JUMPDEST PUSH0 DUP2 PUSH1 0x1 SHR SWAP1 POP SWAP2 SWAP1 POP JUMP JUMPDEST PUSH0 DUP1 DUP3 SWAP2 POP DUP4 SWAP1 POP JUMPDEST PUSH1 0x1 DUP6 GT ISZERO PUSH2 0x5C2 JUMPI DUP1 DUP7 DIV DUP2 GT ISZERO PUSH2 0x59E JUMPI PUSH2 0x59D PUSH2 0x40C JUMP JUMPDEST JUMPDEST PUSH1 0x1 DUP6 AND ISZERO PUSH2 0x5AD JUMPI DUP1 DUP3 MUL SWAP2 POP JUMPDEST DUP1 DUP2 MUL SWAP1 POP PUSH2 0x5BB DUP6 PUSH2 0x56D JUMP JUMPDEST SWAP5 POP PUSH2 0x582 JUMP JUMPDEST SWAP5 POP SWAP5 SWAP3 POP POP POP JUMP JUMPDEST PUSH0 DUP3 PUSH2 0x5DA JUMPI PUSH1 0x1 SWAP1 POP PUSH2 0x695 JUMP JUMPDEST DUP2 PUSH2 0x5E7 JUMPI PUSH0 SWAP1 POP PUSH2 0x695 JUMP JUMPDEST DUP2 PUSH1 0x1 DUP2 EQ PUSH2 0x5FD JUMPI PUSH1 0x2 DUP2 EQ PUSH2 0x607 JUMPI PUSH2 0x636 JUMP JUMPDEST PUSH1 0x1 SWAP2 POP POP PUSH2 0x695 JUMP JUMPDEST PUSH1 0xFF DUP5 GT ISZERO PUSH2 0x619 JUMPI PUSH2 0x618 PUSH2 0x40C JUMP JUMPDEST JUMPDEST DUP4 PUSH1 0x2 EXP SWAP2 POP DUP5 DUP3 GT ISZERO PUSH2 0x630 JUMPI PUSH2 0x62F PUSH2 0x40C JUMP JUMPDEST JUMPDEST POP PUSH2 0x695 JUMP JUMPDEST POP PUSH1 0x20 DUP4 LT PUSH2 0x133 DUP4 LT AND PUSH1 0x4E DUP5 LT PUSH1 0xB DUP5 LT AND OR ISZERO PUSH2 0x66B JUMPI DUP3 DUP3 EXP SWAP1 POP DUP4 DUP2 GT ISZERO PUSH2 0x666 JUMPI PUSH2 0x665 PUSH2 0x40C JUMP JUMPDEST JUMPDEST PUSH2 0x695 JUMP JUMPDEST PUSH2 0x678 DUP5 DUP5 DUP5 PUSH1 0x1 PUSH2 0x579 JUMP JUMPDEST SWAP3 POP SWAP1 POP DUP2 DUP5 DIV DUP2 GT ISZERO PUSH2 0x68F JUMPI PUSH2 0x68E PUSH2 0x40C JUMP JUMPDEST JUMPDEST DUP2 DUP2 MUL SWAP1 POP JUMPDEST SWAP4 SWAP3 POP POP POP JUMP JUMPDEST PUSH0 PUSH2 0x6A6 DUP3 PUSH2 0x2FC JUMP JUMPDEST SWAP2 POP PUSH2 0x6B1 DUP4 PUSH2 0x2FC JUMP JUMPDEST SWAP3 POP PUSH2 0x6DE PUSH32 0xFFFFFFFFFFFFFFFFFFFFFFFFFFFFFFFFFFFFFFFFFFFFFFFFFFFFFFFFFFFFFFFF DUP5 DUP5 PUSH2 0x5CB JUMP JUMPDEST SWAP1 POP SWAP3 SWAP2 POP POP JUMP INVALID LOG2 PUSH5 0x6970667358 0x22 SLT KECCAK256 PUSH7 0xB86706B7011A85 0xC9 INVALID 0xC1 PUSH13 0x41BAB56302E470B26C6F9D0B08 0xA7 0x1E BLOBBASEFEE MCOPY RETURN DUP9 0xDC PUSH5 0x736F6C6343 STOP ADDMOD BYTE STOP CALLER "
		},
		"gasEstimates": {
			"creation": {
				"codeDepositCost": "364000",
				"executionCost": "397",
				"totalCost": "364397"
			},
			"external": {
				"_addmod(uint256,uint256,uint256)": "infinite",
				"_mulmod(uint256,uint256,uint256)": "infinite",
				"div(uint256,uint256)": "infinite",
				"expon(uint256,uint256)": "infinite",
				"modulo(uint256,uint256)": "infinite",
				"prod(uint256,uint256)": "infinite",
				"resta(uint256,uint256)": "infinite",
				"suma(uint256,uint256)": "infinite"
			}
		},
		"methodIdentifiers": {
			"_addmod(uint256,uint256,uint256)": "dd125e37",
			"_mulmod(uint256,uint256,uint256)": "871f9af4",
			"div(uint256,uint256)": "a391c15b",
			"expon(uint256,uint256)": "e989d9cc",
			"modulo(uint256,uint256)": "baaf073d",
			"prod(uint256,uint256)": "424bd620",
			"resta(uint256,uint256)": "52f294bc",
			"suma(uint256,uint256)": "b1b45b1b"
		}
	},
	"abi": [
		{
			"inputs": [
				{
					"internalType": "uint256",
					"name": "x",
					"type": "uint256"
				},
				{
					"internalType": "uint256",
					"name": "y",
					"type": "uint256"
				},
				{
					"internalType": "uint256",
					"name": "k",
					"type": "uint256"
				}
			],
			"name": "_addmod",
			"outputs": [
				{
					"internalType": "uint256",
					"name": "",
					"type": "uint256"
				},
				{
					"internalType": "uint256",
					"name": "",
					"type": "uint256"
				}
			],
			"stateMutability": "pure",
			"type": "function"
		},
		{
			"inputs": [
				{
					"internalType": "uint256",
					"name": "x",
					"type": "uint256"
				},
				{
					"internalType": "uint256",
					"name": "y",
					"type": "uint256"
				},
				{
					"internalType": "uint256",
					"name": "k",
					"type": "uint256"
				}
			],
			"name": "_mulmod",
			"outputs": [
				{
					"internalType": "uint256",
					"name": "",
					"type": "uint256"
				},
				{
					"internalType": "uint256",
					"name": "",
					"type": "uint256"
				}
			],
			"stateMutability": "pure",
			"type": "function"
		},
		{
			"inputs": [
				{
					"internalType": "uint256",
					"name": "a",
					"type": "uint256"
				},
				{
					"internalType": "uint256",
					"name": "b",
					"type": "uint256"
				}
			],
			"name": "div",
			"outputs": [
				{
					"internalType": "uint256",
					"name": "",
					"type": "uint256"
				}
			],
			"stateMutability": "pure",
			"type": "function"
		},
		{
			"inputs": [
				{
					"internalType": "uint256",
					"name": "a",
					"type": "uint256"
				},
				{
					"internalType": "uint256",
					"name": "b",
					"type": "uint256"
				}
			],
			"name": "expon",
			"outputs": [
				{
					"internalType": "uint256",
					"name": "",
					"type": "uint256"
				}
			],
			"stateMutability": "pure",
			"type": "function"
		},
		{
			"inputs": [
				{
					"internalType": "uint256",
					"name": "a",
					"type": "uint256"
				},
				{
					"internalType": "uint256",
					"name": "b",
					"type": "uint256"
				}
			],
			"name": "modulo",
			"outputs": [
				{
					"internalType": "uint256",
					"name": "",
					"type": "uint256"
				}
			],
			"stateMutability": "pure",
			"type": "function"
		},
		{
			"inputs": [
				{
					"internalType": "uint256",
					"name": "a",
					"type": "uint256"
				},
				{
					"internalType": "uint256",
					"name": "b",
					"type": "uint256"
				}
			],
			"name": "prod",
			"outputs": [
				{
					"internalType": "uint256",
					"name": "",
					"type": "uint256"
				}
			],
			"stateMutability": "pure",
			"type": "function"
		},
		{
			"inputs": [
				{
					"internalType": "uint256",
					"name": "a",
					"type": "uint256"
				},
				{
					"internalType": "uint256",
					"name": "b",
					"type": "uint256"
				}
			],
			"name": "resta",
			"outputs": [
				{
					"internalType": "uint256",
					"name": "",
					"type": "uint256"
				}
			],
			"stateMutability": "pure",
			"type": "function"
		},
		{
			"inputs": [
				{
					"internalType": "uint256",
					"name": "a",
					"type": "uint256"
				},
				{
					"internalType": "uint256",
					"name": "b",
					"type": "uint256"
				}
			],
			"name": "suma",
			"outputs": [
				{
					"internalType": "uint256",
					"name": "",
					"type": "uint256"
				}
			],
			"stateMutability": "pure",
			"type": "function"
		}
	]
}